:100000000C94C9010C94E4310C9411320C94FA0153
:100010000C94FA010C94FA010C94FA010C94FA0174
:100020000C94FA010C94FA010C94FA010C94FA0164
:100030000C94FA010C94FA010C94FA010C94FA0154
:100040000C943E320C94FA010C94C8340C94FA349B
:100050000C94FA010C94FA010C94FA010C94FA0134
:100060000C9497300C94FA018B299E29D629112CD7
:10007000112C112C112C112C112C112C112C112C98
:10008000112C112C112C112C112CE929112C0C2ABA
:10009000202A352A462A582A112C112C112C6A2A7A
:1000A000802A112C112C112C112C112C9F2A462A3C
:1000B000B42A112C172B3A2B112C462B112C552B13
:1000C000682B7F2B112C112C112C112C112C112C85
:1000D000112C112C992B112C112CAE2BCB2BCF2B9F
:1000E000F82B526573657474696E672E2E2E005658
:1000F000657273696F6E20004F70656E20455653B0
:10010000450053657420446174652F54696D653FE3
:100110000052657374617274204E6F773F004368BC
:10012000617267696E670052656164790000080C4E
:100130000E0C08000000000E0E0E000000000E1550
:1001400017110E0000544553542044495341424C6A
:10015000454400436F6E6E656374656400536C655F
:100160006570696E670057616974696E67005374E2
:100170006F7070656400535455434B2052454C4199
:1001800059004E4F2047524F554E44004F5645524E
:100190002054454D50455241545552450047464321
:1001A000490047464349204641554C540044494F75
:1001B000444520434845434B0056454E5420524544
:1001C00051554952454400534552564943452052E2
:1001D00045515549524544004556534520455252D4
:1001E0004F520054455354204641494C4544005316
:1001F0007663204C6576656C3A204C32005376630A
:10020000204C6576656C3A204C31004175746F2046
:100210004465746563740053656C6620546573743B
:1002200000506F776572204F6E00536574205374D1
:100230006F70204D696E005365742053746F702089
:10024000486F757200536574205374617274204D49
:10025000696E0053657420537461727420486F7521
:10026000720044656C61792054696D657200536554
:1002700074204D696E7574650053657420486F7500
:10028000720053657420596561720053657420448F
:10029000617900536574204D6F6E74680044617419
:1002A000652F54696D6500457869740052657374F3
:1002B000617274004746492053656C66205465732B
:1002C0007400537475636B2052656C6179204368C8
:1002D0006B0047726F756E6420436865636B004204
:1002E00061636B6C6967687420547970650056654A
:1002F0006E7420526571276420436865636B004407
:10030000696F646520436865636B004D61782043C5
:10031000757272656E740053657276696365204C00
:100320006576656C00536574757000332E372E3812
:1003300000312E302E33001F1C1F1E1F1E1F1F1EBC
:100340001F1E1F0000000800020100000304070038
:10035000000000000000000102040810204080019D
:1003600002040810200102040810200404040404FC
:100370000404040202020202020303030303030053
:10038000000000250028002B0000550FBC28B52FC9
:100390002A3511241FBECFEFD8E0DEBFCDBF14BE7B
:1003A00088E10FB6F89480936000109260000FBE51
:1003B00013E0A0E0B1E0E4E2F5E702C005900D92A1
:1003C000AE37B107D9F726E0AEE7B3E001C01D9222
:1003D000AD3AB207E1F713E0C2E9D3E004C02297D7
:1003E000FE010E94EB36CA38D107C9F70E946E356C
:1003F0000C94903A0C94000008951F93CF93DF93D0
:10040000EC01162F688183E495E00E94932F612F01
:1004100083E495E00E94372F83E495E00E94B22F99
:1004200042E0688183E495E00E948D2F83E495E0AB
:100430000E94E72ED82FCC2783E495E00E94E72E78
:100440009E01282BC901DF91CF911F910895CF9371
:10045000DF93EC01688383E495E00E94762F66E0E9
:10046000CE010E94FD018435910559F467E0CE016B
:100470000E94FD0121E08115944009F020E0822FC7
:1004800001C080E0DF91CF91089565E00E94FD01F9
:100490009C01AC015F706AE0649FC001659F900D94
:1004A000112444E0969587954A95E1F7A0E0B0E0E5
:1004B00034FF03C09150A109B1090895DC01ED9109
:1004C000FC910190F081E02D0994FC016083089576
:1004D0000F931F93CF93DF931F92CDB7DEB7062FF5
:1004E000152FFC01608183E495E049830E94932FDE
:1004F000602F83E495E00E94372F612F70E083E442
:1005000095E00E945E024981642F712F83E495E09B
:100510000E945E0283E495E00F90DF91CF911F91DE
:100520000F910C94B22F1F93CF93DF93EC01162FF2
:10053000688183E495E00E94932F612F83E495E026
:100540000E94372F83E495E00E94B22F688183E4F4
:1005500095E00E94932F42E0688183E495E00E9439
:100560008D2F83E495E00E94E72ED82F80E0C82FDE
:1005700083E495E00E94E72EC82BD92B83E495E015
:100580000E94B22FCE01DF91CF911F9108950F935A
:100590001F93CF93DF931F92CDB7DEB78C0183E417
:1005A00095E069830E94762F6981462F50E0406470
:1005B000516162E0C8010E94680240E050EC65E0D1
:1005C000C8010E9468026FE1C8010E94930221E005
:1005D0008837910509F020E0822F0F90DF91CF91AD
:1005E0001F910F91089563E00E94930280FD0FC058
:1005F000DC012DE231E341E050E00E94093720E4C4
:1006000032E44FE050E00E94C736C901089580E00F
:1006100090E00895FC016115710561F0A081B18140
:1006200092816130710579F412968C911297892B21
:1006300012968C93A081B18111968C911197928121
:100640009095892304C011968C911197892B11964E
:100650008C930895FC017183608351E001C0550FB4
:100660004A95EAF75283B9010C940A036E3008F0F8
:100670006E50FC01608308952091000140E4249FA6
:1006800090011124FC0180818770822B80937C0073
:1006900080917A00806480937A0080917A0086FD50
:1006A000FCCF809178002091790090E0922B089502
:1006B000FC011382128280E791E0918380834423BE
:1006C00011F082E001C081E0838722876187148274
:1006D0000895682F83E495E00C94372FCF93DF9330
:1006E000D62FC72FFC0191859062692F70E083E4BB
:1006F00095E00E949D2F82E10E9469038D2F0E9448
:1007000069038C2F0E94690383E495E00E94B22F55
:100710008111FACFDF91CF910895FC018385882361
:1007200009F18285882311F087E0682760FD03C006
:1007300080EC91E002C080E891E09587848761FFBA
:1007400005C0848595858F779587848762FF05C06E
:10075000848595859E7F9587848764857585CF017F
:100760000C946E030895CF93C62FFC01918590627F
:10077000692F70E083E495E00E949D2F83E10E9441
:1007800069038C2F0E94690383E495E00E94B22FD5
:100790008111FACFCF910895EF92FF920F931F939B
:1007A000CF93DF931F92CDB7DEB77C01162FFC01EC
:1007B000858564FD806115FD886016FD846017FDE8
:1007C0008260082F442311F0006A01C00062602F8C
:1007D000C70149830E94B303602F6F7DC7010E9448
:1007E000B303F7018585498110FD806111FD8860A3
:1007F00012FD846013FD8260182F442311F0106AEB
:1008000001C01062612FC7010E94B303612F6F7D89
:10081000C7010F90DF91CF911F910F91FF90EF9043
:100820000C94B30340E00C94CC03FC0123852223F9
:1008300039F061E00E94120480ED97E00C94DF3201
:100840000895CF93DF93CDB7DEB728970FB6F8940E
:10085000DEBF0FBECDBFFC012385222319F128E0A6
:10086000E4E6F1E0DE01119601900D922A95E1F7A0
:10087000FC012781241710F44FEF420FFE0131963F
:10088000E40FF11DE40FF11D2081260F2068622F77
:1008900028960FB6F894DEBF0FBECDBFDF91CF9183
:1008A0000C94120428960FB6F894DEBF0FBECDBF8D
:1008B000DF91CF910895FC012385222339F06581D2
:1008C000262F246025836C600C9412040895CF9227
:1008D000DF92EF92FF920F931F93CF93DF9300D09D
:1008E000CDB7DEB76C01DC011B968C91882319F122
:1008F0006770B8E06B9FB00111246064C601498342
:100900005A830E9412044981042F5A81152FE12C29
:10091000F12CF80161918F01D601ED91FC910190CC
:10092000F081E02DC6010995BFEFEB1AFB0AE8E064
:10093000EE16F10471F70F900F90DF91CF911F9198
:100940000F91FF90EF90DF90CF900895FC012385E9
:10095000222319F041E00E94CC0381E090E0089549
:100960000F931F93CF93DF93EC01142F022F62E3B9
:1009700070E080E090E00E94B73283E495E00E944E
:10098000762F6985606270E083E495E00E949D2F78
:1009900080E00E9469038FE10E94690383E495E08F
:1009A0000E94B22F882319F08B85823061F169850E
:1009B000606270E083E495E00E949D2F8CE00E94CD
:1009C00069038FE10E94690383E495E00E94B22FDE
:1009D000882319F08B858230B1F06985606270E000
:1009E00083E495E00E949D2F81E00E94690380E0EE
:1009F0000E94690383E495E00E94B22F9B858823BF
:100A000041F0923031F41B86DF91CF911F910F910D
:100A10000895923011F481E08B87123018F08C81A8
:100A200088608C831F831886002329F0113019F405
:100A30008C8184608C831D861C8613E068E3CE0164
:100A40000E94B30368E1CE010E94B3031150B1F7D5
:100A500068E2CE010E94B30368E0CE010E94B303B6
:100A600065E070E080E090E00E94B7326C816062E7
:100A7000CE010E94120465E070E080E090E00E94E8
:100A8000B7326C816062CE010E94120465E070E0B2
:100A900080E090E00E94B7328CE08D83CE010E940E
:100AA0005B04CE010E94150482E08E8366E0CE01D5
:100AB000DF91CF911F910F910C941204CF93DF938C
:100AC000EC018B858823F1F06985606270E083E436
:100AD00095E00E949D2F82E10E94690383E495E0E6
:100AE0000E94B22F6985606270E041E050E083E4CB
:100AF00095E00E94902F83E495E00E94E72E809578
:100B00008F7101C080E0DF91CF910895CF93DF9383
:100B1000EC0164EF71E080E090E00E94B7328C81DC
:100B2000882329F0813031F487E994E005C08CE90D
:100B300094E002C082E994E0DF91CF910895DC0156
:100B4000ED91FC911197228112968C91282B228392
:100B50000895DC01ED91FC911197208112968C9102
:100B6000282381E009F480E0089561110C949F0529
:100B7000DC01ED91FC911197228112968C91809568
:100B8000282322830895FC01238521110C94BB3571
:100B900008951F93CF93DF93EC01162F462F60E04B
:100BA0000E9421048B85882339F060915E01709149
:100BB0005F01CE010E94BB35412F60E0CE01DF9185
:100BC000CF911F910C942104CF93DF93EC018C8182
:100BD0008F5F823010F48C8301C01C8261E070E072
:100BE0008CEA93E00E94C90541E060E08CEA93E062
:100BF0000E94210464E771E08CEA93E00E94C3053F
:100C0000EC81F0E0EE0FFF1FE85DFE4F6081718127
:100C10008CEA93E0DF91CF910C94C305CF93DF93DF
:100C2000EC018C818F5F8C839E81981708F41C8265
:100C300061E070E08CEA93E00E94C90541E060E069
:100C40008CEA93E00E9421048C81EF81F885E80F03
:100C5000F11D909114048081981306C064E771E03F
:100C60008CEA93E00E94C3058C81EF81F885E80F40
:100C7000F11D60818091B703882339F070E04AE06C
:100C800050E08CEA93E00E94673666EC71E08CEAF3
:100C900093E0DF91CF910C94C305CF93DF93EC01E8
:100CA0008C818F5F833010F48C8301C01C8261E0E3
:100CB00070E08CEA93E00E94C90541E060E08CEAB4
:100CC00093E00E9421048091000480FF02C022E092
:100CD00001C021E030E08C8190E0019628173907AF
:100CE00031F464E771E08CEA93E00E94C305EC8183
:100CF000F0E0EE0FFF1FE45DFE4F608171818CEA32
:100D000093E0DF91CF910C94C305CF93DF93EC0177
:100D10008C818F5F823010F48C8301C01C8261E073
:100D200070E08CEA93E00E94C90541E060E08CEA43
:100D300093E00E942104909100048C8191FD03C0F6
:100D4000882319F008C0882331F064E771E08CEA49
:100D500093E00E94C305EC81F0E0EE0FFF1FE95F16
:100D6000FE4F608171818CEA93E0DF91CF910C940A
:100D7000C305CF93DF93EC018C818F5F823010F439
:100D80008C8301C01C8261E070E08CEA93E00E94D9
:100D9000C90541E060E08CEA93E00E942104909153
:100DA00000048C8192FD03C0882319F008C08823B9
:100DB00031F064E771E08CEA93E00E94C305EC81B6
:100DC000F0E0EE0FFF1FE95FFE4F608171818CEA5A
:100DD00093E0DF91CF910C94C305CF93DF93EC01A7
:100DE0008C818F5F823010F48C8301C01C8261E0A3
:100DF00070E08CEA93E00E94C90541E060E08CEA73
:100E000093E00E942104909100048C8193FD03C023
:100E1000882319F008C0882331F064E771E08CEA78
:100E200093E00E94C305EC81F0E0EE0FFF1FE95F45
:100E3000FE4F608171818CEA93E0DF91CF910C9439
:100E4000C305CF93DF93EC018C818F5F823010F468
:100E50008C8301C01C8261E070E08CEA93E00E9408
:100E6000C90541E060E08CEA93E00E942104909182
:100E700000048C8194FD03C0882319F008C08823E6
:100E800031F064E771E08CEA93E00E94C305EC81E5
:100E9000F0E0EE0FFF1FE95FFE4F608171818CEA89
:100EA00093E0DF91CF910C94C305CF93DF93EC01D6
:100EB0008C818F5F823010F48C8301C01C8261E0D2
:100EC00070E08CEA93E00E94C90541E060E08CEAA2
:100ED00093E00E94210480910004909101042C81F0
:100EE00091FD03C0222319F008C0222331F064E7EA
:100EF00071E08CEA93E00E94C305EC81F0E0EE0F14
:100F0000FF1FE95FFE4F608171818CEA93E0DF9102
:100F1000CF910C94C305FC01238521110C94150479
:100F20000895DC011496EC91149715968C91E817AE
:100F300040F4F0E0EE0FFF1FEA5BFE4F80819181ED
:100F400008958CEA93E00E948B0780E090E008957A
:100F5000FC01268520FF02C0611167E00C948D031F
:100F6000FC0191818381911108C02281211105C06A
:100F7000811103C02481222341F0981711F081E0F0
:100F80000895928184819813FACF80E008956BE2EE
:100F900073E00C944337CF92EF920F93CF93DF938C
:100FA00000D000D000D0CDB7DEB790E0CE2CE02E40
:100FB000022F242F462FBC01CE0101960E94112D35
:100FC000CE0101960E94BE2D26960FB6F894DEBF84
:100FD0000FBECDBFDF91CF910F91EF90CF900895CD
:100FE000CF93DF93EC010E94272D2093A60330932B
:100FF000A7034093A8035093A9036093AA03709397
:10100000AB03E6EAF3E01F927F9384811F928F93F4
:1010100083811F928F9382811F928F9381811F9270
:101020008F9380811F928F9326E731E03F932F9318
:10103000DF93CF930E9480378DB79EB740960FB64F
:10104000F8949EBF0FBE8DBFDF91CF910895CF92D0
:10105000DF92EF92FF920F931F93CF93DF938A015A
:1010600010927804611571058105910561F480E3A2
:1010700080937704FA013197C7E7D4E0CE018E1B45
:101080009F0B20E31AC0C8E7D4E0EAE0CE2ED12CB3
:10109000E12CF12CA70196010E94C736605D6A938E
:1010A000FE01E857F440E00FF11FB901CA016115D4
:1010B00071058105910571F7E1CFC817D90711F0C6
:1010C0002A93FBCFCE01DF91CF911F910F91FF901B
:1010D000EF90DF90CF90089560910004709101042B
:1010E00082E090E00C949E39609114048091000499
:1010F00080FF02C022E001C021E081E090E02130C9
:1011000011F480E090E00E9488390C946C08CF9331
:10111000DF93EC01188286EE90E09D838C839F83A1
:101120008E839987888768E1CE0101960E94270205
:1011300060E0CE0102960E94C702809114048B8366
:10114000DF91CF910895CF93DF93EC0120E041E050
:1011500060E20E94580381E188A3DF91CF91089556
:101160000F931F93CF93DF93EC0189018B85882325
:1011700059F0CE010E942104B801CE01DF91CF9138
:101180001F910F910C94BB35DF91CF911F910F915F
:101190000895CF93DF93EC018C818F5F823010F440
:1011A0008C8301C01C8261E070E08CEA93E00E94B5
:1011B000C905EC81F0E0EE0FFF1FE95FFE4F2081D3
:1011C000318141E050E060E070E08CEA93E0DF9133
:1011D000CF910C94B008CF93DF93EC018C818F5F9B
:1011E000823010F48C8301C01C8261E070E08CEAD4
:1011F00093E00E94C905EC81F0E0EE0FFF1FE95F6C
:10120000FE4F2081318141E050E060E070E08CEAE7
:1012100093E0DF91CF910C94B008CF93DF93EC0172
:1012200024E731E041E050E060E070E08CEA93E0D8
:101230000E94B008EC81F0E0EE0FFF1FE95FFE4F67
:10124000608171818CEA93E00E94C30564EF71E0D4
:1012500080E090E00E94B7328C81811103C08AEB5C
:1012600094E002C085EF94E0DF91CF910895CF9391
:10127000DF93EC018C818F5F833010F48C8301C08D
:101280001C8261E070E08CEA93E00E94C905EC8169
:10129000F0E0EE0FFF1FEF5FFE4F2081318141E054
:1012A00050E060E070E08CEA93E0DF91CF910C9425
:1012B000B008CF93DF93EC018C818F5F823010F404
:1012C0008C8301C01C8261E070E08CEA93E00E9494
:1012D000C905EC81F0E081E090E020919B0322239E
:1012E00011F080E090E0E817F907C1F424E731E05D
:1012F00041E050E060E070E08CEA93E00E94B008CA
:10130000EC81F0E0EE0FFF1FE95FFE4F608171811D
:101310008CEA93E0DF91CF910C94C305EE0FFF1F91
:10132000E95FFE4F2081318141E050E060E070E0F4
:101330008CEA93E0DF91CF910C94B0080F931F9348
:10134000CF93DF93EC018B858823A9F08E01015F99
:101350001F4F48A150E0C8010E944A3788A1FE01F2
:10136000E80FF11D1686B801CE01DF91CF911F91D4
:101370000F910C94BB35DF91CF911F910F91089580
:10138000EF92FF920F931F93CF93DF93EC01F62E12
:10139000E42E8C01015F1F4F88A1482F50E0B90156
:1013A000C8010E944A3788A1FE01E80FF11D168688
:1013B0004E2D6F2DCE010E942104B801CE01DF9188
:1013C000CF911F910F91FF90EF900C94BB35CF936D
:1013D000DF93EC01A89518861F820E94A905882337
:1013E00019F081E08B8301C01B82DF91CF910895BA
:1013F000CF93DF93EC0120E030E042E069E270E05F
:101400000E942A0343E050E069E17BE080E00E9413
:10141000C43122E030E046E069E270E0CE0104969B
:101420000E942A03CE01DF91CF910C94E709EF923D
:10143000FF920F931F93CF93DF93EC0181E0888796
:101440001F820CE310E07E0184E0E80EF11CC7016E
:101450000E949F058DE890E20E94DF3260E0C701A4
:101460000E94B5058DE890E20E94DF328F818823CB
:1014700069F062E370E080E090E00E94B732A895E6
:10148000CE010E94A9058111F4CF04C001501109B9
:10149000F1F6EFCF68EE73E080E090E00E94B732A3
:1014A0001B82188681E09F81911180E0DF91CF91AE
:1014B0001F910F91FF90EF9008954FB7F894611529
:1014C000710539F420E43FE130938B0020938A00CA
:1014D00004C010928B0010928A00FC01718360831B
:1014E0004FBF0895E0E8F0E0108220E43FE1309340
:1014F00087002093860021E120938100229A208199
:101500002062208360E070E00C945D0AAB019B01D7
:10151000265031092E32310538F465E8649F900178
:10152000659F300D112414C09B01245331092D31C6
:101530003105D0F4662757FD6095762F40565F4FF2
:101540006F4F7F4F9A0145E0220F331F4A95E1F715
:1015500030938B0020938A0021E030E0FC0131833E
:10156000208380E090E0089581E090E00895CF939B
:10157000DF93EC0161E044960E94360360E0CE0107
:101580004596DF91CF910C943603CF93DF93EC0116
:1015900046960E949F05CE0149960E949F05CE0166
:1015A0004C960E949F058DA980648DAB0E946A2E87
:1015B000FE01E05BFF4F60837183828393830E940F
:1015C0008832C85BDF4F688379838A839B83DF918E
:1015D000CF910895CF93DF93EC0160E046960E948F
:1015E000B50560E0CE0149960E94B50560E0CE01E8
:1015F0004C960E94B5058DA98F7B8DAB0E946A2EFB
:10160000FE01EC5AFF4F60837183828393830E94B3
:101610008832FE01E45BFF4F608371838283938392
:10162000CC59DF4F188219821A821B82DF91CF9129
:1016300008958091D703882321F081E08093D60319
:101640000895809102048068809302048DEC93E0F9
:101650000E94EA0A62E070E08DEC93E00E945D0A6D
:1016600081E08093D2030895FC0183A994A96623A5
:1016700011F08D7F01C0826094AB83AB0C946C0839
:10168000CF93DF93EC0124E731E041E050E060E0EC
:1016900070E08CEA93E00E94B008EC81F0E0EE0F7D
:1016A000FF1FE95FFE4F608171818CEA93E00E9429
:1016B000C30561E08C81811160E08DEC93E00E94B4
:1016C000340B64EF71E080E090E00E94B73285EF68
:1016D00094E0DF91CF910895FC0183A994A966233A
:1016E00011F09D7F01C0926094AB83AB0C946C08A9
:1016F000CF93DF93EC0124E731E041E050E060E07C
:1017000070E08CEA93E00E94B008EC81F0E0EE0F0C
:10171000FF1FE95FFE4F608171818CEA93E00E94B8
:10172000C30561E08C81811160E08DEC93E00E9443
:101730006C0B64EF71E080E090E00E94B73285EFBF
:1017400094E0DF91CF910895FC0183A994A96623C9
:1017500011F08B7F01C0846094AB83AB0C946C0858
:10176000CF93DF93EC0124E731E041E050E060E00B
:1017700070E08CEA93E00E94B008EC81F0E0EE0F9C
:10178000FF1FE95FFE4F608171818CEA93E00E9448
:10179000C30561E08C81811160E08DEC93E00E94D3
:1017A000A40B64EF71E080E090E00E94B73285EF17
:1017B00094E0DF91CF910895FC0183A994A9662359
:1017C00011F0877F09C011A612A613A614A615A2B0
:1017D00016A217A210A6886094AB83AB0C946C0879
:1017E000CF93DF93EC0124E731E041E050E060E08B
:1017F00070E08CEA93E00E94B008EC81F0E0EE0F1C
:10180000FF1FE95FFE4F608171818CEA93E00E94C7
:10181000C30561E08C81811160E08DEC93E00E9452
:10182000DC0B64EF71E080E090E00E94B73285EF5E
:1018300094E0DF91CF910895FC0183A994A96623D8
:1018400011F08F7E01C0806194AB83AB0C946C0867
:10185000CF93DF93EC0124E731E041E050E060E01A
:1018600070E08CEA93E00E94B008EC81F0E0EE0FAB
:10187000FF1FE95FFE4F608171818CEA93E00E9457
:10188000C30561E08C81811160E08DEC93E00E94E2
:101890001C0C64EF71E080E090E00E94B73285EFAD
:1018A00094E0DF91CF910895FC0183A994A9662368
:1018B00011F08F7D01C0806294AB83AB0C946C08F7
:1018C000FC01EF5BFF4F2FEF20833197108260E028
:1018D00070E00C945D0A2AE0EAE3F1E0DC01D696C0
:1018E00001900D922A95E1F70895AF92BF92CF92A1
:1018F000DF92EF92FF920F931F93CF93DF938C01B0
:101900000E9488326B017C01AA24A394C2E0BC2E01
:10191000E8016F960E5D1F4FBB2031F0CE010E9493
:10192000A905811101C0B12CAA20B1F0C8010E9403
:10193000A905882381F0B11002C0AA24A3940E94B3
:1019400088326C197D098E099F0964317105810502
:10195000910520F4E1CFA12CB110F1CF8B2D8A2974
:10196000DF91CF911F910F91FF90EF90DF90CF907B
:10197000BF90AF9008958F929F92AF92BF92CF92F7
:10198000DF92EF92FF920F931F93CF93DF935B0150
:101990006A01D4E6ED2EF12CC0E0D0E00FEF13E0A9
:1019A00044964C01C4010E943C03382F292FC817CC
:1019B000D90734F0801791070CF48C013C2F2D2FA0
:1019C00081E0E81AF10819F0C32FD22FEBCFF5010F
:1019D00011830083F60130832183DF91CF911F9122
:1019E0000F91FF90EF90DF90CF90BF90AF909F90BE
:1019F0008F9008952F923F924F925F926F927F92B5
:101A00008F929F92AF92BF92CF92DF92EF92FF920E
:101A10000F931F93CF93DF93CDB7DEB760970FB6C9
:101A2000F894DEBF0FBECDBF8C01A8950E9488320E
:101A30006D837E838F839887212C312C88248A9410
:101A4000982C540119821A821B821C82188A1F86C4
:101A5000C12CD12C7601C80145969A8789870E94AE
:101A60008832AB01BC01DB01CA014D805E806F8012
:101A7000788484199509A609B7098397A105B1054A
:101A800008F08BC089859A854B875C876D877E8738
:101A90000E943C032C01612C712C4B855C856D856B
:101AA0007E859FEF89169906A906B90659F191E03E
:101AB000E1E04E16E2E05E06610471040CF490E091
:101AC00081E0F1E08F16F2E09F06A104B1040CF46E
:101AD00080E09817B9F0DB01CA0189809A80AB8059
:101AE000BC8088199909AA09BB090697A105B10507
:101AF00048F08F8598890196988B8F8749835A8300
:101B00006B837C83EF85F889E130F10508F442C0EE
:101B1000E330F10580F03397E9F5910140E050E0C2
:101B2000C701B6010E94C73649015A01C12CD12C08
:101B30007601C39411C0C301B201725081099109A9
:101B40009B01AC010E948336C60ED71EE81EF91E0B
:101B5000FFEF2F1A3F0A1EC0A7019601C701B60169
:101B60000E94833686169706A806B90630F02FEF36
:101B7000C21AD20AE20AF20AEFCFF801E05AFF4F86
:101B800081E0C81AD108E108F108C082D182E2825E
:101B9000F3820BC05301420162CFF801E05AFF4FBC
:101BA0001082118212821382A89560960FB6F89463
:101BB000DEBF0FBECDBFDF91CF911F910F91FF9080
:101BC000EF90DF90CF90BF90AF909F908F907F90DD
:101BD0006F905F904F903F902F900895CF92DF923B
:101BE000EF92FF9220918203211108C010927E0390
:101BF00010927F031092800310928103C0907E03A5
:101C0000D0907F03E0908003F0908103C60ED71E32
:101C1000E81EF91EC0927E03D0927F03E0928003FB
:101C2000F09281032F5F20938203203261F410929F
:101C30008203C701B60125E096958795779567954C
:101C40002A95D1F703C06FEF7FEFCB01FF90EF90A4
:101C5000DF90CF90089521E030E043E066E270E04D
:101C60000C942A030F931F93CF93DF93EC018CEA1C
:101C700093E00E945E05982F917080FD0CC08B81CF
:101C8000823049F44C815D816E817F81452B462BEA
:101C9000472B09F41B828B81882351F08130E9F5B1
:101CA0004C815D816E817F81452B462B472BA9F1AD
:101CB000992371F14C815D816E817F81452B462B8B
:101CC000472B41F4811106C00E9488326C837D83CA
:101CD0008E839F830E9488320C811D812E813F81DB
:101CE000601B710B820B930B2B81211107C0623398
:101CF000710581059105C8F181E008C02130A9F581
:101D0000643F71408105910580F182E08B832DC095
:101D10001C821D821E821F8228C0992331F14885B2
:101D200059856A857B85452B462B472BF1F0823000
:101D3000E1F40E948832088519852A853B85601B5D
:101D4000710B820B930B603177428105910568F02E
:101D5000188619861A861B8660E08CEF94E0DF9166
:101D6000CF911F910F910C945628DF91CF911F9125
:101D70000F910895FC018381813051F44481558194
:101D800066817781452B462B472B11F413820895EA
:101D900080E00895FC018381823099F4448155816B
:101DA00066817781411551056105710551F04087C4
:101DB000518762877387148215821682178281E0A9
:101DC000089580E00895DC018EE392E011969C93E3
:101DD0008E9385E293E013969C938E9312971596BB
:101DE0001C92159715962C911597E22FF0E0EE0FA7
:101DF000FF1FEA5BFE4F80819181892B29F02F5FC5
:101E000015962C931597EECF0895CF93DF93EC01A1
:101E100084E090E00E9474398F3F39F4188260E0CA
:101E200084E090E00E94883901C0888385E090E0DA
:101E30000E9474398F3F39F4198260E085E090E0A8
:101E40000E94883901C0898386E090E00E9474393D
:101E50008F3F41F485E08A8365E086E090E00E9450
:101E6000883901C08A8387E090E00E9474398F3FEF
:101E700041F486E08B8366E087E090E00E94883939
:101E800001C08B8388E090E00E9474398F3F49F451
:101E900087E38C8367E388E090E0DF91CF910C9437
:101EA00088398C83DF91CF91089585EF94E00E946B
:101EB000E30E82E592E09093F1048093F00487E1D1
:101EC00093E09093F3048093F2048CE592E0909376
:101ED000E8048093E7048BE093E09093EA04809316
:101EE000E90486E692E09093E3048093E2048FEFA6
:101EF00092E09093E5048093E40488E492E0909368
:101F0000DE048093DD048FED92E09093E0048093F3
:101F1000DF0480E792E09093D9048093D80484EBA7
:101F200092E09093DB048093DA048AE792E0909346
:101F3000D4048093D3048EEE92E09093D6048093E1
:101F4000D50484E892E09093CF048093CE0482ED90
:101F500092E09093D1048093D0048EE892E0909325
:101F6000CA048093C90482EC92E09093CC048093DD
:101F7000CB0488E992E09093C5048093C4048CEA72
:101F800092E09093C7048093C60482EA92E0909313
:101F9000C0048093BF048DE992E09093C2048093C3
:101FA000C1042CEA32E03093BB042093BA0426EB40
:101FB00032E03093B6042093B5049093B804809334
:101FC000B70480EC92E09093B1048093B0048AEC63
:101FD00092E09093AC048093AB0484ED92E09093F4
:101FE000A7048093A6048EED92E09093A2048093C0
:101FF000A10482E692E09093A4048093A30428EEC7
:1020000032E030939D0420939C0490939F0480932E
:102010009E0482EF92E090939804809397048CEF53
:1020200092E0909393048093920486E093E09093DF
:102030008E0480938D0480E193E0909389048093D3
:10204000880410927C0410927D0410927E041092F9
:102050007F041092800410928104109282041092E6
:1020600083041092840410928604109285048DECEF
:1020700093E00E94B70A8CEA93E00E94A30840E034
:1020800050E0BA0186EA93E00E94B32C80EA95E121
:10209000AFEFBFEF8093A2039093A303A093A40399
:1020A000B093A5038CE893E00E94FC0160E48DE806
:1020B00093E00C9465020F931F93CF93DF93EC0191
:1020C00002960E94F30299878887CE0101960E94AA
:1020D00045028F3F28E0920719F09D838C8302C050
:1020E0001D821C8268E670E083E495E00E949D2FCB
:1020F0006EE083E495E00E94372F60E283E495E090
:102100000E94372F83E495E00E94B22F68E670E0CA
:1021100083E495E00E949D2F61E183E495E00E94B5
:10212000372F83E495E00E94B22F42E050E068E64A
:1021300070E083E495E00E94902F83E495E00E9494
:10214000E72E9AE0899F800111241F830E8383E488
:1021500095E00E94E72E992746E0959587954A9548
:10216000E1F745E0489F9001499F300D11243595D6
:102170002795200F311F2D3F89E0380719F03F8345
:102180002E8302C01F821E82DF91CF911F910F917B
:102190000895CF92DF92EF92FF920F931F93CF9308
:1021A000DF937C018A01FC018385882331F1462F6E
:1021B00060E0C7010E942104F80101900020E9F7C6
:1021C0003197DE2ED01AF0E1FD1510F460E1D62E25
:1021D000C02EC02FD12F8C2F8C198D1528F469910A
:1021E000C7010E94A604F7CFF0E1DF1631F060E2EC
:1021F000C7010E94A604D394F7CFDF91CF911F911E
:102200000F91FF90EF90DF90CF900895EF92FF92A3
:102210000F931F93CF93DF93EC017B01BA018C01E5
:10222000015F1F4F48A150E0C8010E944A3788A1B2
:10223000FE01E80FF11D1686A801B701CE01DF915E
:10224000CF911F910F91FF90EF900C94C910CF93F5
:10225000DF93EC01A8951E8622E042E060E10E9437
:10226000B00467E0CE010E948D0367E0CE010E94BA
:10227000A80748E050E06DE371E089E394E00E9434
:102280002F3749E354E060E0CE010E94670448E044
:1022900050E065E371E089E394E00E942F3749E361
:1022A00054E061E0CE010E94670448E050E06DE236
:1022B00071E089E394E00E942F3749E354E062E043
:1022C000CE010E946704CE010E94150448EF50E041
:1022D00060E070E0CE010E9406112FEE30E041E098
:1022E00050E060E070E0CE010E94C0096BE273E054
:1022F000CE010E949E096CED75E080E090E00E94A6
:10230000B732A895DF91CF9108950F931F93CF9384
:10231000DF93EC018A01AB0160E070E00E940611DE
:10232000A80161E070E0CE01DF91CF911F910F9184
:102330000C940611CF93DF93EC018BA99CA98E71AD
:102340009270892B09F462C063E08CEA93E00E94EA
:10235000A8078BA981FF0EC04FEF52E065E471E042
:102360008CEA93E00E9485116CED75E080E090E0CE
:102370000E94B7328BA982FF0EC04EEE52E065E498
:1023800071E08CEA93E00E9485116CED75E080E0CD
:1023900090E00E94B7328BA983FF0EC042ED52E05D
:1023A00065E471E08CEA93E00E9485116CED75E0C4
:1023B00080E090E00E94B7328BA984FF0EC042EC0F
:1023C00052E065E471E08CEA93E00E9485116CEDC7
:1023D00075E080E090E00E94B7328BA99CA991FF44
:1023E0000EC044EB52E065E471E08CEA93E00E9499
:1023F00085116CED75E080E090E00E94B73267E0F7
:102400008CEA93E0DF91CF910C94A807DF91CF91F4
:102410000895AF92BF92DF92EF92FF920F931F93B6
:10242000CF93DF9300D0CDB7DEB75C01A89560E015
:1024300070E00E945D0A47E152E061E272E08CEADE
:1024400093E00E948511F50183A985FDD5C066E959
:1024500070E080E090E00E94B732C50144960E948F
:102460003C038C0162E070E0C5010E945D0A053802
:1024700013400CF4BBC0C5010E94750CD82E750129
:1024800086E1E80EF11CC7010E949F058501045EEC
:102490001F4FC8010E949F056AEF70E080E090E046
:1024A0000E94B732C5010E94750C382F60E0C70149
:1024B0003A830E94B50560E0C8010E94B5056AEF45
:1024C00070E080E090E00E94B73203501109C8012B
:1024D0000E949F056AEF70E080E090E00E94B732B2
:1024E000C5010E94750C282F60E0C80129830E9455
:1024F000B5056AEF70E080E090E00E94B732298174
:102500003A81E3E0DE1234C0333028F4F50183A9C8
:10251000313020F01FC0333061F09CC0233011F007
:1025200010E001C012E084FD2BC0233009F094C0FC
:1025300027C0F50183A983FD02C0233021F02223A7
:1025400021F010E003C013E001C012E0215022305E
:10255000B8F418C084FD04C02330A1F014E003C017
:10256000233081F010E0313041F4223049F470C062
:10257000F50183A984FF70C06DC0213009F468C0E3
:10258000113051F44DEF51E06BE072E08CEA93E0D2
:102590000E94851111E00AC0123041F44FEE51E063
:1025A0006BE072E08CEA93E00E9485118DEF810F61
:1025B000823070F561E08CEA93E00E94A807133046
:1025C00049F442E851E063EE71E08CEA93E00E9446
:1025D000851134C01430F1F446E751E063EE71E048
:1025E0008CEA93E00E94851114E028C0F50185A9CA
:1025F000816085AB11E001C010E0F50183A984FD85
:1026000009C0C5010E94750C8370833029F702C090
:102610001330A1F0F50123A934A931FD0FC0C50184
:1026200002960E94170A882349F04DE951E063EEB3
:1026300071E08CEA93E00E94851115E08DEF810F27
:10264000833060F461E08CEA93E00E94A80706C042
:1026500012E0A4CF10E0AACF14E0A8CF60E070E0B1
:10266000C5010E945D0AA895812F0F900F90DF9100
:10267000CF911F910F91FF90EF90DF90BF90AF909F
:102680000895CF93DF93EC0160E070E00E945D0A53
:1026900042EE50E061E070E08CEA93E00E940611A7
:1026A0008DA986FF06C068EB7BE080E090E00E9489
:1026B000B7322EE088E190E00FB6F894A8958093A9
:1026C00060000FBE209360006CED75E080E090E04C
:1026D000DF91CF910C94B732CF93DF93EC0124E7D5
:1026E00031E041E050E060E070E08CEA93E00E946D
:1026F000B008EC81F0E0EE0FFF1FE95FFE4F608154
:1027000071818CEA93E00E94C30564EF71E080E080
:1027100090E00E94B7328C81811104C08DEC93E06F
:102720000E94411380E090E0DF91CF910895FC0179
:1027300014824281538160E070E08CEA93E00E9451
:102740000611E0914601F09147014281538161E019
:1027500070E08CEA93E00C940611FC0184818F5F99
:10276000848395819817D8F02681222311F0891748
:10277000B1F0E481E91758F4F0E0EE0FFF1FEA5BD7
:10278000FE4F0190F081E02D4281538102C047EA63
:1027900052E061E070E08CEA93E00C940611148240
:1027A000E8CFCF93DF93EC014A815B8160E070E07A
:1027B0008CEA93E00E9406118091000485FD02C01E
:1027C0001C8206C080FF02C082E001C081E08C83D1
:1027D00061E070E08CEA93E00E94C90524E731E0F3
:1027E00041E050E060E070E08CEA93E00E94B008C5
:1027F000EC81F0E0EE0FFF1FE45DFE4F6081718120
:102800008CEA93E0DF91CF910C94C305CF93DF93D3
:10281000EC0181E090919B03911180E08C8342E672
:1028200052E060E070E08CEA93E00E94061161E003
:1028300070E08CEA93E00E94C90524E731E041E0B2
:1028400050E060E070E08CEA93E00E94B008EC8118
:10285000F0E0EE0FFF1FE95FFE4F608171818CEAAF
:1028600093E0DF91CF910C94C305CF93DF93EC01FC
:102870004A815B8160E070E08CEA93E00E9406117F
:10288000E1E080918704813009F4E0E0EC83F0E03E
:10289000EE0FFF1FE85DFE4F81818F9380818F9344
:1028A00088E891E09F938F9389E394E09F938F93BF
:1028B0000E9480370F900F900F900F900F900F9005
:1028C00049E354E061E070E08CEA93E0DF91CF915E
:1028D0000C94C9100F931F93CF93DF93EC011C82CC
:1028E0008091000480FD04C041E081E291E003C0DA
:1028F00042E08BE091E098878F831D821E823E81AB
:10290000FC01E30FF11D2081222319F03F5F3E837C
:10291000F6CF31503E83FC01E30FF11D20812D8362
:102920005091140420E0FC01E20FF11D6081651359
:1029300002C02C8303C02F5F3217A8F7413019F46F
:102940008CE891E002C08FE891E09F938F9382E939
:1029500091E09F938F9309E314E01F930F930E94DC
:102960008037A80160E070E08CEA93E00E94C91013
:102970008C81EF81F885E80FF11D80811F928F9384
:1029800081EA91E09F938F931F930F930E9480376A
:102990008DB79EB70C960FB6F8949EBF0FBE8DBF35
:1029A000A80161E070E08CEA93E0DF91CF911F9184
:1029B0000F910C94C910CF93DF93EC014A815B8196
:1029C00060E070E08CEA93E00E940611E091000460
:1029D000F0910104F695E795E170EC83F0E0EE0FDD
:1029E000FF1FE95FFE4F81818F9380818F9388E87D
:1029F00091E09F938F9389E394E09F938F930E943C
:102A000080370F900F900F900F900F900F9049E329
:102A100054E061E070E08CEA93E0DF91CF910C9498
:102A2000C910CF93DF93EC014A815B8160E070E0D5
:102A30008CEA93E00E940611E0910104E695E170B2
:102A4000EC83F0E0EE0FFF1FE95FFE4F81818F9373
:102A500080818F9388E891E09F938F9389E394E03E
:102A60009F938F930E9480370F900F900F900F903D
:102A70000F900F9049E354E061E070E08CEA93E03E
:102A8000DF91CF910C94C910CF93DF93EC014A8171
:102A90005B8160E070E08CEA93E00E940611E091B7
:102AA0000004F0910104F695E795F695E795E1703D
:102AB000EC83F0E0EE0FFF1FE95FFE4F81818F9303
:102AC00080818F9388E891E09F938F9389E394E0CE
:102AD0009F938F930E9480370F900F900F900F90CD
:102AE0000F900F9049E354E061E070E08CEA93E0CE
:102AF000DF91CF910C94C910CF93DF93EC014A8101
:102B00005B8160E070E08CEA93E00E940611E09146
:102B10000004F091010453E0F695E7955A95E1F72A
:102B2000E170EC83F0E0EE0FFF1FE95FFE4F818163
:102B30008F9380818F9388E891E09F938F9389E3AF
:102B400094E09F938F930E9480370F900F900F9087
:102B50000F900F900F9049E354E061E070E08CEA31
:102B600093E0DF91CF910C94C910CF93DF93EC01E8
:102B70004A815B8160E070E08CEA93E00E9406117C
:102B8000E0910004F091010474E0F695E7957A95E0
:102B9000E1F7E170EC83F0E0EE0FFF1FE95FFE4F1D
:102BA00081818F9380818F9388E891E09F938F93A9
:102BB00089E394E09F938F930E9480370F900F904A
:102BC0000F900F900F900F9049E354E061E070E098
:102BD0008CEA93E0DF91CF910C94C910FC01148230
:102BE00041E151E060E070E08CEA93E00E94061160
:102BF000409107015091080161E070E08CEA93E098
:102C00000C94C910CF92DF92EF92FF920F931F9313
:102C1000CF93DF93EC01C62ED42EF22E1E2D1092F0
:102C20003904E11006C064E771E089E394E00E9492
:102C300066376C2D70E080E090E042E050E00E944A
:102C40002708BC0189E394E00E94663766EA71E0D8
:102C500089E394E00E946637113031F464E771E053
:102C600089E394E00E9466376D2D70E080E090E08B
:102C700042E050E00E942708BC0189E394E00E94F2
:102C8000663766EA71E089E394E00E9466371230A5
:102C900031F464E771E089E394E00E946637BE0195
:102CA00080E090E042E050E00E942708BC0189E308
:102CB00094E00E94663768E372E089E394E00E9442
:102CC0006637133031F464E771E089E394E00E94E1
:102CD00066376F2D70E080E090E042E050E00E94A7
:102CE0002708BC0189E394E00E94663768EA71E036
:102CF00089E394E00E946637143031F464E771E0B0
:102D000089E394E00E946637602F70E080E090E0F5
:102D100042E050E00E942708BC0189E394E00E9451
:102D2000663749E354E061E070E08CEA93E0DF91BC
:102D3000CF911F910F91FF90EF90DF90CF900C9467
:102D4000C910EF920F93CF93DF93EC0143E952E068
:102D500060E070E08CEA93E00E9406110E94272D4B
:102D60002093A6033093A7034093A8035093A9038D
:102D70006093AA037093AB03309398034093970337
:102D8000822F90E090939A0380939903252F50937C
:102D90009603062F609395033C83E12C632F0E94DA
:102DA0000216DF91CF910F91EF900895EF920F935C
:102DB000CF93DF93EC018C818F5F8D3008F081E041
:102DC0008C8361E070E08CEA93E00E94C905E12CFD
:102DD0000091950320919603409197036C81809117
:102DE000990390919A030E940216DF91CF910F915F
:102DF000EF900895EF920F93FC0164816093980324
:102E0000E12C0091950320919603409197038091C6
:102E1000990390919A030E94021664EF71E080E09A
:102E200090E00E94B73285EB94E00F91EF90089507
:102E3000EF920F93CF93DF93EC014BE852E060E009
:102E400070E08CEA93E00E940611409197034C8356
:102E5000EE24E394009195032091960360919803EA
:102E60008091990390919A030E940216DF91CF916D
:102E70000F91EF900895EF920F93CF93DF93EC01B2
:102E80008C818F5F803208F081E08C8361E070E09C
:102E90008CEA93E00E94C905EE24E3940091950327
:102EA000209196034C8160919803809199039091B1
:102EB0009A030E940216DF91CF910F91EF9008952F
:102EC000EF920F93FC01448140939703EE24E39427
:102ED0000091950320919603609198038091990346
:102EE00090919A030E94021664EF71E080E090E0F6
:102EF0000E94B73280EB94E00F91EF900895EF922B
:102F00000F93CF93DF93EC0142E852E060E070E072
:102F10008CEA93E00E9406118091990391EF980F3B
:102F20009B3010F48C8308C08FE08C838FE090E09E
:102F300090939A03809399038C81B2E0EB2E0091D9
:102F4000950320919603409197036091980390E038
:102F50000E940216DF91CF910F91EF900895EF92AA
:102F60000F93FC0184818F5F8A3108F08FE08483A6
:102F7000848102E0E02E0091950320919603409118
:102F800097036091980390E00E9402160F91EF90D2
:102F90000895EF920F93FC01848190E090939A033F
:102FA0008093990322E0E22E0091950320919603ED
:102FB00040919703609198030E94021664EF71E0BC
:102FC00080E090E00E94B7328BEA94E00F91EF909E
:102FD0000895EF920F93CF93DF93EC0149E752E00E
:102FE00060E070E08CEA93E00E9406112091960365
:102FF0002C8333E0E32E0091950340919703609179
:1030000098038091990390919A030E940216DF9190
:10301000CF910F91EF900895EF920F93CF93DF939D
:10302000EC018C818F5F883110F48C8301C01C828D
:1030300061E070E08CEA93E00E94C90543E0E42E71
:10304000009195032C8140919703609198038091A2
:10305000990390919A030E940216DF91CF910F91EC
:10306000EF900895EF920F93FC0124812093960333
:1030700053E0E52E009195034091970360919803EA
:103080008091990390919A030E94021664EF71E077
:1030900080E090E00E94B73286EA94E00F91EF90D2
:1030A0000895EF920F93CF93DF93EC014EE652E039
:1030B00060E070E08CEA93E00E94061100919503B5
:1030C0000C8364E0E62E2091960340919703609173
:1030D00098038091990390919A030E940216DF91C0
:1030E000CF910F91EF900895EF920F93CF93DF93CD
:1030F000EC018C818F5F8C3310F48C8301C01C82B7
:1031000061E070E08CEA93E00E94C90574E0E72E6C
:103110000C812091960340919703609198038091D0
:10312000990390919A030E940216DF91CF910F911B
:10313000EF900895CF92EF920F93CF93DF9300D04B
:1031400000D000D0CDB7DEB7FC0104810093950319
:10315000E4E0EE2E2091960340919703609198034E
:103160008091990390919A030E94021660919903AD
:1031700070919A03C12CE0909503009196032091E1
:10318000970340919803CE0101960E94112DCE0124
:1031900001960E94BE2D64EF71E080E090E00E94F5
:1031A000B73285EF94E026960FB6F894DEBF0FBED7
:1031B000CDBFDF91CF910F91EF90CF900895FC019B
:1031C000148242E051E060E070E08CEA93E00E94FB
:1031D0000611409107015091080161E070E08CEA0E
:1031E00093E00C94C9101F93CF93DF93182FD62F21
:1031F000C42F10923904411106C064E771E089E3DD
:1032000094E00E946637612F70E080E090E042E039
:1032100050E00E942708BC0189E394E00E946637D1
:1032200068EA71E089E394E00E946637C13031F4C6
:1032300064E771E089E394E00E9466376D2F70E0E7
:1032400080E090E042E050E00E942708BC0189E362
:1032500094E00E94663749E354E061E070E08CEA54
:1032600093E0DF91CF911F910C94C910CF93DF931E
:10327000EC0143E552E060E070E08CEA93E00E94EC
:103280000611EBE9F3E081818093960362816093FC
:1032900095038C8340E0DF91CF910C94F318FC01EF
:1032A00084818F5F883110F4848301C0148240E0F0
:1032B0006091950384810C94F318FC0184818093C0
:1032C000960340E0609195030E94F31864EF71E06B
:1032D00080E090E00E94B7328DE894E00895CF93AB
:1032E000DF93EC0147E352E060E070E08CEA93E0AA
:1032F0000E940611EBE9F3E08381809396036481D9
:10330000609395038C8340E0DF91CF910C94F31888
:10331000FC0184818F5F883110F4848301C01482A2
:1033200040E06091950384810C94F318FC01848142
:103330008093960340E0609195030E94F31864EF38
:1033400071E080E090E00E94B73288E894E0089550
:10335000CF93DF93EC0145E452E060E070E08CEA4B
:1033600093E00E940611609195036C8341E0809187
:103370009603DF91CF910C94F318FC0184818F5F49
:103380008C3310F4848301C0148241E06481809105
:1033900096030C94F318CF93DF93FC016481609340
:1033A000950341E0809196030E94F3188091950364
:1033B0006091960360939C03CDE9D3E0888385E018
:1033C00090E00E948839688186E090E00E94883908
:1033D0000E94740864EF71E080E090E00E94B732D0
:1033E00085EF94E0DF91CF910895CF93DF93EC01C7
:1033F0004AE252E060E070E08CEA93E00E9406113D
:10340000609195036C8341E080919603DF91CF91A9
:103410000C94F318FC0184818F5F8C3310F4848347
:1034200001C0148241E06481809196030C94F318EA
:10343000CF93DF93FC0164816093950341E0809119
:1034400096030E94F3188091950360919603609310
:103450009E03CFE9D3E0888387E090E00E9488391B
:10346000688188E090E00E9488390E94740864EFC7
:1034700071E080E090E00E94B73285EF94E0DF9148
:10348000CF910895FC01148242E652E060E070E0C2
:103490008CEA93E00E9406114091010150910201D3
:1034A00061E070E08CEA93E00C94C910FC01238584
:1034B00021110C94A6040895FC012081222349F0D7
:1034C0000E94B007882329F060E08CEA93E00C9416
:1034D000561A0895BF92CF92DF92EF92FF920F9308
:1034E0001F93CF93DF9300D000D000D0CDB7DEB7CD
:1034F0008C01B62EFC01868586FD92C3D0900D040A
:103500008091000480FF03C082E0C82E02C0CC245A
:10351000C39480910E04D8123DC1B1103BC123E089
:10352000D21621F08091020484FF40C0F801868504
:1035300087FF3CC08F77F8018687609131047091D6
:1035400032048091330490913404683EF3E07F07A5
:103550008105910508F46EC228EE33E040E050E0AA
:103560000E94C736F22EE32E24E630E040E050E021
:103570000E94C7363F932F93EF92FF9289EB91E021
:103580009F938F9389E394E09F938F930E9480375A
:103590000FB6F894DEBF0FBECDBF29E334E040E0A4
:1035A00050E06AE070E0C8010E94B0080E94272D38
:1035B00029833A834B835C836D837E8333E0D3120C
:1035C0002DC04091250450912604609127047091EC
:1035D00028048091290490912A04A0912B04B09191
:1035E0002C04481759076A077B0709F4C9C02091C2
:1035F000310430913204409133045091340480916D
:103600000004C0908303D0908403E0908503F09081
:10361000860380FF16C2A0EFB0E015C2FEEFDF12F6
:10362000AFC046E050E066EA73E0CE0101960E942A
:103630005937892B09F4A4C040E060E0C8010E941A
:1036400021048BE993E00E945C1A80919B038823FC
:1036500019F066E671E002C06DE571E0C8010E94F4
:103660009E098E811F928F938D811F928F938C81E3
:103670001F928F9381ED91E09F938F93A9E3EA2EA0
:10368000A4E0FA2EFF92EF920E948037970141E06A
:1036900050E060E070E0C8010E94B0080FB6F894F6
:1036A000DEBF0FBECDBF80919B03882309F44CC0C1
:1036B00040E069E0C8010E94210462E0C8010E9464
:1036C000561A60E0C8010E94561A80919D031F920D
:1036D0008F9380919C031F928F93809145018F93CC
:1036E000809144018F93FF92EF920E94803797015F
:1036F00040E050E06BE070E0C8010E94B00841E09B
:1037000069E0C8010E94210461E0C8010E94561AC4
:1037100060E0C8010E94561A80919F031F928F9308
:1037200080919E031F928F93809145018F9380918A
:1037300044018F93FF92EF920E948037970141E0FE
:1037400050E06BE070E014C0809114041F928F93DE
:103750001F92CF9282E391E09F938F93FF92EF921B
:103760000E94803729E334E040E050E06AE070E0F6
:10377000C8010E94B0080FB6F894DEBF0FBECDBFDF
:1037800086E0FE013196A6EAB3E001900D928A959B
:10379000E1F746C2809114041F928F931F92CF923B
:1037A00082E391E09F938F93F9E3EF2EF4E0FF2EF5
:1037B000FF92EF920E9480370FB6F894DEBF0FBEE3
:1037C000CDBF36E0D31220C061E0C8010E94A80737
:1037D00092E0B91203C067EC71E002C068ED71E0DD
:1037E00042EA51E00DC08D1558F5F4E0DF12ABC090
:1037F00061E0C8010E94A80749EB51E068ED71E063
:10380000C8010E9485118ECE3D1508F4A6C083E044
:10381000D812E9CF66E0C8010E94A807C8010E943B
:103820008B0740E060E0C8010E9421048BE993E02F
:103830000E945C1A6EE171E0C8010E949E0976CE7A
:1038400091E0D91213C062E0C8010E94A807C80124
:103850000E948B0740E060E0C8010E9421048BE9D0
:1038600093E00E945C1A67E271E015C0E2E0DE12AC
:1038700056CE63E0C8010E94A807C8010E948B07CA
:1038800040E060E0C8010E9421048BE993E00E94BF
:103890005C1A63E571E0C8010E949E0929E334E0E7
:1038A00040E050E06AE070E0C8010E94B00860911A
:1038B000830370918403809185039091860320E1B6
:1038C0003EE040E050E00E94C7365F934F933F9345
:1038D0002F938AEA91E09F938F93FF92EF920E9439
:1038E000803729E334E041E050E060E070E0C80157
:1038F0000E94B008609187037091880380918903CA
:1039000090918A0328EE33E040E050E00E94C736F1
:103910005F934F933F932F9381EB91E09F938F930E
:10392000FF92EF920E94803729E334E041E050E0BB
:1039300067E070E0C8010E94B0080FB6F894DEBFDF
:103940000FBECDBFEFCD25E0D212E9CD61E0C801B9
:103950000E94A8074DEA51E051CF39E0D31209C0C7
:1039600061E0C8010E94A8074DE951E063EE71E0F3
:1039700047CF3D1520F187E0D8120FC061E0C801A4
:103980000E94A807E2E0BE1203C067EC71E002C02B
:1039900068ED71E042E851E033CF98E0D912BFCD35
:1039A00061E0C8010E94A807F2E0BF1203C067EC03
:1039B00071E002C068ED71E046E751E021CFEEEF23
:1039C000DE121BC065E0C8010E94A807C8010E9462
:1039D0008B0740E060E0C8010E9421046DE571E0C2
:1039E000C8010E949E0929E334E040E050E06AE00B
:1039F00070E0C8010E94B00895CDED1578F465E03F
:103A0000C8010E94A807C8010E948B0740E060E03F
:103A1000C8010E9421046EE671E0E2CFFAE0DF12F5
:103A20007ECD61E0C8010E94A8074CE851E067EC38
:103A300071E0E6CE61EC71E089E394E00E947137B9
:103A4000ACCDA8E7B0E00E94FE3628EE33E040E0BF
:103A500050E00E94C7362C0D3D1D4E1D5F1D20936A
:103A600083033093840340938503509386036091CE
:103A7000830370918403809185039091860320E1F4
:103A80003EE040E050E00E94C7365F934F933F9383
:103A90002F938AEA91E09F938F93B9E3EB2EB4E0E2
:103AA000FB2EFF92EF920E948037970141E050E099
:103AB00060E070E0C8010E94B008609187037091D7
:103AC00088038091890390918A0328EE33E040E0D7
:103AD00050E00E94C7365F934F933F932F9381EB43
:103AE00091E09F938F93FF92EF920E94803797010E
:103AF00041E050E067E070E0C8010E94B0088091AA
:103B00008B030FB6F894DEBF0FBECDBF80FF83C01E
:103B100061E070E08CEA93E00E94C90580918F0318
:103B2000909190030097E9F06AE070E00E94B3364C
:103B30009F938F937F936F9388EC91E09F938F93E4
:103B4000FF92EF920E948037970141E050E060E0E1
:103B500070E0C8010E94B0080FB6F894DEBF0FBE37
:103B6000CDBF8091910390919203009701F16AE09B
:103B700070E00E94B3369F938F937F936F9388EC8E
:103B800091E09F938F9389E394E09F938F930E949A
:103B9000803729E334E041E050E065E070E0C8019F
:103BA0000E94B0080FB6F894DEBF0FBECDBF809163
:103BB000930390919403009701F16AE070E00E94F2
:103BC000B3369F938F937F936F9388EC91E09F938D
:103BD0008F9389E394E09F938F930E94803729E32A
:103BE00034E041E050E06BE070E0C8010E94B008B2
:103BF0000FB6F894DEBF0FBECDBF80918B03982F18
:103C00009670963029F48B7F80938B0361E004C01B
:103C1000846080938B0366E0C8010E94A807B0CD42
:103C200026960FB6F894DEBF0FBECDBFDF91CF91C1
:103C30001F910F91FF90EF90DF90CF90BF9008956C
:103C40000F931F93CF93DF93EC018C01005C1F4F08
:103C5000F80180818F3FF9F062E070E0CE010E94B0
:103C60005D0A8FEFF8018083CE010E94EA0A61E0CD
:103C70008CEA93E00E946A1ACF5BDF4FF8019081D3
:103C80008881981303C08FEF888305C08CEF94E080
:103C90000E943628F8CFDF91CF911F910F910895A0
:103CA000EF92FF920F931F93CF93DF93EC018C0160
:103CB000005C1F4FF80180818E3F41F160E070E0B1
:103CC000CE010E945D0A8EEFF801808361E08CEAEC
:103CD00093E00E946A1A7E01F1E4EF0EF11CF801F4
:103CE0009081F701808198130CC08EEFF7018083DB
:103CF0000E948832C45BDF4F688379838A839B8309
:103D000005C08CEF94E00E943628EFCFDF91CF9171
:103D10001F910F91FF90EF900895CF92DF92EF9255
:103D2000FF92CF93DF93EC010E9488326B017C01FC
:103D30008F819885A985BA85A7019601281B390B23
:103D40004A0B5B0BDA01C901893E9340A105B1051D
:103D500008F45FC08881882309F43FC0CE010E9427
:103D6000B0078823D1F10E94272DE52F2093A603C9
:103D70003093A7034093A8035093A9036093AA0329
:103D80007093AB035D838091AA038E8399814A81EE
:103D900050E06CE3969F400D511D11249B812C81B6
:103DA00030E06CE3969F200D311D112490E06CE310
:103DB000E69F800D911D112424173507D0F4841738
:103DC000950798F02817390768F480910D048E3F05
:103DD00021F48DEC93E00E94600CCF82D886E986B6
:103DE000FA8617C04817590738F08217930738F436
:103DF000ECCF84179507C8F78217930770F32F5FEE
:103E00003F4F2817390748F38DEC93E00E94501E6E
:103E1000E4CFDF91CF91FF90EF90DF90CF900895A6
:103E2000DF92EF92FF920F931F93CF93DF938C015A
:103E3000D42EFC0183A994A9FC01E170FF2780FD29
:103E400002C080E101C080E5E801C95BDF4F663058
:103E500030F0861750F06883E12CF12C0AC086E020
:103E60008883EE24E394F12C04C0888392E0E92E49
:103E7000F12C21110EC06881EF2B11F022E001C05E
:103E800021E081E090E0213011F480E090E00E9498
:103E90008839F80180819181019729F4688170E067
:103EA000C8010E94860ADD2029F061E08CEA93E0D7
:103EB0000E946A1AC701DF91CF911F910F91FF9065
:103EC000EF90DF900895CF93DF93EC0124E731E08A
:103ED00041E050E060E070E08CEA93E00E94B008BE
:103EE0008C81EF81F885E80FF11D60818091B70327
:103EF000882339F070E04AE050E08CEA93E00E94B9
:103F0000673666EC71E08CEA93E00E94C30564EFCB
:103F100071E080E090E00E94B7328C81EF81F885FB
:103F2000E80FF11D60818091000480FF02C022E053
:103F300001C021E081E090E0213011F480E090E0C8
:103F40000E9488398C81EF81F885E80FF11D20E00F
:103F500040E060818DEC93E00E94101F85EF94E0BB
:103F6000DF91CF910895EF92FF920F931F93CF931C
:103F7000DF931F92CDB7DEB77C01162F042FFC0113
:103F800083A994A9623021F4816094AB83AB05C00E
:103F90008E7FF70194AB83AB11E00E946C0881E047
:103FA00090E0113011F480E090E00E9474399FEFAE
:103FB000980F9E3F20F0113049F58CE004C0863008
:103FC00060F0113029F4682F813140F060E106C0C3
:103FD000682F813518F060E501C066E0C70169838C
:103FE0000E946B0C20E040E06981C7010E94101F15
:103FF000002371F061E08CEA93E00F90DF91CF91A4
:104000001F910F91FF90EF900C946A1A80E1D9CF25
:104010000F90DF91CF911F910F91FF90EF90089536
:10402000CF93DF93EC016C81611106C020910004F5
:10403000309101042F7D0AC040E08DEC93E00E9496
:10404000B31F2091000430910104206230930104D9
:10405000209300040E946C0824E731E041E050E026
:1040600060E070E08CEA93E00E94B008EC81F0E040
:10407000EE0FFF1FE45DFE4F608171818CEA93E0DB
:104080000E94C3050E946C0864EF71E080E090E03C
:104090000E94B73285EF94E0DF91CF910895EF92BF
:1040A000FF921F93CF93DF931F92CDB7DEB77C01B2
:1040B000A89569830E94320EC7010E94BA0E6981D9
:1040C000882331F1D7011C968D919C911D97009703
:1040D00069F0DC01ED91FC910280F381E02D0F90FD
:1040E000DF91CF911F91FF90EF90099461119CC0D7
:1040F00080910D048E5F823008F08CC08DEC93E0CF
:104100000F90DF91CF911F91FF90EF900C94600C76
:10411000C7010E94CA0E882309F486C0F70184856E
:104120009585009709F457C0DC01ED91FC9104805E
:10413000F581E02D0995F70195878487009709F1AE
:10414000F4E0853F9F0711F41091F904DC01ED9133
:10415000FC910190F081E02D0995F701848595850A
:10416000855F944009F060C011501093F90485EF09
:1041700094E00F90DF91CF911F91FF90EF900C94FE
:10418000AD1380919B03811104C08DEC93E00E94DC
:10419000600C9091BA03892F8F7B8093BA03D7016B
:1041A0001E962C91213021F49E7B9093BA0303C07C
:1041B00081608093BA0361E08CEA93E00E946A1AFE
:1041C00061E08CEA93E00F90DF91CF911F91FF9017
:1041D000EF900C946A1A8DEC93E00E94501E80912F
:1041E000BA03982F90649093BA0380958170F70179
:1041F000868767E08CEA93E00E94A80785EF94E049
:104200000E94971385EF94E0D7011D969C938E939F
:104210001C970AC08DEC93E00F90DF91CF911F9116
:10422000FF90EF900C94501E0F90DF91CF911F9153
:10423000FF90EF900895CF93C62F60E08CEF94E04D
:104240000E94282C6C2F89E794E0CF910C944F208A
:10425000EC0181E08093FB0462E08CEA93E00E9431
:104260006A1A61E0CE010E941B21FBCF2F923F9280
:104270004F925F926F927F928F929F92AF92BF9276
:10428000CF92DF92EF92FF920F931F93CF93DF9322
:1042900000D000D01F92CDB7DEB78C010E948832CB
:1042A0006B017C01580120E4A20EB11CD5017C9069
:1042B000BFEF7B1207C065E070E080E090E00E94F5
:1042C000B73210C4EEEF7E122EC0D801D5968C9175
:1042D00086FF08C424E630E0AE014F5F5F4FBE01A9
:1042E0006D5F7F4FC8010E94BB0C29813A81F801A4
:1042F00080AD91AD2817390790F4E45BFF4F8081C2
:104300009181A281B381C81AD90AEA0AFB0AF8EBA3
:10431000CF16FBE0DF06E104F10408F4E3C3C801B3
:104320000E94EA0ADFC3C8010E94750C982ED801CA
:10433000D5968C9186FF2CC0F801E85BFF4F408139
:1043400051816281738116012701241A350A460AB8
:10435000570A29EE221623E032064104510408F4DC
:104360009DC0D801D3968C9183FD05C0892D8370A3
:10437000833009F411C36624639420E0F80185A911
:1043800080FF8FC0D5018C91833009F08AC021C392
:10439000F7E07F122AC0F80181A592A5A3A5B4A5D4
:1043A00086309105A105B105D0F445A156A167A1BC
:1043B00070A516012701241A350A460A570A21EE6C
:1043C000221623E9320624E04206510440F0019609
:1043D000A11DB11D81A792A7A3A7B4A75FC087E0C5
:1043E000D5018C93612C27E05CC0F80183A984FD82
:1043F00055C0892D8370833009F44CC0F8E07F16D6
:1044000069F0F80186A597A5A0A9B1A9892B8A2BE7
:104410008B2B21F4C6A6D7A6E0AAF1AAF801E45B8B
:10442000FF4F80819181A281B38116012701281A53
:10443000390A4A0A5B0A29EE221623E032064104B1
:10444000510490F0F80186A597A5A0A9B1A916017D
:104450002701281A390A4A0A5B0A29EE221623E0A4
:1044600032064104510420F438E0731217C00CC026
:1044700048E0741649F062A96E3F30F46F5F62AB9A
:1044800083E190E00E94883988E0F5018083612C07
:1044900028E007C016A617A610AA11AA66246394DE
:1044A00020E0F8018581882309F445C086E0D50124
:1044B0008C937816A9F063896E3F30F46F5F638B3D
:1044C00081E190E00E948839F8011786108A118AEC
:1044D000128AD701C60180529C46AB4FBF4F25C000
:1044E000F80183859485A585B685C816D906EA06A0
:1044F000FB06F8F087859089A189B2890196A11DF4
:10450000B11D8787908BA18BB28B0797A105B10551
:1045100008F039C1C80102960E94E709D701C60117
:1045200080529C46AB4FBF4FF80183879487A58785
:10453000B687612C26E08091930390919403A801A3
:104540004E5B5F4F4A018E3E924074F480918F0320
:1045500090919003843492403CF480919103909127
:1045600092038434924034F08AE0F5018083612C18
:104570002AE06DC0662009F46AC08AEF870D833097
:1045800018F0FAE07F1208C060E070E0C8010E94F5
:104590005D0AD5011C92712C24E630E0AE014F5F1C
:1045A0005F4FBE016D5F7F4FC8010E94BB0CF801D9
:1045B00043A941FD0DC080819181019749F42B8170
:1045C0003C8186AD97AD2817390710F025E013C060
:1045D00089819A81F80126A937A98217930708F0E3
:1045E00018C2D801D8962D913C91D997821793077C
:1045F00008F4FDC122E0271541F1F4018081F801A2
:10460000ED5BFF4F281729F0C082D182E282F3824E
:104610001CC080819181A281B381B701A601481B92
:10462000590B6A0B7B0B213029F489E190E0A0E063
:10463000B0E004C08AEF90E0A0E0B0E0481759076E
:104640006A077B0710F0D5012C9366246394F4016C
:104650002083D5018C91871509F4B2C0813089F58A
:10466000C8010E94EA0A60E070E0C8010E945D0A89
:1046700060918303709184038091850390918603F8
:1046800020E13EE040E050E00E94C736BA01A901B7
:104690008091870390918803A0918903B0918A0348
:1046A000480F591F6A1F7B1F40938703509388034D
:1046B0006093890370938A038DE090E00E9496399D
:1046C0007FC08230B9F4C8010E94EA0AF801E95BB0
:1046D000FF4F608170E0C8010E94860AB1E07B1242
:1046E0006FC010928303109284031092850310927E
:1046F00086037EC08330C1F4F801E95BFF4F60811F
:1047000070E0C8010E94860AF80183A994A991FD6E
:1047100089C1C80102960E94170A882309F482C140
:1047200089E0D5018C932FC0843031F4C8010E94F8
:10473000EA0A60E070E007C0863049F4C8010E94D0
:10474000EA0A62E070E0C8010E945D0A39C08A305E
:10475000E9F460E070E0C8010E945D0A0E948832BE
:104760006C197D098E099F0968387341810591058F
:1047700010F4A895F3CFC8010E94EA0A62E070E045
:10478000C8010E945D0AC8010E942821853061F499
:10479000C8010E94EA0AF801E95BFF4F608170E0FE
:1047A000C8010E94860A0CC0873041F2883019F394
:1047B00060E070E0C8010E945D0AC8010E94EA0A38
:1047C000611016C053E0252E721012C0F801E85B8C
:1047D000FF4F80819181A281B381C81AD90AEA0A68
:1047E000FB0A21EDC21627E0D206E104F10458F2DB
:1047F000F801EF5BFF4F7082D5018C91833031F46B
:10480000B996808191811816190624F0F80185A9BE
:1048100084FF32C0C8010E94FA0CF801E05AFF4F31
:1048200060817181828193810E94EE0D9B01AC01B8
:104830006F3FEFEF7E078E079E07F1F0F801E65914
:10484000FF4FA081B1810E9409373297C080D1808B
:10485000EE24D7FCE094FE2C6C197D098E099F098B
:10486000349797FDEEC06083718382839383809138
:10487000BA0380688093BA03D5018C91833009F024
:1048800031C16801B8E5CB0ED11CF6018081918160
:10489000A281B3817801FCE5EF0EF11CF701808362
:1048A0009183A283B3830E946A2EF801E05BFF4FDD
:1048B00080809180A280B380681979098A099B0958
:1048C000D6016D937D938D939C931397F701C080D0
:1048D000D180E280F3806C157D058E059F0509F47B
:1048E00001C18BE893E00E945B1020918B0320FDB7
:1048F00018C080919303909194038A3892400CF0F1
:10490000A5C080918F0390919003883092400CF065
:104910009DC08091910390919203883092400CF059
:1049200095C020918B0320FF16C080919303909136
:104930009403893592407CF480918F039091900389
:104940008B3E914044F480919103909192038B3E71
:1049500091400CF487C020918B0321FD18C08091F9
:104960009303909194038C3B92400CF086C080910D
:104970008F0390919003863292400CF07EC080911C
:10498000910390919203863292400CF076C0209170
:104990008B0321FD7FC0A6C087E0D5018C93C801A1
:1049A0000E94EA0AB7E07B1651F0F80165A56E3F58
:1049B00030F46F5F65A782E190E00E948839D801EA
:1049C0009596CD92DD92ED92FC929897612C27E01E
:1049D000D5CC911007C041E062E0C8012D830E9450
:1049E000B31F2D81F80185A98E7F85AB5ACDDA964C
:1049F0002D913C91DB978217930748F4DC962D911B
:104A00003C91DD9742FF07C02817390720F423E0C7
:104A1000F2CD21E0F0CD2817390710F020E0EBCDE2
:104A200024E0E9CDB1E07B1208C01092830310921C
:104A300084031092850310928603C8010E94C50A60
:104A4000BFCE108211821282138211CF2160209377
:104A50008B0360918E03669521E040E0C8010E94BF
:104A6000101F5FCF2E7F20938B0321E040E06091E9
:104A70008E03C8010E94101F6ECF226020938B030B
:104A800060918E036695669521E040E0C8010E9422
:104A9000101F7DCF80919303909194038B389240A7
:104AA0000CF580918F039091900389309240D4F45B
:104AB0008091910390919203893092409CF42D7FD4
:104AC00020938B0360918E03669521E040E0C8013E
:104AD0000E94101FF801E95BFF4F608170E0C80180
:104AE0000E94860A0F900F900F900F900F90DF9109
:104AF000CF911F910F91FF90EF90DF90CF90BF90DB
:104B0000AF909F908F907F906F905F904F903F906D
:104B10002F900895CF93DF93EC0181E0888361E0CB
:104B200084E090E00E948839E0E0F4E02081318167
:104B30002064318320830E946C080E947408CE0197
:104B40000E948D1E61E08CEA93E0DF91CF910C947E
:104B50006A1AFC01108260E084E090E00E948839CB
:104B6000E0E0F4E0808191818F7B918380830E94DB
:104B70006C080E94740861E08CEA93E00C946A1A55
:104B8000CF93DF93EC0124E731E041E050E060E0B7
:104B900070E08CEA93E00E94B008EC81F0E0EE0F48
:104BA000FF1FE95FFE4F608171818CEA93E00E94F4
:104BB000C30564EF71E080E090E00E94B7328C8121
:104BC000811105C08BE993E00E948A2504C08BE91E
:104BD00093E00E94A92585EF94E0DF91CF9108959D
:104BE000A8958DEC93E00E94362160E08CEA93E07A
:104BF0000E946A1A60E08DEC93E00E941B218BE911
:104C000093E00C948D1E1F93CF93DF93EC01162F2E
:104C10008091BA03613011F48E7F01C0816080936E
:104C2000BA03642F8CEA93E00E946A1A8BA99CA9AC
:104C3000111102C0916001C09E7F9CAB8BAB0E94A2
:104C40006C0860EE71E080E196E00E94BB356BA9D4
:104C50007CA940E150E080E196E00E947C3680E053
:104C600090E0DF91CF911F910895CF93DF93EC01F6
:104C700024E731E041E050E060E070E08CEA93E04E
:104C80000E94B008EC81F0E0EE0FFF1FE85DFE4FE0
:104C9000608171818CEA93E00E94C30561E08C81A0
:104CA000811160E041E08DEC93E00E94032681E0F9
:104CB0009C81911180E08093870485EF94E0DF91DF
:104CC000CF910895CF92DF92EF92FF921F93CF93EF
:104CD000DF93EC0182E090E00E9482397C018F3FFB
:104CE0002FEF920761F090FF0AC08091BA038160B4
:104CF0008093BA0361E08CEA93E00E946A1A22E092
:104D000030E040E063E270E0CE0146960E942A0364
:104D100022E030E047E069E270E0CE0149960E946F
:104D20002A0322E030E041E063E270E0CE014C96DD
:104D30000E942A0321E030E043E069E270E0CE0106
:104D40004F960E942A0321E030E044E069E270E0DF
:104D5000CE0182960E942A03CE0102960E94F80993
:104D6000CE010E94EA0ACE010E94720A8FEFE81675
:104D7000F80619F41CAA1BAA04C0FCAAEBAAE0FEC0
:104D800002C012E001C011E08BE090E00E94823985
:104D90006C017E01A8E6EA0EF11CF7019183808385
:104DA00089E090E00E948239FE01E659FF4F91832D
:104DB0008083CD20C09419F4D7011D921C920196D6
:104DC00021F48CED90E091838083FE01E05AFF4F47
:104DD0001082118212821382349610821182128202
:104DE00013821DAA1F86188A198A1A8A81E190E007
:104DF0000E9474398B8B8F3F09F41B8A19A61AA65F
:104E00001BA61CA682E190E00E9474398F3F11F42A
:104E10008DA701C01DA61EA61FA618AA19AA83E168
:104E200090E00E9474398F3F11F48AAB01C01AAA36
:104E30001DA21EA21FA218A67E01E0E4EE0EF11C28
:104E4000D7011C92FE01EF5BFF4F1082CE010E9442
:104E50009A1181E08093FB04CE010E9409122BA9D4
:104E60003CA925FD05C09FEF980F923008F4182F3C
:104E700023FD02C08330E9F190E024FD02C08430BC
:104E8000E9F131FD02C08530F1F19923A1F00E94D2
:104E900088326B017C010E9488326C197D098E0971
:104EA0009F09603E73498440910588F761E0CE0117
:104EB0000E941B21F0CF1092FB0440E0612FCE0135
:104EC0000E94B31F8BA986FD0AC0CE01DF91CF914E
:104ED0001F91FF90EF90DF90CF900C94600CCE016B
:104EE000DF91CF911F91FF90EF90DF90CF900C94C6
:104EF000501E97E0F701908391E0BFCF98E0D70173
:104F00009C9391E0BECF89E0F7018083C0CF83E41A
:104F100095E00E94762F0E94252D8BE993E00E9458
:104F2000050F8CEA93E00E9427118DEC93E00C941E
:104F3000622688E10FB6F8948093600010926000BA
:104F40000FBE68EC70E080E090E00E94B73226E08F
:104F500040E052EC61E070E080E196E00E9466344F
:104F600089E794E00E942B0E0E9487278BE893E04C
:104F70000E9487082FE088E190E00FB6F894A8958A
:104F8000809360000FBE209360008DE090E00E944F
:104F90007C396F3F7F4F8F4F9F4F39F440E050E097
:104FA000BA018DE090E00E9496398DE090E00E9479
:104FB0007C3960938703709388038093890390936F
:104FC0008A030895BC01009799F0FC01019000202C
:104FD000E9F7AF0141505109481B590BE091100608
:104FE000F09111060280F381E02D80E196E00994B2
:104FF0000895FC01908180ED890F8A3040F08FEB9D
:10500000890F863018F489EC890F01C080E0829501
:10501000807F918120ED290F2A3038F02FEB290F66
:10502000263020F49753890F0895820F0895CF9367
:10503000FC0120E030E0A901C191CC2399F0AAE065
:10504000B0E00E94FE362C2F332727FD30952053E9
:105050003109442737FD4095542F260F371F481F2D
:10506000591FEACFCA01B901CF9108951F928DE06F
:105070008F9380910D041F928F931F9284E28F93E0
:1050800086E193E09F938F9389E394E09F938F93BE
:105090000E9480378DB79EB70A960FB6F8949EBFD0
:1050A0000FBE8DBF89E394E00C94E2271F928DE040
:1050B0008F931F926F931F9284E28F9382E293E00B
:1050C0009F938F9389E394E09F938F930E948037FF
:1050D0008DB79EB70A960FB6F8949EBF0FBE8DBFD0
:1050E00089E394E00C94E2270F931F93CF93DF930F
:1050F000FC01019690A3878F81E083AB818104E25C
:10510000080F14E21827DF0112963A2F2B2F8D91EA
:10511000882321F1803281F4005E1827ED01219768
:105120001882C3A981E08C0F83ABCC0FDD0BCE0FAF
:10513000DF1FB8A3AF8FE9CF8A3221F08E3581F41B
:10514000C2E001C0C1E0832F922FFC011192CF0178
:105150000E94F927C13039F4801307C080E006C0EF
:10516000080F1827D2CF8117C9F381E090E0DF91B3
:10517000CF911F910F910895109230051092FC0469
:1051800010921A0508951F93CF93DF93EC01162F09
:1051900064E280E196E00E940134112319F08EE26E
:1051A00093E002C082E393E00E94E2278E8D882381
:1051B00019F0CE010E94E2276DE080E196E00E94A6
:1051C00001348CA9882341F06AE080E196E0DF9108
:1051D000CF911F910C940134DF91CF911F910895CD
:1051E000AF92BF92CF92DF92EF92FF920F931F93F5
:1051F000CF93DF9300D0CDB7DEB75C01DC015E96C4
:105200001C925E975F96ED91FC9190978081873418
:1052100009F41FC2833509F46EC0863409F001C356
:1052200081818534B1F154F4823419F1843409F068
:10523000F8C28DEC93E00E94201EEFC2823509F483
:1052400050C0833509F452C0803509F0EAC2D50157
:1052500091968D919C9192970E9417286B017C01E9
:10526000F50183A194A10E94172824E030E010E208
:1052700015C0F50181A192A10E9417288091BA035F
:1052800080FF02C0611167E08CEA93E00E948D0309
:10529000C4C28DEC93E00E94600CBFC2F9012F5F85
:1052A0003F4FD501D3964C91D397552747FD509545
:1052B000E417F5075CF4F901EE0FFF1FEA0DFB1D83
:1052C000058CF68DE02D31971083E8CF95962D91C2
:1052D0003C919697AB01B6018CEA93E00E94B0082E
:1052E0009CC28DEC93E00E94411397C28DEC93E039
:1052F0000E94501E92C28181992787FD9095A92F07
:10530000B92FFC01F097E732F10508F08AC2EC5C96
:10531000FF4F0C94E936F50183A9823009F081C270
:1053200001A0F2A1E02D61E08081803309F460E00A
:1053300041E08DEC93E00E9403267DC0D501D39619
:105340008C91D397873009F06CC29B968D919C917C
:105350009C970E941728E62EF50181A592A50E9430
:105360001728062FD50197968D919C9198970E94AA
:105370001728262FF50185A196A12A830E941728B8
:10538000462FD50193968D919C91949749830E94C5
:105390001728162FF50181A192A10E941728862FA8
:1053A0002A814981612F0E94CB0737C2D501D3964C
:1053B0008C91D397823009F034C29196ED91FC9193
:1053C0009297908180910204913309F023C2806109
:1053D00022C2F50183A9833009F023C281A192A1E1
:1053E0000E9411379093380480933704BC0189E000
:1053F00090E00E949E39D50193968D919C9194974F
:105400000E9411379093360480933504BC018BE0E1
:1054100090E00E949E3901C2F50183A9823009F013
:1054200000C281A192A10E94172820E041E08DECEA
:1054300093E00E94101F8C01009709F0F4C1EDC1A8
:10544000D501D3968C91D397823009F0EAC1919619
:10545000ED91FC91929761E08081803309F460E0E6
:105460008DEC93E00E94340BD8C1F50183A9823002
:1054700009F0D7C101A0F2A1E02D81E09081903325
:1054800009F480E0D501D4968C93C7C1F50183A9B6
:10549000823009F0C6C101A0F2A1E02D61E0808157
:1054A000803309F460E08DEC93E00E946C0BB5C191
:1054B000F50183A9823009F0B4C101A0F2A1E02D69
:1054C00061E08081803309F460E08DEC93E00E941C
:1054D000DC0BA3C1D50191968D919C9192970E946E
:1054E0001728AB01BC014093870350938803609356
:1054F000890370938A038DE090E00E9496398DC1F4
:10550000F50183A9823009F08CC101A0F2A1E02D40
:10551000608161330CF485C163332CF0613409F090
:1055200080C161E007C0605341E08DEC93E00E94D0
:10553000B31F60E08DEC93E00E94540C6EC1D50166
:10554000D3968C91D397823009F06BC19196ED91EF
:10555000FC91929761E08081803309F460E08DECEA
:1055600093E00E941C0C59C1D501D3968C91D3971E
:10557000853009F056C191960D911C919297F801D2
:10558000208193968D919C9194972033C1F4DC01F6
:105590002C912033A1F4D5019596ED91FC9196972D
:1055A0002081203361F49796ED91FC9198972081AA
:1055B000203329F48BE993E00E94A9252EC10E9493
:1055C0001728F62EC8010E94172860939C03F092BA
:1055D0009D0385E090E00E94883960919D0386E0FC
:1055E00090E00E9488390E947408F50187A190A577
:1055F0000E941728162FD50195968D919C9196970C
:105600000E94172860939E0310939F0387E090E009
:105610000E94883960919F0388E090E00E94883959
:105620000E9474088BE993E00E948A25F6C0F50178
:1056300083A9823009F0F5C001A0F2A1E02D61E05C
:105640008081803309F460E08DEC93E00E94A40B2C
:10565000E4C08181992787FD9095A92FB92FFC017E
:10566000E154F109E631F10508F0DBC0E55AFF4FDE
:105670000C94E936809136048F93809135048F9392
:10568000809138048F93809137040BC0809100047F
:1056900080FF02C080E501C080E11F928F931F92BE
:1056A00086E08F9382E891E00CC0809101048F9393
:1056B000809100048F93809114041F928F9386E34E
:1056C00093E09F938F93BF92AF920E9480375EC00A
:1056D00081E190E00E947439182F82E190E00E94ED
:1056E0007439082F83E190E00E9474391F928F93E0
:1056F0001F920F931F921F938EE393E041C08FEF91
:105700008F938F938F938F93809134048F93809195
:1057100033048F93809132048F93809131048F935F
:1057200087E493E09F938F93BF92AF920E9480375C
:105730002DC0809194038F93809193038F938091D8
:1057400090038F9380918F038F93809192038F9317
:10575000809191038F938FE791E012C0809128048C
:105760008F93809127048F93809126048F9380914B
:1057700025048F9380910D041F928F938FE493E003
:105780009F938F93BF92AF920E94803781E0D501A3
:105790005E968C9327C0C5010E94F00736C08091A9
:1057A0008A038F93809189038F93809188038F93CD
:1057B000809187038F93809186038F9380918503D7
:1057C0008F93809184038F93809183038F9386E5D9
:1057D00093E09F938F93BF92AF920E94803781E0B6
:1057E000F501868F0FB6F894DEBF0FBECDBF15C092
:1057F000C5010E94C70768E372E0C5010E946637D1
:1058000061E373E0C5010E94383781E0D5015E96FF
:105810008C9303C08F7E8093020400E010E061E06F
:1058200003C00FEF1FEF60E0C5010E94C328F50120
:105830001082168EC8010F900F90DF91CF911F91AB
:105840000F91FF90EF90DF90CF90BF90AF900895B1
:105850008F929F92BF92CF92DF92EF92FF920F931F
:105860001F93CF93DF931F92CDB7DEB74C01662312
:1058700031F090910D0480910E0498135BC080E18B
:1058800096E00E9483336C01009709F450C0E12C2C
:10589000F12C01E010E0BB24B394EC14FD040CF0F7
:1058A0004DC080E196E00E949C33482FF40184A90A
:1058B000882339F0642F80E196E049830E94013407
:1058C0004981F401443219F44083B68E2CC08081A2
:1058D000843249F5268D2E311CF581E0820F332765
:1058E00027FD30954D30B1F4868FE20FF31F108203
:1058F000C4010E947428892B29F4C4010E94F02855
:105900008C0111C0F4011082168E60E0C4010E9467
:10591000C32809C0F401868FE20FF31F408303C040
:10592000F4011082168EFFEFEF1AFF0AB6CF01E0E6
:1059300010E004C0C4010E943628A1CFC8010F9016
:10594000DF91CF911F910F91FF90EF90DF90CF905B
:10595000BF909F908F900895DC01ED91FC91019094
:10596000F081E02D0994CF92DF92EF92FF92CF93D6
:10597000DF93EC01405853446D467843ECE3CE2E60
:10598000D12CE12CF12CCB01BA01A70196010E9488
:10599000C7366D83CA01B901A70196010E94C736B7
:1059A0006C83CA01B90128E130E040E050E00E9478
:1059B000C7366B83188243E95EEFE8818E2F8370D0
:1059C000A1E009F0A0E08A2F90E0BC0163597E4F6E
:1059D0002617370740F0BA01681B790B260F371FCF
:1059E000EF5FE883EACF81E089838981E82FF0E0E7
:1059F000EA5CFC4FE491AA2319F0823009F4EF5FCE
:105A0000F0E02E173F0720F02E1B3F0B8F5FECCFEF
:105A10002F5F2A83DF91CF91FF90EF90DF90CF909F
:105A20000895CF92EF920F93FC01603D87E07807D5
:105A300010F0605D77406083418322830383E482BA
:105A4000C5820F91EF90CF90089581E008951F9344
:105A5000CF93DF93CDB7DEB72B970FB6F894DEBFA9
:105A60000FBECDBF68E670E083E495E00E949D2FF5
:105A7000609131057091320583E495E00E94AC2C71
:105A800083E495E00E94B22F47E050E068E670E0C2
:105A900083E495E00E94902F83E495E00E94E72E36
:105AA0008F77982F92959F701AEF782F919F700D96
:105AB000112483E495E07B870E94E72E9C01332725
:105AC000F4E035952795FA95E1F7682F129F600D60
:105AD000112483E495E06A870E94E72E9C01332716
