:100000000C94D4010C94B2240C948B240C9408020C
:100010000C9408020C9408020C9408020C94080238
:100020000C9408020C9408020C9408020C94080228
:100030000C9408020C9408020C9408020C94080218
:100040000C9441240C9408020C941F230C94F92264
:100050000C9408020C9408020C9408020C940802F8
:100060000C940D100C9408022606A50A3C064606C0
:100070004A065406A50AA50AA50AA50AA50AA50ABC
:10008000A50AA50AA50AA50A6806A50A7206A50A70
:100090007C06E008A50AA50AF108A50A0909A50A2F
:1000A000A50AA50AA50AA50AA50AA50AA50AA50AD8
:1000B000A50AA50A1F09A50A2E09430965097A0997
:1000C0008E09AB09AE09A50AA50AA50AA50AA50AC3
:1000D000A50AEF09A50AA50A0A0A3B0A5F0A8A0AC5
:1000E00044382E312E31005665722E20004F706537
:1000F0006E204556534500000E111D150E000000E0
:100100000E0C1F03060C0800080C0E0C0800000063
:10011000000E0E0E000000000E1517110E00005309
:100120007663204C6576656C3A204C3200537663DA
:10013000204C6576656C3A204C31004175746F2017
:100140004465746563740053656C6620546573740C
:1001500000506F776572204F6E0054656D70657248
:1001600061747572652043686B004746492053658A
:100170006C66205465737400537475636B2052650C
:100180006C61792043686B0047726F756E64204321
:100190006865636B0056656E742052657127642034
:1001A000436865636B0044696F64652043686563F9
:1001B0006B00352E322E300045786974005265731D
:1001C00074617274204E6F773F005445535420443D
:1001D000495341424C4544005265737461727469DD
:1001E0006E672E2E2E0020202020304100484947E7
:1001F000482054454D5000536C656570696E67002A
:10020000474643490054455354204641494C4544D0
:100210000044697361626C6564004F50454E205222
:10022000454C415900535455434B2052454C41597C
:10023000004E4F2047524F554E44004F56455243B3
:10024000555252454E54004F5645522054454D503C
:100250004552415455524500474643492046415571
:100260004C54005345525649434520524551554937
:100270005245440044494F444520434845434B00C0
:1002800056454E5420524551554952454400455615
:100290005345204552524F52004368617267696E60
:1002A0006700436F6E6E65637465640052656164D8
:1002B000790053657420446174652F54696D653FFE
:1002C000004D6F6E74680044617900596561720079
:1002D000486F7572004D696E757465005374617274
:1002E0007420486F75720053746F7020486F757278
:1002F000005374617274204D696E0053746F7020E6
:100300004D696E0053657475700053657474696E41
:1003100067730054696D65204C696D6974004368AA
:1003200061726765204C696D69740044656C617920
:100330002054696D657200446174652F54696D6560
:100340000052657374617274004D61782043757258
:1003500072656E74000000000800020100000304D2
:100360000700000000000000000000000025002839
:10037000002B0000000000240027002A00040404D1
:10038000040404040402020202020203030303033E
:10039000030102040810204080010204081020011B
:1003A000020408102000903611241FBECFEFD8E0C1
:1003B000DEBFCDBF14BE0FB6F894A8958091600043
:1003C000886180936000109260000FBE13E0A0E08F
:1003D000B1E0EAE9F8E702C005900D92A236B10754
:1003E000D9F726E0A2E6B3E001C01D92A636B20717
:1003F000E1F711E0C4EDD1E004C02197FE010E94B5
:10040000C438C33DD107C9F70E9431290C944B3C35
:100410000C9400002F923F924F925F926F927F92C6
:100420008F929F92AF92BF92CF92DF92EF92FF9204
:100430000F931F93CF93DF93CDB7DEB72C970FB6F3
:10044000F894DEBF0FBECDBFE091DF04F091E00471
:100450000190F081E02D8FED94E009957C01892BCE
:10046000F9F4A89580913A05882309F4B5C08091E4
:10047000380580620E94A22082E10E94E20E0E9462
:10048000492080913805806261E070E090E00E9430
:10049000A22181EC95E00E94180B80958F719CC081
:1004A00000E010E06AE7262E62E0362E2E0137E0EB
:1004B000430E511C7AEEC72E72E0D72E0E151F0583
:1004C00084F6E091DF04F091E0040280F381E02DF6
:1004D0008FED94E00995482F80911705882369F0E6
:1004E000E091DF04F091E0040084F185E02D642FB9
:1004F0008FED94E04B8709954B85443231F440935E
:10050000E10481E08093010564C09091E10494329C
:1005100009F05FC02091010520320CF056C081E047
:10052000820F022E000C330B80930105F901E1527A
:10053000FB4F4D3009F047C0128222EE34E0309379
:1005400003052093020581E0809316058091E20463
:1005500024E2280FB82EB926E3EEF4E030813323ED
:1005600009F4B7C2303211F5809116058A3064F073
:10057000109216051092E1041092010510921805D0
:1005800080E00E94152825C0205EB3261192A0911C
:10059000160581E08A0F80931605AA0FBB0BA152A6
:1005A000BB4F9496FC93EE939397D8CFCF010196CF
:1005B0003A3209F481C23E3511F40C94ED0A230F4E
:1005C000FC01B326CBCF428304C01092E104109209
:1005D00001050F5F1F4F72CF982F917080FD12C0E1
:1005E00080915605823071F440915705509158051D
:1005F0006091590570915A05452B462B472B11F4F4
:100600001092560510915605112389F0113009F00A
:100610005AC0409157055091580560915905709105
:100620005A05452B462B472B09F042C04CC0992355
:1006300009F440C08091570590915805A091590543
:10064000B0915A05892B8A2B8B2B51F40E943524AB
:1006500060935705709358058093590590935A05F8
:100660000E94352400915705109158052091590595
:1006700030915A05DC01CB01801B910BA20BB30B0F
:1006800020915605211107C0C297A105B10508F4B4
:100690006CC081E00AC0213009F067C0843F9140FE
:1006A000A105B10508F461C082E0809356055DC0E4
:1006B0009111D6CF109257051092580510925905F6
:1006C00010925A0552C0992309F44FC080915B05DE
:1006D00090915C05A0915D05B0915E05892B8A2BF8
:1006E0008B2B09F442C0123009F03FC00E94352420
:1006F000C0905B05D0905C05E0905D05F0905E05D4
:10070000DC01CB018C199D09AE09BF0980319742EC
:10071000A105B10550F110925B0510925C05109295
:100720005D0510925E051F921F931F9284E28F93C6
:100730008BE892E09F938F938EEA93E09F938F9341
:100740000E940A390E940316E091DF04F091E00450
:100750000284F385E02D6EEA73E08FED94E0099555
:100760000FB6F894DEBF0FBECDBF2091FC053091CF
:10077000FD059091560537FD68C1809100068450B3
:1007800011E08B3008F010E09130A9F4809157050A
:1007900090915805A0915905B0915A05892B8A2B43
:1007A0008B2B09F0CAC010925605812F0E94B427E6
:1007B000811126C0C2C0923009F0BFC08091570598
:1007C00090915805A0915905B0915A050097A1053F
:1007D000B10509F4B2C080935B0590935C05A093CA
:1007E0005D05B0935E051092570510925805109262
:1007F000590510925A0580911905877F8093190534
:1008000080915F0590916005009709F45CC0DC0160
:10081000ED91FC910480F581E02D099590936005A0
:1008200080935F05009779F1B5E08A3B9B0721F043
:10083000E5E0843B9E0721F4DC0114961C9101C085
:1008400010E0DC01ED91FC910190F081E02D099523
:1008500080915F0590916005B5E08A3B9B0729F088
:10086000E5E0843B9E0709F068C0112309F465C0E8
:100870001150DC0114961C931497ED91FC910280A9
:10088000F381E02D59C00E94351780913D05982FC6
:100890009F7B20916105213011F48E7B02C0892F4E
:1008A000816080933D0581E00E94381181E00E94C3
:1008B00038118091FE059091FF05977F9093FF0579
:1008C0008093FE053AC08091FE059091FF059860E7
:1008D0009093FF058093FE0580910006825021E0F1
:1008E000823008F020E091E029272093C005809114
:1008F0003D05817098279093610587E00E94EE2066
:1009000080913D05806480933D05112319F084EBAF
:1009100095E004C00E9424168AEB95E09093600550
:1009200080935F0580915F0590916005DC01ED91FA
:10093000FC910190F081E02D09950E9435246B0116
:100940007C0180911A0590911B05A0911C05B09126
:100950001D05A7019601281B390B4A0B5B0BDA0119
:10096000C901883E9340A105B10508F438C68091BD
:100970001E058823A9F085E00E943B279C013F715A
:1009800094FD306F4AE0429FC001439F900D1124B7
:1009900097FD0F9654E0959587955A95E1F702C01B
:1009A00080E096EF9093200580931F0588E60E94D3
:1009B000A2206EE081EC95E00E94710B60E281EC78
:1009C00095E00E94710B0E94492088E60E94A220B7
:1009D00061E181EC95E00E94710B0E94492062E088
:1009E00070E088E690E00E94A2218823F9F081EC73
:1009F00095E00E94180B182F81EC95E00E94180BCF
:100A0000712E612C9301282B46E0359527954A9548
:100A1000E1F74AE0429FC001439F900D112497FDEA
:100A20000396959587959595879502C080E096EFFA
:100A30009093220580932105C0921A05D0921B0540
:100A4000E0921C05F0921D05CAC5913089F4809191
:100A5000570590915805A0915905B0915A05892BD9
:100A60008A2B8B2B09F069CF1092560580E021C0AC
:100A7000923009F062CF8091570590915805A0916E
:100A80005905B0915A050097A105B10509F455CF54
:100A900080935B0590935C05A0935D05B0935E0524
:100AA00010925705109258051092590510925A0548
:100AB00081E00E94F02741CF31E010822C873B87F4
:100AC0000E9489253B852C85313009F082C582132F
:100AD0004FCD81E08093570610921805B09016050F
:100AE000EB2DEE0FFF0BE352FB4F83A194A141E0EE
:100AF0004B1564F4DC012C912A3341F401960E94D9
:100B0000892580931805BA94B092160510920105B4
:100B1000E0910205F09103058081873409F440C318
:100B2000833509F42EC1863409F00FC581818534DF
:100B300009F466C064F4813361F11CF48033C1F0C0
:100B400004C5823499F1843409F43FC0FEC4803571
:100B500009F4E0C024F4863409F455C0F6C48235A3
:100B600009F40CC1833509F0F0C40E942416E7C4CF
:100B700080911605823009F0E8C4E0910405F091F7
:100B80000505908180913D05903309F0F4C480649F
:100B9000F3C490910006945081E09B3008F080E00F
:100BA0000E94B42781E00E943811C9C480911605C3
:100BB000823009F0CAC480910405909105050E9415
:100BC0001A38862F0E94EE20BAC4809100068F3F0B
:100BD00009F4B5C482E090E00E94BD1F8FEF8093BE
:100BE00000060E94861F8091FE059091FF0597FFE9
:100BF000CAC481E00E94381180E00E940D259FC484
:100C00000E9435179CC480911605833009F09DC45D
:100C1000E0910605F091070580818053823008F04D
:100C200094C4E0910405F0910505E0814E2FEE0F8C
:100C3000550B660B770BFA01E254F109E531F1052A
:100C400008F083C4EC5CFF4F0C94C4382091FC0581
:100C50003091FD05811102C0306801C03F773093AB
:100C6000FD052093FC056091FC057091FD0582E077
:100C700090E00E94FF3B63C42091FC053091FD058C
:100C8000882311F02D7F41C022603FC081E0809316
:100C9000170555C42091FC053091FD05882311F0FE
:100CA0003D7F33C0326031C02091FC053091FD059D
:100CB000882311F0277F29C01092F3051092EF05C9
:100CC0001092F0051092F1051092F20528601DC0F7
:100CD0002091FC053091FD05882311F02F7E15C071
:100CE000206113C02091FC053091FD05882311F08F
:100CF0003B7F0BC0346009C02091FC053091FD059D
:100D0000882311F02B7F01C024603093FD052093D0
:100D1000FC0599C08091160584300CF416C48091AE
:100D2000FE0581FD12C480910405909105050E9485
:100D30001A384B015C0180910605909107050E94CD
:100D40001A38AAE0B5E044E050E0FA014F5F5F4F87
:100D500020911605022E000C330BE217F30734F432
:100D6000ED91FD91319720E22083EFCF409108056E
:100D700050910905C4010E943721E1C30E94AB18BC
:100D8000DEC38181833409F4F9C08CF4833309F420
:100D90009CC034F4803389F1813309F45BC0D5C33E
:100DA000853309F49EC0813409F4C8C0CEC38C34A5
:100DB00009F46BC1DCF4883409F45BC18B3409F0AD
:100DC000C4C380910405909105050E941A38AB01B7
:100DD000BC0140934D0650934E0660934F067093AE
:100DE00050068DE090E00E94F73BA9C3843509F4DA
:100DF00076C1863509F4C0C1A8C38091160582303A
:100E000009F0A3C3E0910405F0910505BB24B39458
:100E1000908180913D05903319F4B12C816001C01F
:100E20008E7F80933D0581E00E9438118091FC0502
:100E30009091FD05B11002C0916001C09E7F90931A
:100E4000FD058093FC058091FC059091FD050E94B5
:100E5000E30F75C380911605873009F076C3809142
:100E60000E0590910F050E941A38B62E80910C0540
:100E700090910D050E941A38A62E80910A05909136
:100E80000B050E941A38962E80910805909109054D
:100E90000E941A38862E80910605909107050E94BF
:100EA0001A38262F80910405909105052C870E9401
:100EB0001A3869832C852A838B829C82AD82BE82FC
:100EC000CE0101960E94660E3AC3809116058230CB
:100ED00009F03BC3809100068250823008F035C390
:100EE00056C380911605823009F02FC3E0910405A6
:100EF000F09105058081813399F03CF4803309F04D
:100F000021C381E00E944B261AC3813469F08D34DD
:100F100009F018C38091FE059091FF05906809C003
:100F200081E00E94AA260BC38091FE059091FF05E7
:100F30009F779093FF058093FE0501C3809116056E
:100F4000833009F002C380910405909105050E9449
:100F50001A3870933F0660933E0689E090E00E9445
:100F6000FF3B80910605909107050E941A38709307
:100F70003D0660933C068BE090E07BCEA09016058A
:100F80008EEF8A0D823008F0E0C2809104059091C6
:100F900005050E941A38B62E33E0A31242C0E09134
:100FA0000605F091070580818D34C9F58AEF8B0D18
:100FB0008B34C0F48FEF91E00E94D53B81508E3F7F
:100FC00088F06B2D8FEF91E00E94E93BB0920D0607
:100FD00080910E06B81640F441E061E08B2D0E942E
:100FE0009D1602C021E001C020E030E080910D0696
:100FF0001F928F938CE493E09F938F9381EE94E004
:101000009F938F932C873B870E940A390F900F90F4
:101010000F900F900F900F902C853B8526C041E0DC
:1010200001C040E08091190580FFBBC280910E068F
:101030008B1508F0B6C221E030E080910E061F92B9
:101040008F938CE493E09F938F9381EE94E09F9332
:101050008F932C873B870E940A390F900F900F9037
:101060000F900F900F903B852C8581E080930105B8
:101070006EC280911605823009F067C28091000629
:101080008250823008F061C292C28091160582308F
:1010900009F05BC2E0910405F09105058081813380
:1010A0000CF453C283331CF0813459F04EC261E01A
:1010B00080530E94FE168091FC059091FD05806290
:1010C00009C00E949D2181113AC28091FC05909136
:1010D000FD058F7D9093FD058093FC05B8CE809132
:1010E0001605853009F031C28091040590910505FF
:1010F0000E941A38A62E80910605909107050E943D
:101100001A38862E80910805909109050E941A3898
:10111000B62E80910A0590910B050E941A38962EE2
:10112000A11009C0811007C0B11005C0611103C032
:101130000E94992804C2A0922605809227056A2D54
:1011400085E090E00E94E93B6091270586E090E011
:101150000E94E93BB0922805909229056B2D87E00B
:1011600090E00E94E93B6091290588E090E00E94B0
:10117000E93B0E948128E3C180911605823009F085
:10118000E4C180910405909105050E941A3860938E
:101190004506709346068093470690934806CFC154
:1011A000E1818E2FEE0F990BAA0BBB0BFC01F09780
:1011B000E732F10508F0C9C1E75BFF4F0C94C43872
:1011C0008091CD059091CE05029739F00E944D1F78
:1011D00091E0811103C090E001C092E01F929F93C3
:1011E00004C080912F061F928F938CE493E09F930D
:1011F0008F9381EE94E09F938F930E940A3981E050
:10120000809301050F900F900F900F900F900F900B
:1012100096C18091FE059091FF0597FD02C081E483
:1012200001C08DE41F928F9380912306282F082EF2
:10123000000C330B3F938F9387E492E052C0809170
:101240003D068F9380913C068F9380913F068F934C
:1012500080913E068F938DE792E043C08091FC051C
:1012600080FDB3C1A0E1AA2EB12C0E9471161F927D
:101270008F9380910E061F928F93BF92AF921F9211
:1012800086E08F931FC080912505882361F04091EF
:1012900026058091270590E02091280530E0609197
:1012A000290570E007C040E060E070E020E030E039
:1012B00080E090E07F936F933F932F939F938F9362
:1012C0001F924F9387E792E043C08091FD058F9373
:1012D0008091FC058F9380910E061F928F938CE373
:1012E00093E09F938F9381EE94E09F938F930E945E
:1012F0000A3907C18091F9058F5F1F928F93809102
:10130000F4058F5F1F928F938091DD058F5F1F9291
:101310008F938DE492E09F938F9375C080914806E0
:101320008F93809147068F93809146068F9380918B
:1013300045068F9380913B068F9380913A068F9359
:10134000809139068F93809138068F9386E592E0DD
:101350009F938F93D0C08091400645CFDE011196B8
:101360009D0180E090E041E2FC013E9640935700F1
:101370005491F90151939F0101968A309105A1F78B
:1013800080E28093E104E2EEF4E08D918193A41574
:10139000B505D9F7F6E0AF2EB12CE1E0F0E0EC0FA7
:1013A000FD1FEA0DFB1D80811F928F93DF92CF926C
:1013B000C501880F991F84529B4F9F938F930E9462
:1013C0000A39FFEFAF1ABF0A0F900F900F900F90DE
:1013D0000F900F902AE0A216B104F9F6ADC08091EB
:1013E00024058F93809123058F93809120058F93FF
:1013F00080911F058F93809122058F938091210505
:101400008F933F922F9281EE94E09F938F930E944F
:101410000A3977C08091FF058F938091FE058F93E5
:10142000809104061F928F9340911F0650912006D1
:1014300060912106709122068091170690911806FE
:10144000A0911906B0911A06840F951FA61FB71F09
:10145000BF93AF939F938F93809100061F928F93BA
:10146000AEE5B2E0BF93AF9381EE94E09F938F938C
:101470000E940A3946C00E94D90D29833A834B83C2
:101480005C836D837E831F927F938D811F928F93E8
:101490008C811F928F938B811F928F938A811F92D1
:1014A0008F9389811F928F93A1E7B2E0BF93AF938F
:1014B00081EE94E09F938F930E940A3922C080911D
:1014C00050068F9380914F068F9380914E068F9395
:1014D00080914D068F93809154068F93809153068F
:1014E0008F93809152068F93809151068F93A3E83A
:1014F000B2E0BF93AF9381EE94E09F938F930E94ED
:101500000A3981E0809301050FB6F894DEBF0FBE63
:10151000CDBF15C060EE70E081EE94E00E94BF3B4D
:1015200065E472E081EE94E00E94F83862EB71E0CD
:1015300081EE94E00E94B43B81E08093010520E0BD
:1015400030E005C021E030E002C02FEF3FEF809196
:1015500001058F3F31F081E0232B09F080E00E94EC
:1015600015281092E104109201051092570680E0B0
:101570000E940D252EC88F7B80933D05808180338E
:1015800009F010CBDCCF81E00E944B2632CB80915A
:101590000405909105050E941A38862F0E94841731
:1015A0000FC061E08B2D0E949D169C0146CD80915D
:1015B0000405909105050E941A38862F0E944D1748
:1015C00080913D0586FDBBCFEDCAA0900D06B12CE4
:1015D0004CCE8B110C94B8027CCA32E06ECA2C96A9
:1015E0000FB6F894DEBF0FBECDBFDF91CF911F9134
:1015F0000F91FF90EF90DF90CF90BF90AF909F90B2
:101600008F907F906F905F904F903F902F900895B4
:101610000895E091D7038091D603E81730F4F0E005
:10162000E550FC4F808190E008958FEF9FEF089583
:101630009091D7038091D603981750F4E92FF0E0EA
:10164000E550FC4F208130E09F5F9093D70302C0AC
:101650002FEF3FEFC90108958091D60390E02091CC
:10166000D703821B91090895CF92DF92EF92FF92E8
:101670000F931F93CF93DF937C018A018091D8034E
:10168000882389F0EB016B01C40ED51ECC15DD0556
:10169000F1F06991D701ED91FC910190F081E02D7D
:1016A000C7010995F3CF842F413288F4909141040A
:1016B000943069F44093AD03FB012DE833E0D90188
:1016C0009A2F921B981718F491919D93F9CFC80106
:1016D000DF91CF911F910F91FF90EF90DF90CF900E
:1016E00008952091D8032223C9F02091FA032032D3
:1016F00040F021E030E0FC013383228380E090E081
:1017000008958091D903E82FF0E0E652FC4F608302
:101710008F5F8093D9038093FA0309C080914104BD
:10172000843029F481E08093AD0360938D0381E0E0
:1017300090E0089585ED8093BC008091BC0084FD0D
:10174000FCCF109241040895DC011496EC9114979B
:1017500015962C91E21740F4F0E0EE0FFF1FEE5AC1
:10176000FE4F808191810895FC0114820E94AB1884
:1017700084EB95E00895CF93DF93EC0145E952E0C7
:1017800061E070E080E090E00E943721EC81F0E0C1
:10179000EE0FFF1FEC5DFE4F608171818FE295E0DF
:1017A0000E940F2664EF71E080E090E00E94FB232E
:1017B0008C81811102C00E94AB1880E090E0DF9123
:1017C000CF910895CF93DF93EC018C818F5F8230AE
:1017D00010F48C8301C01C820E94AC21EC81F0E0EB
:1017E000EE0FFF1FEC5DFE4F4081518161E070E024
:1017F00080E090E0DF91CF910C943721FC011482BE
:101800006DEB71E080E090E00E947C2167E972E07E
:1018100081E090E00C944721FC0184818F5F8483F8
:101820009581981708F41482E481E91758F4F0E0E0
:10183000EE0FFF1FEE5AFE4F0190F081E02D628106
:10184000738102C068EB71E081E090E00C947C2130
:10185000FC0114826281738180E090E00E947C210F
:101860006091AF057091B00581E090E00C947C210F
:10187000CF93DF93DC0114968C9114978F5F1496AD
:101880008C93149715969C911597981718F41496A5
:101890001C92149716968C9116971496EC911497A7
:1018A0008823A1F0CE2FD0E0CC0FDD1FCE59DE4F24
:1018B0002881398145E02736340729F4EF5F1496F3
:1018C000EC931497EACF22563540C1F3E91758F448
:1018D000F0E0EE0FFF1FEE59FE4F0190F081E02D7A
:1018E0006281738102C068EB71E081E090E0DF917A
:1018F000CF910C947C21CF93DF93EC011C829E81CD
:10190000992399F08C81E82FF0E0EE0FFF1FEE593C
:10191000FE4F2081318145E02736340719F48F5F6F
:101920008C83EECF22563540D1F36A817B8180E0F3
:1019300090E00E947C21EC81F0E0EE0FFF1FEE5959
:10194000FE4F0190F081E02D6281738181E090E093
:10195000DF91CF910C947C21CF93DF93EC0145E98B
:1019600052E061E070E080E090E00E9437214C811D
:1019700050E060E070E02AE08FE295E00E94C6252A
:1019800067EC72E08FE295E00E940F2664EF71E051
:1019900080E090E00E94FB236C818091FC0580FD3B
:1019A00002C021E001C022E081E090E0213011F48A
:1019B00080E090E00E94E93B40E060E08C810E9482
:1019C0009D1684EB95E0DF91CF910895CF93DF933F
:1019D000EC018091FC0580FD02C081E001C082E045
:1019E00096E09D83813029F480E18E838BE992E03B
:1019F00005C080910D068E838EE992E09F938F93B0
:101A000081EA92E09F938F938EEA93E09F938F9366
:101A10000E940A396EEA73E080E090E00E9447215C
:101A200090910E069C838D810F900F900F900F90D8
:101A30000F900F90981708F48C838C811F928F93CE
:101A400080EB92E09F938F938EEA93E09F938F9326
:101A50000E940A390F900F900F900F900F900F90E7
:101A60006EEA73E081E090E0DF91CF910C94472122
:101A70008091D405882321F081E08093D3050895D7
:101A80008091FE059091FF0580689093FF058093FB
:101A9000FE050E94861F80E090E00E94BD1F81E04D
:101AA0008093D2050895BF92CF92DF92EF92FF927A
:101AB0000F931F93CF93DF93B42E1092CF03CFECED
:101AC000D3E02AE0C22ED12CE12CF12C8E01A7010B
:101AD00096010E948338605D6A93B901CA0161155D
:101AE00071058105910599F73C2F301B3B0D1316AD
:101AF00074F3CE01DF91CF911F910F91FF90EF9082
:101B0000DF90CF90BF900895CF92DF92EF92FF9237
:101B10006B017C01A89584E0C816D104E104F104AE
:101B200060F063E070E080E090E00E94FB2383E0DF
:101B3000C81AD108E108F108EDCFC701B601FF903E
:101B4000EF90DF90CF900C94FB23FC018081877095
:101B5000806480937C0080917A00806480937A0016
:101B600080917A0086FDFCCF8091780020917900E9
:101B700090E0922B0895DC016115710561F0ED9103
:101B8000FC91119712969C9112976130710569F43E
:101B90008281982B9283ED91FC91119791811296FD
:101BA0008C9180958923818308958181982B9183DD
:101BB00008951F93CF93DF93CDB7DEB72B970FB662
:101BC000F894DEBF0FBECDBF88E60E94A22060E081
:101BD00081EC95E00E94710B0E94492067E070E063
:101BE00088E690E00E94A22181EC95E00E94180B0B
:101BF0008F77982F92959F701AEF782F919F700D85
:101C0000112481EC95E07B870E94180B9C013327FF
:101C100094E0359527959A95E1F7682F129F600D0E
:101C2000112481EC95E06A870E94180B9C013327F0
:101C300044E0359527954A95E1F7582F129F500DAE
:101C4000112481EC95E059870E94180B81EC95E0F6
:101C50000E94180B9C01332754E0359527955A951F
:101C6000E1F7482F129F400D112481EC95E0488741
:101C70000E94180B9C01332764E0359527956A95DF
:101C8000E1F7382F129F300D112481EC95E03F834E
:101C90000E94180BFC01FF2774E0F595E7957A95F3
:101CA000E1F7282F1E9F200D11243F81488559857B
:101CB0006A857B8580E090E02B960FB6F894DEBFB6
:101CC0000FBECDBFDF91CF911F9108950F931F934A
:101CD000CF938C0188E60E94A22060E081EC95E021
:101CE0000E94710BF8012581CAE0822F6C2F0E949F
:101CF0004F38682F660F860F682F660F620F81ECD2
:101D000095E00E94710BF8012481822F6C2F0E94B4
:101D10004F38682F660F860F682F660F620F81ECB1
:101D200095E00E94710BF8012381822F6C2F0E9495
:101D30004F38682F660F860F682F660F620F81EC91
:101D400095E00E94710B60E081EC95E00E94710BC0
:101D5000F8012281822F6C2F0E944F38682F660F66
:101D6000860F682F660F620F81EC95E00E94710B61
:101D7000F8012181822F6C2F0E944F38682F660F47
:101D8000860F682F660F620F81EC95E00E94710B41
:101D9000F8012081822F6C2F0E944F38682F660F28
:101DA000860F682F660F620F81EC95E00E94710B21
:101DB00060E081EC95E00E94710BCF911F910F9133
:101DC0000C944920682F81EC95E00C94710BCF9313
:101DD000DF931F92CDB7DEB7FC01818580626983F6
:101DE0000E94A22083E10E94E20E6981862F0E9458
:101DF000E20E0E9449208111FCCF0F90DF91CF911C
:101E00000895FF920F931F93CF93DF9300D0CDB728
:101E1000DEB78C01F62EFC01958564FD9061F5FC22
:101E20009860F6FC9460F7FC9260292F442311F02F
:101E3000206A01C02062622FC80129834A830E9460
:101E4000E70E2981622F6F7DC8010E94E70EF8011D
:101E500095854A81F0FC9061F1FC9860F2FC9460F9
:101E6000F3FC9260292F442311F0206A01C0206204
:101E7000622FC80129830E94E70E2981622F6F7D9E
:101E8000C8010F900F90DF91CF911F910F91FF909C
:101E90000C94E70EFC012385222319F041E00E94F7
:101EA000010F81E090E00895CF93DF93CDB7DEB7C7
:101EB00028970FB6F894DEBF0FBECDBF9C01FC0182
:101EC0008385882321F188E0E4E0F1E0DE011196CA
:101ED00001900D928A95E1F7F9018781841710F43A
:101EE0004FEF480FFE013196E40FF11DE40FF11D95
:101EF0009081690F606840E0C90128960FB6F89498
:101F0000DEBF0FBECDBFDF91CF910C94010F28969D
:101F10000FB6F894DEBF0FBECDBFDF91CF9108950D
:101F2000CF93DF93EC018C818F5F8C839E81981718
:101F300010F48D818C830E94AC2141E060E08FE23F
:101F400095E00E94540F90910E068C81981306C064
:101F500065E972E08FE295E00E940F264C8150E027
:101F600060E070E02AE08FE295E00E94C62567EC11
:101F700072E08FE295E0DF91CF910C940F26FC0187
:101F80002385222341F040E061E00E94010F8BE3B2
:101F90009FE10197F1F70895DC011496EC911497F5
:101FA00015968C91E81740F4F0E0EE0FFF1FEE5904
:101FB000FE4F8081918108958FE295E00E94BF0FCE
:101FC00080E090E00895BC0182E090E00C94FF3B3B
:101FD000DC01ED91FC911197928112968C91892BE5
:101FE0008283089561110C94E80FDC01ED91FC915E
:101FF0001197228112968C91809582238283089575
:10200000DC01ED91FC911197208112968C91922F19
:10201000982381E009F480E008951F920F920FB693
:102020000F9211242F933F934F935F936F937F935E
:102030008F939F93AF93BF93EF93FF938091B900DA
:10204000887F803609F49CC068F5883209F45BC04B
:1020500090F4803109F454C038F4882309F4F3C0B3
:10206000883009F44DC0F3C0883109F44CC0803287
:1020700009F45DC0ECC0803409F468C048F48033D2
:1020800009F455C0883309F0E2C080933F04D5C0FD
:10209000803509F44FC0883509F45DC0883409F0F3
:1020A000D6C0D3C0883909F4C4C0A8F4883709F46D
:1020B00067C038F4883609F463C0803709F460C01B
:1020C000C6C0883809F4B5C0803909F45FC08038CB
:1020D00009F0BDC05BC0803B09F483C038F4803A8E
:1020E00009F466C0883A09F47CC0B1C0803C09F4A8
:1020F000A4C0883C09F4A1C0883B09F487C0A7C0EC
:1021000080913C0410C090913E0480913D0498174A
:1021100070F5E0913E0481E08E0F80933E04F0E084
:10212000E55EFB4F80818093BB0085EC83C080938C
:102130003F048BC0E0913E0481E08E0F80933E040B
:102140008091BB00F0E0E55EFB4F808390913E0400
:1021500080913D046BC0E0913E0481E08E0F80933E
:102160003E048091BB00F0E0E55EFB4F80838091F0
:10217000400481116AC081E080933B0484EA5EC020
:1021800083E08093410410928C03CFCF80918C0325
:10219000803208F04EC0E0918C0381E08E0F809376
:1021A0008C038091BB00F0E0E459FC4F8083BDCFED
:1021B00080918C03803230F4E0918C03F0E0E4599C
:1021C000FC4F10820E949A0B60918C0370E0E091AA
:1021D0006A03F0916B038CE693E0099510928C03EF
:1021E0002CC084E080934104109269031092AD03E7
:1021F000E0916703F091680309958091AD03811127
:1022000005C081E08093AD0310928D03E0916903D6
:1022100081E08E0F80936903F0E0E357FC4F8081EB
:102220008093BB00909169038091AD03981708F4E7
:102230007CCF85E88093BC000AC085EC8093BC000D
:102240001092410404C010923F040E949A0BFF9127
:10225000EF91BF91AF919F918F917F916F915F911E
:102260004F913F912F910F900FBE0F901F90189597
:102270008F929F92AF92BF92CF92DF92EF92FF9296
:102280000F931F93CF93DF9300D000D000D0CDB732
:10229000DEB7082F80913D0586FDA2C4109100068F
:1022A0008091FC0580FD03C0DD24D39402C032E0A0
:1022B000D32EC0900E060E9435244B015C019091F4
:1022C000000680910106981709F495C228EE820E47
:1022D00023E0921EA11CB11C8091FE0581FD02E04D
:1022E0001F92CF921F92DF9286E191E09F938F938E
:1022F0002EEAE22E23E0F22EFF92EF920E940A399C
:102300000FB6F894DEBF0FBECDBF173009F48AC1F7
:10231000A8F4133009F402C130F4113061F1123025
:1023200009F483C0E0C1153009F42BC108F031C1B4
:1023300081E00E94EE2060E872E028C11B3009F4C1
:1023400031C158F4193009F4A5C108F483C181E002
:102350000E94EE2067E472E08AC11E3F09F4A4C126
:1023600008F088C11E3009F0BEC181E00E94EE2055
:102370006AE172E07CC18FE295E00E94BF0F40E00D
:1023800060E08FE295E00E94540F82E00E94EE2010
:102390000E9416218CEA92E00E9428214EEA53E026
:1023A00060E070E08AE090E00E9437216091510681
:1023B00070915206809153069091540620E13EE0C0
:1023C00040E050E00E9483385F934F933F932F93F8
:1023D00085EB92E09F938F93FF92EF920E940A39D0
:1023E0004EEA53E061E070E080E090E00E94372127
:1023F00060914D0670914E0680914F069091500667
:1024000028EE33E040E050E00E9483385F934F9322
:102410003F932F938CEB92E09F938F93FF92EF92D9
:102420000E940A394EEA53E06DC08FE295E00E94A7
:10243000BF0F40E060E08FE295E00E94540F83E020
:102440000E94EE2080914006882329F063E08FE20D
:1024500095E00E944A0F80912F06882329F065E0BD
:102460008FE295E00E944A0F0E94162182EA92E0D4
:102470000E9428214EEA53E060E070E08AE090E09C
:102480000E94372160915106709152068091530647
:102490009091540620E13EE040E050E00E948338F5
:1024A0005F934F933F932F9385EB92E09F938F938E
:1024B0009EEAE92E93E0F92EFF92EF920E940A39EC
:1024C000A70161E070E080E090E00E943721609118
:1024D0004D0670914E0680914F069091500628EE61
:1024E00033E040E050E00E9483385F934F933F9386
:1024F0002F938CEB92E09F938F93FF92EF920E9429
:102500000A39A70161E070E087E090E00E9437217E
:102510000FB6F894DEBF0FBECDBFE5C086E00E94C7
:10252000EE208FE295E00E94BF0F40E060E08FE276
:1025300095E00E94540F8091410690914206A0912F
:102540004306B0914406892B8A2B8B2B29F063E03C
:102550008FE295E00E944A0F80912F06882329F090
:1025600065E08FE295E00E944A0F0E94162189E9FA
:1025700092E00E94282180913D05806880933D056E
:10258000B2C081E00E94EE2064E772E08EE892E043
:1025900088C081E00E94EE2068E572E0023009F018
:1025A00054C065C081E00E94EE2063E672E080E0E6
:1025B00090E00E947C216BE372E08EEA93E00E943F
:1025C000BF3BF70101900020E9F77F0160913806D9
:1025D0007091390680913A0690913B0628EE33E0DF
:1025E00040E050E00E94A53880910E0690E0281B44
:1025F000390B3F932F9384EC92E09F938F93C70105
:1026000001979F938F930E940A396EEA73E081E0ED
:1026100090E00E9447210F900F900F900F900F9025
:102620000F9061C081E00E94EE20023061F40E94B0
:102630009D21811103C08EE892E002C083E692E002
:1026400061E372E02EC061E372E080E090E00E94FE
:102650007C2149C081E00E94EE20023019F08EE812
:1026600092E002C083E692E065E272E01AC083E67F
:1026700092E017C085E00E94EE208FE295E00E9474
:10268000BF0F40E060E08FE295E00E94540F81E1CF
:1026900092E01FC081E00E94EE2060E072E085E0E1
:1026A00092E00E948E211FC00E944D1F811102C026
:1026B00085E001C087E00E94EE208FE295E00E9455
:1026C000BF0F40E060E08FE295E00E94540F87EF7B
:1026D00091E00E9428214EEA53E060E070E08AE039
:1026E00090E00E94372180911905897069F08091EE
:1026F000FE0581FD09C081E00E94EE206DEE71E0D3
:1027000080E090E00E947C2180914F0590915005DF
:10271000A0915105B0915205A5019401281B390BD8
:102720004A0B5B0BDA01C901883E9340A105B10554
:1027300018F4013009F054C280924F059092500570
:10274000A0925105B09252058091FE0581FD05C011
:102750008AEF810F823008F451C00E94D90D5C834A
:102760006D837E83133009F0B3C080913D0587FFF0
:102770005FC18F7780933D0560913806709139066F
:1027800080913A0690913B06683E53E075078105BB
:10279000910510F128EE33E040E050E00E948338CC
:1027A000122F032F24E630E040E050E00E948338EF
:1027B0003F932F930F931F9389EC92E09F938F93F6
:1027C0008EEA93E09F938F930E940A390FB6F89494
:1027D000DEBF0FBECDBF06C066EE71E08EEA93E0AD
:1027E0000E94BF3B4EEA53E060E070E08AE090E078
:1027F0000E9437211DC1011169CD86CF6CE071E0C7
:102800008EEA93E00E94033980910006863049F4F5
:10281000C090D805D090D905E090DA05F090DB059E
:1028200008C0C090EF05D090F005E090F105F09061
:10283000F2050E94352440EEC40E43E9D41E44E064
:10284000E41EF11CA7019601261B370B480B590B00
:10285000CA01B90128EE33E040E050E00E9483381D
:10286000C90137FDBDC16CE370E00E946F389F93D2
:102870008F937F936F938FED92E09F938F938AEC6A
:1028800093E09F938F930E940A396AEC73E08EEA7B
:1028900093E00E94F8380FB6F894DEBF0FBECDBFAC
:1028A0006EEA73E081E090E026960FB6F894DEBF02
:1028B0000FBECDBFDF91CF911F910F91FF90EF9091
:1028C000DF90CF90BF90AF909F908F900C94472156
:1028D0001E3F09F085C140E060E08FE295E00E9474
:1028E000540F0E94162187EF91E00E9428218E81CB
:1028F0001F928F938D811F928F938C811F928F9344
:102900008AED92E09F938F930EEA13E01F930F934B
:102910000E940A39A80161E070E080E090E00E9426
:1029200037210FB6F894DEBF0FBECDBF80912505CD
:10293000882309F452C040E069E08FE295E00E94EC
:10294000540F62E08FE295E00E944A0F60E08FE250
:1029500095E00E944A0F809127051F928F938091E6
:1029600026051F928F938FEDE82E82E0F82EFF92BE
:10297000EF921F930F930E940A39A80160E070E064
:102980008BE090E00E94372141E069E08FE295E022
:102990000E94540F61E08FE295E00E944A0F60E0D0
:1029A0008FE295E00E944A0F809129051F928F9334
:1029B000809128051F928F93FF92EF921F930F93A0
:1029C0000E940A390FB6F894DEBF0FBECDBFA80132
:1029D00061E070E08BE090E017C01F92CF921F92F1
:1029E000DF9286E191E09F938F931F930F930E9454
:1029F0000A390FB6F894DEBF0FBECDBF4EEA53E0E2
:102A000060E070E08AE090E026960FB6F894DEBFB2
:102A10000FBECDBFDF91CF911F910F91FF90EF902F
:102A2000DF90CF90BF90AF909F908F900C94372104
:102A30006091510670915206809153069091540610
:102A400020E13EE040E050E00E9483385F934F93E6
:102A50003F932F9385EB92E09F938F930EEA13E0C1
:102A60001F930F930E940A39A80161E070E080E093
:102A700090E00E94372160914D0670914E06809142
:102A80004F069091500628EE33E040E050E00E945F
:102A900083385F934F933F932F938CEB92E09F93F8
:102AA0008F931F930F930E940A39A80161E070E091
:102AB00087E090E00E943721809119050FB6F894C5
:102AC000DEBF0FBECDBF80FF71C00E94AC21E09180
:102AD0001F05F0912005E11596EFF90751F1CF019F
:102AE0006AE070E00E946F3897FF03C0919581956E
:102AF00091099F938F93CF016AE070E00E946F3835
:102B00007F936F9381ED92E09F938F938EEA93E092
:102B10009F938F930E940A394EEA53E061E070E080
:102B200080E090E00E9437210FB6F894DEBF0FBE20
:102B3000CDBFE0912105F0912205E11526EFF207C6
:102B400051F1CF016AE070E00E946F3897FF03C037
:102B50009195819591099F938F93CF016AE070E0E1
:102B60000E946F387F936F9381ED92E09F938F93D4
:102B70008EEA93E09F938F930E940A394EEA53E0C6
:102B800061E070E085E090E00E9437210FB6F89494
:102B9000DEBF0FBECDBF80911905982F967096307D
:102BA00029F48B7F8093190581E006C082FD18C04F
:102BB00084608093190586E026960FB6F894DEBFF0
:102BC0000FBECDBFDF91CF911F910F91FF90EF907E
:102BD000DF90CF90BF90AF909F908F900C94EE209D
:102BE00026960FB6F894DEBF0FBECDBFDF91CF9112
:102BF0001F910F91FF90EF90DF90CF90BF90AF901B
:102C00009F908F900895CF93DF93EEEAF3E080E0FA
:102C1000EF019191992311F08927FACF1F928F9399
:102C200089EE92E09F938F93DF93CF930E940A39AE
:102C30008DE08B831C820F900F900F900F900F9060
:102C40000F90DF91CF910895809100068E3FB9F0EB
:102C500080E090E00E94BD1F8EEF809300060E94EE
:102C60003524609313067093140680931506909391
:102C7000160681E00E94381180E00C940D2508951D
:102C80009C01265031092E32310538F445E8489F21
:102C90009001499F300D112414C09C012453310927
:102CA0002D313105D8F4092E000CAA0BBB0B805630
:102CB0009F4FAF4FBF4F9C0185E0220F331F8A9576
:102CC000E1F730938B0020938A0081E090E09093AD
:102CD000CE058093CD0580E090E0089581E090E0FE
:102CE0000895CF938091FC0580FD02C0C1E001C032
:102CF000C2E081E090E0C13011F480E090E00E94F9
:102D0000D53B9FEF980F9E3F20F0C13091F080E1BE
:102D100002C0863060F0C13021F4813160F080E182
:102D20000AC090910D06981730F4892F04C086E0F0
:102D300002C08CE0F2CFCF910895CF92DF92FF9244
:102D40000F931F93CF93DF931F92CDB7DEB7D82E8B
:102D5000F62E8091FC059091FD058C0101701127E4
:102D600080FD3FC080E1442321F049830E94711619
:102D7000498195E09D1538F48D1560F0D0920E06CE
:102D8000C12CD12C0CC086E080930E06CC24C394B9
:102D9000D12C05C080930E0682E0C82ED12C4111A3
:102DA0000FC060910E06012B11F421E001C022E05A
:102DB00081E090E0213011F480E090E00E94E93B56
:102DC0008091CD059091CE05019729F480910E0652
:102DD00090E00E944016FF2039F081E00E943811F7
:102DE00003C080910D06BFCFC6010F90DF91CF9138
:102DF0001F910F91FF90DF90CF900895CF93C62F32
:102E00002091FC053091FD05823051F42160309312
:102E1000FD052093FC0580E899EAA3E0B0E009C035
:102E20002E7F3093FD052093FC0580EC94EDA1E00E
:102E3000B0E08093450690934606A0934706B09372
:102E400048068091FC059091FD050E94E30F0E94C9
:102E5000711641E060E00E949D16CC2321F081E0D4
:102E6000CF910C943811CF910895809100068E5F18
:102E7000823090F48091FE059091FF058B7F9093B6
:102E8000FF058093FE058FEF8093010610920006E8
:102E900080E090E00C94BD1F0895E091FE05F09154
:102EA000FF058823F9F080934006A82FB0E020E8C2
:102EB0003EEE46E350E00E94E03860934106709396
:102EC000420680934306909344068091250588230B
:102ED00019F081E080932A05F062F093FF05E093FA
:102EE000FE05089510924106109242061092430684
:102EF0001092440610924006FF7DF093FF05E09388
:102F0000FE0510922A0508954091FE055091FF0597
:102F10008823E9F080932F06282F30E0A4E8B3E05F
:102F20000E94CA386093300670933106809332064F
:102F30009093330680912505882319F081E08093D2
:102F40002A0540615093FF054093FE0508951092B5
:102F5000300610923106109232061092330610920B
:102F60002F064F7E5093FF054093FE0510922A05D1
:102F700008952F923F924F925F926F927F928F921D
:102F80009F92AF92BF92CF92DF92EF92FF920F93F8
:102F90001F93CF93DF9300D000D000D0CDB7DEB722
:102FA000A8950E9435242B013C011E821D8201E060
:102FB000812C912C540110E0C12CD12C76010E945F
:102FC0003524AB01BC01DB01CA0184199509A609AE
:102FD000B7098397A105B10508F09BC08FED95E077
:102FE00049835A836B837C830E94A50DFC01498130
:102FF0005A816B817C8101111CC091E021E0221675
:1030000022E0320608F490E081E0E13022E0F207AD
:1030100008F480E0981769F0DB01CA018819990962
:10302000AA09BB090697A105B10518F01F5F4A015F
:103030005B01113008F46AC01330A8F0133009F0B6
:1030400065C08D819E819C0140E050E0C701B601C2
:103050000E948338DA01C90189019A0140E050E0F9
:1030600060E070E416C0CF01A0E0B0E0BC01CD018B
:103070007250810991099B01AC010E943F38C60E34
:10308000D71EE81EF91E8D819E8101969E838D8339
:103090003DC084179507A607B70740F4E2E0769590
:1030A000679557954795EA95D1F7F3CF80E090E083
:1030B000DC014115510561057105F9F06A017B01DB
:1030C000C80ED91EEA1EFB1EB695A7959795879543
:1030D0000C151D052E053F0540F00C191D092E0984
:1030E0003F09840F951FA61FB71FE2E076956795ED
:1030F00057954795EA95D1F7DCCF809334069093A6
:103100003506A0933606B09337060CC000E01F01C9
:1031100056CF109234061092350610923606109251
:103120003706A89526960FB6F894DEBF0FBECDBF22
:10313000DF91CF911F910F91FF90EF90DF90CF9093
:10314000BF90AF909F908F907F906F905F904F90C7
:103150003F902F90089580E090E00E94BD1F68EDA1
:1031600071E081E090E00E947C218091FE0586FD67
:1031700010C09EE088E10FB6F894A8958093600097
:103180000FBE909360006CED75E080E090E00C94D1
:10319000FB2368EB7BE080E090E00E94840DE9CFA8
:1031A000BC018AEC91E00E948E216CED75E080E01C
:1031B00090E00C94FB23CF93DF93EC0164EF71E07C
:1031C00080E090E00E94FB238C81882329F08130ED
:1031D00031F086E795E005C080E895E002C08BE716
:1031E00095E0DF91CF910895FC0114826BE273E0CA
:1031F00080E090E00E947C216FEE72E081E090E040
:103200000C944721FC01148262EB72E080E090E0B4
:103210000E947C2167E972E081E090E00C944721F4
:103220001F93CF93DF93D82FC62F142F1092AE0386
:10323000411106C065E972E08EEA93E00E94F83819
:103240006D2F70E080E090E042E00E94530DBC01E1
:103250008EEA93E00E94F83866EF72E08EEA93E01F
:103260000E94F838113031F465E972E08EEA93E09B
:103270000E94F8386C2F70E080E090E042E00E94FD
:10328000530DBC018EEA93E00E94F8386EEA73E0B9
:1032900081E090E0DF91CF911F910C944721FC01D8
:1032A00084818F5F8C3310F4848301C0148241E0E9
:1032B00064818091D4030C941019CF93DF93EC01B7
:1032C0006BEF72E080E090E00E947C216091D5037A
:1032D0006C8341E08091D403DF91CF910C9410195D
:1032E000FC0184818F5F8C3310F4848301C01482CD
:1032F00041E064818091D4030C941019CF93DF9343
:10330000EC0161EF72E080E090E00E947C2160912E
:10331000D5036C8341E08091D403DF91CF910C946D
:103320001019FC0184818093D40340E06091D5039F
:103330000E94101964EF71E080E090E00E94FB238E
:103340008CE695E00895FC0184818F5F883110F44C
:10335000848301C0148240E06091D50384810C9481
:103360001019CF93DF93EC0167EE72E080E090E0FC
:103370000E947C21E5E2F5E083818093D40364819F
:103380006093D5038C8340E0DF91CF910C941019AA
:10339000FC0184818093D40340E06091D5030E94B6
:1033A000101964EF71E080E090E00E94FB2381E758
:1033B00095E00895FC0184818F5F883110F4848347
:1033C00001C0148240E06091D50384810C941019EF
:1033D000CF93DF93EC016CED72E080E090E00E940F
:1033E0007C21E5E2F5E081818093D40362816093E2
:1033F000D5038C8340E0DF91CF910C941019CF92CC
:10340000DF92EF92FF920F931F93CF93DF936C01A4
:10341000F62E142FD22FCE2D1092AE03E11006C03F
:1034200065E972E08EEA93E00E94F8386F2D70E053
:1034300080E090E042E00E94530DBC018EEA93E0F0
:103440000E94F83868EF72E08EEA93E00E94F83844
:10345000C13031F465E972E08EEA93E00E94F838F9
:10346000612F70E080E090E042E00E94530DBC01CB
:103470008EEA93E00E94F83868EF72E08EEA93E0FB
:103480000E94F838C23031F465E972E08EEA93E0C8
:103490000E94F838B60180E090E042E00E94530DAF
:1034A000BC018EEA93E00E94F83865E472E08EEA8F
:1034B00093E00E94F838C33031F465E972E08EEA97
:1034C00093E00E94F8386D2F70E080E090E042E0D9
:1034D0000E94530DBC018EEA93E00E94F83866EF1B
:1034E00072E08EEA93E00E94F838C43031F465E966
:1034F00072E08EEA93E00E94F838602F70E080E07E
:1035000090E042E00E94530DBC018EEA93E00E94DD
:10351000F8386EEA73E081E090E0DF91CF911F917F
:103520000F91FF90EF90DF90CF900C944721EF9296
:103530000F93CF93DF93EC0165ED72E080E090E0B4
:103540000E947C210091D5030C8384E0E82E209119
:10355000D4034091D3036091D2038091D003909122
:10356000D1030E94FF19DF91CF910F91EF90089541
:10357000EF920F93FC0124812093D40383E0E82E83
:103580000091D5034091D3036091D2038091D00381
:103590009091D1030E94FF1964EF71E080E090E008
:1035A0000E94FB238AE895E00F91EF900895EF9237
:1035B0000F93CF93DF93EC0160ED72E080E090E039
:1035C0000E947C212091D4032C8383E0E82E00917B
:1035D000D5034091D3036091D2038091D0039091A1
:1035E000D1030E94FF19DF91CF910F91EF900895C1
:1035F000EF920F93FC01848190E09093D10380932C
:10360000D00322E0E22E0091D5032091D403409113
:10361000D3036091D2030E94FF1964EF71E080E050
:1036200090E00E94FB238FE895E00F91EF900895C2
:10363000EF920F93FC0184818F5F8D3108F082E15E
:103640008483848192E0E92E0091D5032091D403F4
:103650004091D3036091D20390E00E94FF190F9133
:10366000EF900895EF920F93CF93DF93EC016BEC03
:1036700072E080E090E00E947C218091D0039EEE79
:10368000980F9B3010F48C8308C082E18C8382E118
:1036900090E09093D1038093D0038C8192E0E92E47
:1036A0000091D5032091D4034091D3036091D203BC
:1036B00090E00E94FF19DF91CF910F91EF90089554
:1036C000EF920F93FC0144814093D303EE24E394E3
:1036D0000091D5032091D4036091D2038091D0034F
:1036E0009091D1030E94FF1964EF71E080E090E0B7
:1036F0000E94FB2384E995E00F91EF900895EF92EB
:103700000F93CF93DF93EC0167EC72E080E090E0E1
:103710000E947C214091D3034C83EE24E3940091DA
:10372000D5032091D4036091D2038091D00390916E
:10373000D1030E94FF19DF91CF910F91EF9008956F
:10374000EF920F93FC0164816093D203E12C00910E
:10375000D5032091D4034091D3038091D00390915D
:10376000D1030E94FF1964EF71E080E090E00E94B5
:10377000FB2389E995E00F91EF900895CF93DF93B4
:10378000FC01C481FFE0CF9FE00111241092AE0341
:10379000662331F065E972E08EEA93E00E94033916
:1037A000209719F46AEF72E02BC0CC33D10574F482
:1037B000BE0180E090E040E00E94530DBC018EEA23
:1037C00093E00E94F8386EEF72E01AC0CE016CE30D
:1037D00070E00E945B38EC0180E090E040E00E94E5
:1037E000530DBC018EEA93E00E94F838CD2B31F0E6
:1037F00063E073E08EEA93E00E94F83866E073E0DD
:103800008EEA93E00E94F8386EEA73E081E090E07F
:10381000DF91CF910C944721CF93DF93EC0161E0CE
:103820000E94BE1B8C810E94841764EF71E080E0CF
:1038300090E00E94FB238C81882319F080E090E0C7
:1038400002C08AEB95E0DF91CF910895FC0194814D
:10385000943010F49F5F05C09C3010F49E5F01C04F
:103860009C5F94838481813208F0148261E090919E
:103870002F068481981360E0CF010C94BE1BCF9378
:10388000DF93EC0180912F068C8363E173E080E08D
:1038900090E00E947C2161E0CE01DF91CF910C94F9
:1038A000BE1BCF93DF93EC011092AE03662331F081
:1038B00065E972E08EEA93E00E9403396C81611140
:1038C00003C06AEF72E00DC070E080E090E040E07D
:1038D0000E94530DBC018EEA93E00E94F8386AE022
:1038E00073E08EEA93E00E94F8386EEA73E081E0BC
:1038F00090E0DF91CF910C944721FC0184818530C9
:1039000010F48F5F01C08B5F84838481893208F05B
:10391000148261E0909140068481981360E0CF01A9
:103920000C94511CCF93DF93EC01809140068C8363
:103930006EE173E080E090E00E947C2161E0CE01C6
:10394000DF91CF910C94511CCF93DF93EC0161E098
:103950000E94511C8C810E944D1764EF71E080E041
:1039600090E00E94FB238C81882319F080E090E096
:1039700002C08AEB95E0DF91CF9108950F931F93DA
:10398000CF93DF93FC0104810093D5031091D403FE
:1039900041E0602F812F0E941019C5E2D5E01B8302
:1039A0000C83612F87E090E00E94E93B6C8188E006
:1039B00090E00E94E93B64EF71E080E090E00E94BB
:1039C000FB238AEB95E0DF91CF911F910F91089532
:1039D0000F931F93CF93DF93FC0104810093D503D2
:1039E0001091D40341E0602F812F0E941019C5E28D
:1039F000D5E019830A83612F85E090E00E94E93BBE
:103A00006A8186E090E00E94E93B64EF71E080E02B
:103A100090E00E94FB238AEB95E0DF91CF911F910C
:103A20000F910895CF93DF93EC0145E952E061E0F7
:103A300070E080E090E00E943721EC81F0E0EE0F32
:103A4000FF1FEC5DFE4F608171818FE295E00E9467
:103A50000F2664EF71E080E090E00E94FB238C81F0
:103A6000811103C00E94812802C00E9499288AEB1C
:103A700095E0DF91CF910895CF93DF93EC0145E975
:103A800052E061E070E080E090E00E943721EC813C
:103A9000F0E0EE0FFF1FEC5DFE4F608171818FE261
:103AA00095E00E940F2664EF71E080E090E00E94B4
:103AB000FB238C81882319F084EB95E002C08EE90A
:103AC00095E0DF91CF910895CF93DF93EC018C8146
:103AD0008F5F823010F48C8301C01C820E94AC2165
:103AE0002C8130E081E090E040912505442311F0E5
:103AF00080E090E028173907B1F445E952E061E031
:103B000070E080E090E00E943721EC81F0E0EE0F61
:103B1000FF1FEC5DFE4F608171818FE295E0DF91C8
:103B2000CF910C940F26220F331FF901EC5DFE4F4D
:103B30004081518161E070E080E090E0DF91CF91C1
:103B40000C943721CF93DF93EC0181E09091250510
:103B5000911180E08C836BE273E080E090E00E9442
:103B60007C210E94AC2145E952E061E070E080E0F8
:103B700090E00E943721EC81F0E0EE0FFF1FEC5D3A
:103B8000FE4F608171818FE295E0DF91CF910C94BF
:103B90000F26CF93DF93EC018C818F5F833010F47D
:103BA0008C8301C01C820E94AC21EC81F0E0EE0FFE
:103BB000FF1FE25EFE4F4081518161E070E080E0D6
:103BC00090E0DF91CF910C943721EF920F93CF9338
:103BD000DF93EC018C818F5F8C3310F48C8301C0F8
:103BE0001C820E94AC2184E0E82E0C812091D40339
:103BF0004091D3036091D2038091D0039091D1037F
:103C00000E94FF19DF91CF910F91EF900895EF92ED
:103C10000F93CF93DF93EC018C818F5F883110F489
:103C20008C8301C01C820E94AC2183E0E82E0091AD
:103C3000D5032C814091D3036091D2038091D003AE
:103C40009091D1030E94FF19DF91CF910F91EF90D6
:103C50000895EF920F93CF93DF93EC018C818F5FE8
:103C6000803208F081E08C830E94AC21EE24E39442
:103C70000091D5032091D4034C816091D2038091AF
:103C8000D0039091D1030E94FF19DF91CF910F9142
:103C9000EF900895EF920F93CF93DF93EC018C8117
:103CA0008F5F8D3008F081E08C830E94AC21E12C85
:103CB0000091D5032091D4034091D3036C8180916E
:103CC000D0039091D1030E94FF19DF91CF910F9102
:103CD000EF900895CF93DF93EC018C818F5F82305A
:103CE00010F48C8301C01C820E94AC21EC81F0E0B6
:103CF000EE0FFF1FEC5DFE4F4081518161E070E0EF
:103D000080E090E0DF91CF910C943721AF92BF9289
:103D1000CF92DF92EF92FF920F931F93CF93DF9397
:103D200000D000D000D0CDB7DEB7FC0114811093D5
:103D3000D503F090D403B090D303A090D203C090E9
:103D4000D003D090D10384E0E82E012F2F2D4B2DEE
:103D50006A2DC6010E94FF19F0EDCF16F7E0DF06CD
:103D600020F080EDC81A87E0D80AC982AA82BB82F7
:103D7000FC821D831E82CE0101960E94660E64EFB6
:103D800071E080E090E00E94FB2384EB95E02696B2
:103D90000FB6F894DEBF0FBECDBFDF91CF911F915C
:103DA0000F91FF90EF90DF90CF90BF90AF9008956C
:103DB000EF920F931F93CF93DF9300D000D000D0EA
:103DC000CDB7DEB78C0161EC72E080E090E00E943C
:103DD0007C210E94D90D3093D2034093D303822FCC
:103DE00090E09093D1038093D0035093D4036093D9
:103DF000D503F8013483E12C062F252F632F0E9471
:103E0000FF1926960FB6F894DEBF0FBECDBFDF9127
:103E1000CF911F910F91EF900895909141049111CE
:103E2000FCCF91E090934104909340042FEF2093B6
:103E30003F0410923E04260F20933D0490933C04CF
:103E400090913C04880F892B80933C0480913B0423
:103E5000813041F410923B0480913C048093BB007C
:103E600085EC01C085EE8093BC00809141048130D7
:103E7000E1F380913E04861710F460913E04ABE1BB
:103E8000B4E02BEF33E0F9018E2F821B861718F474
:103E90008D918193F9CF862F08958091FF058170D0
:103EA00008958091550680FF30C08E7F809355061F
:103EB000609151067091520680915306909154067C
:103EC000611571058105910501F120E13EE040E0B9
:103ED00050E00E94833880914D0690914E06A0914B
:103EE0004F06B0915006BA01A901480F591F6A1F29
:103EF0007B1F40934D0650934E0660934F06709380
:103F000050068DE090E00C94F73B089580912E06CA
:103F100060E0882341F085E00E94512360E086E064
:103F20000E94512309C080EE95E00E94F20F60E0EC
:103F300083EE95E00E94F20F60E086EE95E00E942D
:103F4000F20F8091FE059091FF058F7B9093FF0506
:103F50008093FE050E943524609313067093140627
:103F60008093150690931606109238061092390623
:103F700010923A0610923B0608952FB7F8940097D6
:103F800039F440E45FE150938B0040938A0004C011
:103F900010928B0010928A009093CE058093CD05ED
:103FA0002FBF0895EF92FF920F931F93CF93DF934C
:103FB000C4E1D0E0A8958FEC95E00E940010882322
:103FC00051F062E370E080E090E00E94FB232197D3
:103FD00089F782E045C081E08093D4051092D30533
:103FE000CDE3D0E08FE2E82E82E8F82E03E312E87A
:103FF0008091D305811112C0219781F085ED95E064
:104000000E94E80FC7010197F1F760E085ED95E0A8
:104010000E94F20FC8010197F1F7EACFC8E2D0E0A1
:10402000A8958FEC95E00E940010882351F062E380
:1040300070E080E090E00E94FB23219789F783E005
:104040000FC068EE73E080E090E00E94840D109253
:10405000D2051092D40581E09091D305911180E0B2
:10406000DF91CF911F910F91FF90EF900895A89548
:104070001092D4051092D3058FEC95E00E940010A9
:10408000882321F081E08093D20508951092D20513
:1040900008952091FA0390915606213208F046C007
:1040A000809141048111FCCF32E03093410431E032
:1040B000309340043FEF30933F0410923E0420932E
:1040C0003D04AAEDB3E04BE154E0FA013E2F341B6E
:1040D000321718F43D913193F9CF10923C0420919E
:1040E0003C04990F922B90933C0490913B049130A7
:1040F00041F410923B0490913C049093BB0095ECEA
:1041000001C095EE9093BC00909141049230E1F390
:1041100090913F049F3F79F080913F04803241F0BD
:1041200080913F04803331F084E005C081E003C01A
:1041300082E001C083E01092D9031092FA0310923A
:10414000D803089591E09093D80380935606109277
:10415000D9031092FA030895CF93DF939091390514
:10416000992311F097E0892780FD03C020EC31E00E
:1041700002C020E831E030933C0520933B0581FFED
:1041800009C020913B0530913C052F7730933C05C9
:1041900020933B0582FF09C080913B0590913C052F
:1041A0009E7F90933C0580933B05D0913B05C09149
:1041B0003C058091380580620E94A22082E10E9425
:1041C000E20E8D2F0E94E20E8C2F0E94E20E0E94C2
:1041D00049208111FCCFDF91CF91089590913D0549
:1041E00090FF02C0811187E090913A0591110C94E3
:1041F000AC200895209126059091280521110AC030
:1042000080912705811106C0911104C08091290574
:10421000882359F081E0291308C020912705909147
:104220002905291302C080E00895089580912A0588
:1042300081110DC080912505882349F00E94FA2044
:10424000882329F060E08FE295E00C944A0F0895EE
:1042500040E150E0BC018EE395E00E94C63B109225
:104260004E056EE375E08FE295E00C940F26CF9338
:10427000DF93EA01462F682F8FE295E00E94540FEA
:10428000BE018FE295E0DF91CF910C940F26EF9263
:10429000FF920F931F93CF93DF937B01482F60E032
:1042A0008FE295E00E94540FF70101900020E9F79A
:1042B0003197CE2FCE19C13108F0C0E1DE2D870134
:1042C000802F8D1B8C1740F4F80161918F018FE2D4
:1042D00095E00E944A0FF4CFC03139F060E28FE2DE
:1042E00095E00E944A0FCF5FF7CFDF91CF911F91EA
:1042F0000F91FF90EF900895CF93DF93EC0140E191
:1043000050E08EE395E00E94C63B10924E056EE3AE
:1043100075E0CE01DF91CF910C944721CF93DF93CD
:10432000EB01BC0180E090E00E947C21BE0181E0B5
:1043300090E0DF91CF910C947C218091FD058295D6
:1043400081700895613208F060E20E940D1F1092A2
:10435000D7038093D6030895CF9341E060E08FE2C6
:1043600095E00E94540FC0E160E28FE295E00E9468
:104370004A0FC150C9F741E060E08FE295E0CF916C
:104380000C94540FCF92DF92EF92FF920F931F93F2
:10439000CF93DF936C017A018B01C0E0D0E0CE15A2
:1043A000DF0589F0D8016D918D01D601ED91FC9169
:1043B0000190F081E02DC6010995892B11F47E0151
:1043C00002C02196ECCFC701DF91CF911F910F91D1
:1043D000FF90EF90DF90CF900895FC01918D828D3A
:1043E000981761F0828DDF01A80FB11D5D968C9149
:1043F000928D9F5F9F73928F90E008958FEF9FEF54
:104400000895FC01918D828D981731F0828DE80F0F
:10441000F11D858D90E008958FEF9FEF0895FC01C9
:10442000918D228D892F90E0805C9F4F821B910996
:104430008F739927089582E494E00E940F2221E06F
:10444000892B09F420E0822F0895FC01848DDF017F
:10445000A80FB11DA35ABF4F2C91848D90E00196F7
:104460008F739927848FA689B7892C93A089B189E6
:104470008C9180648C93938D848D981306C00288F0
:10448000F389E02D80818F7D80830895EF92FF92E4
:104490000F931F93CF93DF93EC0181E0888F9B8D67
:1044A0008C8D981305C0E889F989808185FD24C029
:1044B000F62E0B8D10E00F5F1F4F0F731127E02EAC
:1044C0008C8DE8120CC00FB607FCFACFE889F98989
:1044D000808185FFF5CFCE010E942522F1CF8B8D03
:1044E000FE01E80FF11DE35AFF4FF0820B8FEA89BE
:1044F000FB898081806207C0EE89FF896083E8893B
:10450000F98980818064808381E090E0DF91CF91A0
:104510001F910F91FF90EF900895CF93DF93EC01DF
:10452000888D8823C9F0EA89FB89808185FD05C0D3
:10453000A889B9898C9186FD0FC00FB607FCF5CF0D
:10454000808185FFF2CFA889B9898C9185FFEDCF55
:10455000CE010E942522E7CFDF91CF91089580E020
:1045600090E0892B29F00E941B2281110C940000FD
:1045700008953FB7F8948091620690916306A091E8
:104580006406B091650626B5A89B05C02F3F19F0BB
:104590000196A11DB11D3FBFBA2FA92F982F8827C3
:1045A000820F911DA11DB11DBC01CD0142E0660F1E
:1045B000771F881F991F4A95D1F708950895089588
:1045C0000895FC0110AE128212A20895FC0110AEF3
:1045D000128212A2089582E494E00C94462282E4AE
:1045E00094E00C94ED2182E494E00C940F220E945C
:1045F000F3381F920F920FB60F9211242F933F930F
:104600004F935F936F937F938F939F93AF93BF93DA
:10461000EF93FF9382E494E00E942522FF91EF91B3
:10462000BF91AF919F918F917F916F915F914F91CA
:104630003F912F910F900FBE0F901F9018951F92D2
:104640000F920FB60F9211242F938F939F93EF9396
:10465000FF93E0915204F09153048081E09158045B
:10466000F091590482FD12C0908180915B048F5FAC
:104670008F7320915C04821751F0E0915B04F0E0AD
:10468000EE5BFB4F958F80935B0401C08081FF91AF
:10469000EF919F918F912F910F900FBE0F901F90D0
:1046A000189590E0FC01EB5AFC4F3491FC01EF5659
:1046B000FC4F2491FC01E358FC4FE491EE2309F4F4
:1046C0003BC0332339F1333091F038F43130A9F065
:1046D000323001F584B58F7D12C0373091F038301B
:1046E000A1F03430B9F4809180008F7D03C08091B7
:1046F00080008F77809380000DC084B58F7784BD54
:1047000009C08091B0008F7703C08091B0008F7D89
:104710008093B000F0E0EE0FFF1FE759FC4FA5912A
:10472000B4918FB7F894EC91611103C020952E23BA
:1047300001C02E2B2C938FBF08951F93CF93DF932F
:10474000182FEB010E941526209711F460E004C099
:10475000CF3FD10539F461E0812FDF91CF911F91D7
:104760000C945123E12FF0E0EB5AFC4FE491E3303D
:10477000F9F048F4E130B9F0E230A1F584B5806297
:1047800084BDC8BD34C0E730E9F0E83019F1E43049
:1047900049F580918000806280938000D0938B00E7
:1047A000C0938A0024C084B5806884BDC7BD1FC083
:1047B00080918000806880938000D0938900C093AE
:1047C000880015C08091B00080688093B000C093CD
:1047D000B3000DC08091B00080628093B000C093A0
:1047E000B40005C0C038D1050CF0B5CFAFCFDF9114
:1047F000CF911F9108958F929F92AF92BF92CF92C7
:10480000DF92EF92FF926B017C010E94B9224B0173
:104810005C01C114D104E104F104F1F00E94B92259
:10482000DC01CB0188199909AA09BB09883E93408C
:10483000A105B10570F321E0C21AD108E108F10821
:1048400088EE880E83E0981EA11CB11CC114D1040F
:10485000E104F10419F7DDCFFF90EF90DF90CF90E6
:10486000BF90AF909F908F9008952FB7F89460916C
:104870005E0670915F0680916006909161062FBF81
:1048800008951F920F920FB60F9211242F933F930A
:104890008F939F93AF93BF9380915E0690915F0635
:1048A000A0916006B091610630915D0623E0230F70
:1048B0002D3720F40196A11DB11D05C026E8230F58
:1048C0000296A11DB11D20935D0680935E06909314
:1048D0005F06A0936006B093610680916206909196
:1048E0006306A0916406B09165060196A11DB11DF5
:1048F0008093620690936306A0936406B093650666
:10490000BF91AF919F918F913F912F910F900FBECB
:104910000F901F9018951F920F920FB60F921124AF
:104920002F933F934F935F936F937F938F939F93B7
:10493000AF93BF93EF93FF93E0910201F0910301D6
:104940000995FF91EF91BF91AF919F918F917F91C9
:104950006F915F914F913F912F910F900FBE0F90EC
:104960001F9018951F920F920FB60F9211242F933C
:104970003F934F935F936F937F938F939F93AF93E7
:10498000BF93EF93FF93E0910001F091010109952E
:10499000FF91EF91BF91AF919F918F917F916F9117
:1049A0005F914F913F912F910F900FBE0F901F90ED
:1049B0001895CF93DF93809100061F928F931F92DB
:1049C00084E28F9382E293E09F938F93CEEAD3E0C9
:1049D000DF93CF930E940A3909900020E9F760EE37
:1049E00070E0CE0101970E94BF3B0E9403168DB775
:1049F0009EB708960FB6F8949EBF0FBE8DBFE0918C
:104A0000DF04F091E0040284F385E02D6EEA73E0A8
:104A10008FED94E0DF91CF910994EF92FF921F9375
:104A2000CF93DF9390915706911169C0C091000612
:104A300010910406D0910E062091FE053091FF05DD
:104A400079019AE1E92291E2F922811121C0CC2376
:104A500009F457C0C13019F430FF07C053C0C23049
:104A600011F0C33011F430FF4CC080915C068C1300
:104A70000FC080915B0681130BC080915A068D1385
:104A800007C080915806909159068E159F05C9F16F
:104A90003F932F931F92DF931F921F931F92CF93E9
:104AA0001F9284E28F938DE293E09F938F938EEA1F
:104AB00093E09F938F930E940A390E940316E0911E
:104AC000DF04F091E0040284F385E02D6EEA73E0E8
:104AD0008FED94E00995C0935C0610935B06D0932C
:104AE0005A06F0925906E09258068DB79EB70E9678
:104AF0000FB6F8949EBF0FBE8DBFC0E003C0C2E0EA
:104B000001C0C1E08C2FDF91CF911F91FF90EF90FA
:104B10000895FC0140E050E090E021912223B9F09B
:104B20004130510511F49295907F80ED820F8A30CB
:104B300010F4980F0CC08FEB820F863010F42753BF
:104B400005C08FE9820F863050F42755920F41300F
:104B5000510519F041E050E0E0CF892F089580E041
:104B600008956115710579F0FB0101900020E9F7C6
:104B70003197AF01461B570BDC01ED91FC91028090
:104B8000F381E02D099480E090E008954F925F92C8
:104B90006F927F92EF92FF920F931F93CF93DF93C9
:104BA000CDB7DEB7A1970FB6F894DEBF0FBECDBF6D
:104BB0007C01FA01CB0119A2223008F42AE08E010F
:104BC0000F5D1F4F422E512C612C712CBF01A30190
:104BD00092010E948338F901CA01015011096A301B
:104BE00014F4605D01C0695CD8016C93232B242B05
:104BF000252B61F7B801C7010E94B125A1960FB618
:104C0000F894DEBF0FBECDBFDF91CF911F910F9102
:104C1000FF90EF907F906F905F904F9008950C946D
:104C2000B12582E494E00C94B12590E0FC01EF56AC
:104C3000FC4F2491FC01E358FC4F8491882399F0A8
:104C400090E0880F991FFC01ED58FC4FA591B4919D
:104C5000FC01E759FC4F859194918FB7F894EC9142
:104C6000E22BEC938FBF0895CF93DF93482F50E052
:104C700060E070E02AE082E494E00E94C625EC0146
:104C800064E473E082E494E00E94B1258C0F9D1FE0
:104C9000DF91CF910895811104C08091230688236C
:104CA000D9F060E084E296E00E94F20F87E296E09D
:104CB0000E94E80F6CE271E080E090E00E94FB232C
:104CC00060E084E296E00E94F20F60E087E296E006
:104CD0000E94F20F109223060895CF92DF92EF9276
:104CE000FF92CF93DF930E9435246B017C01C1E0DA
:104CF000D2E0DD2331F089EE95E00E940010882398
:104D000029F1CC23B1F08CEE95E00E9400108111C6
:104D100003C0DD2389F0C0E00E943524DC01CB0113
:104D20008C199D09AE09BF094497A105B10508F387
:104D300004C0D111F1CFD0E0C0E08D2F8C2BDF91DA
:104D4000CF91FF90EF90DF90CF900895CC2399F30F
:104D5000D0E0D9CF811104C08091230681111CC0FD
:104D600084E296E00E94E80F60E087E296E00E940D
:104D7000F20F6CE271E080E090E00E94FB2360E0C3
:104D800084E296E00E94F20F60E087E296E00E94E3
:104D9000F20F81E0809323060895AF92BF92CF92E5
:104DA000DF92EF92FF920F931F93CF93DF937C01DB
:104DB0006B0184E6A82EB12C0FEF13E0C0E0D0E029
:104DC0008EED95E00E94A50DC817D90728F0801731
:104DD000910718F48C0101C0EC0181E0A81AB10818
:104DE00079F78091CD059091CE05029739F10E9417
:104DF0004D1F2091FE053091FF05882311F034608E
:104E000001C03B7F3093FF052093FE052091FE05F6
:104E10003091FF05CB36E3E0DE0748F03E7F32609D
:104E20003093FF052093FE0537FF12C007C03160A5
:104E30003093FF052093FE0537FF0EC0E114F10407
:104E400079F0F70111830083F601D183C08308C094
:104E500080E00E944B26F2CF80E00E94AA26EECF8F
:104E6000DF91CF911F910F91FF90EF90DF90CF9046
:104E7000BF90AF9008950F931F93CF93DF931F922E
:104E8000CDB7DEB7682F88E169830E94A2206981CF
:104E900081EC95E00E94710B0E94492062E088E15C
:104EA0000E940D1F1092D7038093D60381EC95E0EA
:104EB0000E94180B182F002781EC95E00E94180B18
:104EC0009801282BC9010F90DF91CF911F910F916D
:104ED0000895CF93DF9300D000D000D0CDB7DEB7D8
:104EE00080912505882361F10E94FA20882399F199
:104EF0000E94D90D209126058091270590E03CE382
:104F0000239F800D911D1124409128052091290592
:104F100030E07CE3479F200D311D112470E04CE30D
:104F2000549F600D711D11242817390758F4681714
:104F3000790758F02617370768F08617970728F47F
:104F400080E009C068177907D8F381E0621773071A
:104F500010F0F6CF81E026960FB6F894DEBF0FBEB4
:104F6000CDBFDF91CF91089590911905977F9093D0
:104F70001905A0915F05B0916005109749F0ED917A
:104F8000FC9111970280F381E02DCD0109951CC0A1
:104F900081111CC0809100068E5F8230C8F40E948F
:104FA000351780912505882379F00E946927909113
:104FB00000069E3F81F0811110C080912505882355
:104FC00019F081E080932A0580E0089581E008953A
:104FD0000E942416E6CF8111F0CF10922A05F4CF5B
:104FE0001F928F931F9284E28F9387E493E09F93A5
:104FF0008F938EEA93E09F938F930E940A390E94C9
:1050000003168DB79EB708960FB6F8949EBF0FBED5
:105010008DBFE091DF04F091E0040284F385E02D80
:105020006EEA73E08FED94E00994811103C082E58C
:1050300093E002C08FE493E09F938F931F9284E2EA
:105040008F9385E593E09F938F938EEA93E09F93F0
:105050008F930E940A398DB79EB708960FB6F894C1
:105060009EBF0FBE8DBF80910105882361F065E46E
:1050700072E08EEA93E00E94F83861EE74E08EEA06
:1050800093E00E94F838209118052223E1F0EEEA1F
:10509000F3E001900020E9F71F922F931F922AE37B
:1050A0002F932AE533E03F932F93CF0101979F93EE
:1050B0008F930E940A398DB79EB708960FB6F89461
:1050C0009EBF0FBE8DBF0E940316E091DF04F091DA
:1050D000E0040284F385E02D6EEA73E08FED94E046
:1050E000099580911705882359F0E091DF04F0912C
:1050F000E0040084F185E02D6AE08FED94E00994EE
:105100000895CF93DF93C5E2D5E081E0888361E025
:1051100084E090E00E94E93B1D82EDECF5E081A97E
:1051200092A9906192AB81AB81E0DF91CF910C9419
:105130003811CF93DF93C5E2D5E0188260E084E0B8
:1051400090E00E94E93B1D82EDECF5E081A992A977
:105150009F7E92AB81AB81E0DF91CF910C943811AF
:10516000CF93C82F2091FE053091FF052260309328
:10517000FF052093FE0582E00E94381180E00E9426
:105180000D250E940A028091CD059091CE050297CF
:10519000C1F360E070E080E090E00E94CD260E94C4
:1051A0004D1F8111EECFCC2361F310920006809148
:1051B000FE059091FF058D7F9093FF058093FE057E
:1051C000CF910895CF92DF92EF92FF92CF93DF932A
:1051D0006B017C01E0912F05F09130050190F08189
:1051E000E02D6DE28FE295E00995EC01442755270B
:1051F000BA014C195D096E097F092AE08FE295E03A
:105200000E94C6258C0F9D1FDF91CF91FF90EF90DC
:10521000DF90CF900895CF93DF93C82F48E050E000
:105220008EEA93E00E94AB3B80913A058823B1F06F
:10523000C77088E0C89FB0011124606440E08FE22D
:1052400095E00E94010FCEEAD3E069918FE295E0EC
:105250000E944A0F83E0C63BD807B9F7DF91CF9190
:105260000895CF93DF9300D000D000D0CDB7DEB744
:10527000789484B5826084BD84B5816084BD85B531
:10528000826085BD85B5816085BD80916E0081603D
:1052900080936E00109281008091810082608093E3
:1052A00081008091810081608093810080918000E5
:1052B0008160809380008091B10084608093B10010
:1052C0008091B00081608093B00080917A0084600A
:1052D00080937A0080917A00826080937A00809136
:1052E0007A00816080937A0080917A008068809350
:1052F0007A001092C1000FB6F894A89580916000D2
:10530000886180936000109260000FBE60E971E0D8
:1053100080E090E00E94FB23E0915204F09153045E
:1053200082E08083E0914E04F0914F041082E0917E
:105330005004F091510480E1808310925A04E0916E
:105340005604F091570486E08083E0915404F09174
:105350005504808180618083E0915404F09155046C
:10536000808188608083E0915404F09155048081AD
:1053700080688083E0915404F091550480818F7D92
:10538000808386E290E0909354058093530588E0F3
:105390008093550561E070E083E595E00E94BB0DC8
:1053A0001092D7031092D6031092D9031092FA03E9
:1053B0001092410481E08093400410923B0488B134
:1053C000806388B98091B9008E7F8093B900809105
:1053D000B9008D7F8093B9008CE08093B80085E49C
:1053E0008093BC00A89510923D058091380580629D
:1053F0000E94A22080E00E94E20E8FE10E94E20E55
:105400000E944920882339F080913A05823019F4AE
:1054100010923A058CC08091380580620E94A220CB
:105420008CE00E94E20E8FE10E94E20E0E94492071
:10543000882321F080913A05823051F3809138051C
:1054400080620E94A22081E00E94E20E80E00E9421
:10545000E20E0E94492090913A05882311F0923083
:10546000B9F2923019F481E080933A0580913305C6
:1054700088608093330582E080933605109237056B
:1054800010923C0510923B0513E068E38FE295E033
:105490000E94E70E68E18FE295E00E94E70E11504E
:1054A000A1F768E28FE295E00E94E70E68E08FE2E4
:1054B00095E00E94E70E65E070E080E090E00E94D9
:1054C000FB2360913305606240E08FE295E00E942B
:1054D000010F65E070E080E090E00E94FB236091A6
:1054E0003305606240E08FE295E00E94010F65E0C5
:1054F00070E080E090E00E94FB238CE08093340514
:1055000080913A05882331F040E06CE08FE295E02D
:105510000E94010F8FE295E00E94BF0F82E080930E
:10552000350540E066E08FE295E00E94010F809132
:105530003A05882319F087E00E94AC2087E00E949A
:10554000EE2067E171E080E00E940B296FE071E0DE
:1055500081E00E940B2967E071E082E00E940B2944
:105560006FEF70E083E00E940B2967EF70E085E049
:105570000E940B298FE295E00E94BF0F6DEE70E054
:1055800080E090E00E947C2140E150E067EE70E016
:105590008EE395E00E94C63B10924E0541E060E02C
:1055A0008FE295E00E94540F6EE375E08FE295E084
:1055B0000E940F2680EE90E00E9428216CED75E09D
:1055C00080E090E00E94840DA8951092170510923B
:1055D000E1041092010557984F9B03C010922E06CC
:1055E00003C081E080932E0603E210E010932506AD
:1055F0000093240688E08093260662E070E084E24F
:1056000096E00E94BB0D109328060093270680E1C8
:105610008093290662E070E087E296E00E94BB0D6D
:1056200081E00E944B26109200061092010682E053
:1056300090E00E94E33B8C018F3F2FEF920751F0E7
:1056400090FF08C080913D05816080933D0581E019
:105650000E94381185E290E00E94D53BF82E80939D
:10566000FA0586E290E00E94D53B8093FB058FEF20
:105670008F0D8E3F30F089E18093FA058BE48093A3
:10568000FB0568E272E082E494E00E940F268091BC
:10569000FA050E94342668E372E082E494E00E94F6
:1056A0000F268091FB050E94342680912E068823C8
:1056B00039F085E00E94152686E00E9415261EC05E
:1056C00083E290E09093E1058093E00581E0809390
:1056D000E20562E070E080EE95E00E94BB0D89E299
:1056E00090E09093E4058093E30580E88093E505DE
:1056F00062E070E083EE95E00E94BB0D83E290E0F3
:105700009093E7058093E60582E08093E80562E0E8
:1057100070E086EE95E00E94BB0D89E2E82EF12C48
:10572000F092EA05E092E90588E08093EB0561E0FC
:1057300070E089EE95E00E94BB0DF092ED05E092DD
:10574000EC0580E18093EE0561E070E08CEE95E081
:105750000E94BB0DD0902E06F092D005E092CF05AE
:1057600084E08093D10560E070E08FEC95E00E94CA
:10577000BB0D88E39DE0909301018093000180912F
:105780006900836080936900E89A86E08D83DD205C
:1057900021F01D8283E290E002C089E290E02D8139
:1057A0009093D6058093D50581E001C0880F2A9596
:1057B000EAF78093D70562E070E085ED95E00E94FE
:1057C000BB0D0E9437200E94861F1092800080E44B
:1057D0009FE1909387008093860081E18093810010
:1057E000229A8091800080628093800080E090E027
:1057F0000E94BD1F0F3F3FEF130729F41092FD05D4
:105800001092FC0509C01093FD050093FC0500FDF6
:1058100003C0FF24F39402C002E0F02E0E949D21F9
:10582000882369F08091FC059091FD0585FD07C0F6
:1058300080629093FD058093FC0512E0F12E8BE0D1
:1058400090E00E94E33B8C0190933D0680933C06E0
:1058500089E090E00E94E33B90933F0680933E06F0
:105860000F3F1F4F21F410923D0610923C06019607
:1058700031F48CED90E090933F0680933E061092B9
:1058800034061092350610923606109237061092A2
:1058900038061092390610923A0610923B06109282
:1058A0002A0610922B0610922C0610922D0680E0EC
:1058B00092E09093FF058093FE058FEF91E00E94A8
:1058C000D53B80930D0681508E3F18F080E5809384
:1058D0000D061092DC0581E190E00E94D53B80939B
:1058E000DD051092F30582E190E00E94D53B8093A4
:1058F000F4051092F5051092F6051092F705109236
:10590000F80583E190E00E94D53B8093F905109261
:10591000EF051092F0051092F1051092F20581E06A
:105920000E940D258091FC059091FD058E71967069
:10593000892BD1F183E00E94EE208091FC0581FF4C
:1059400004C086EA91E00E94D0188091FC0582FF95
:1059500004C085E991E00E94D0188091FC0583FF86
:1059600004C088E891E00E94D0188091FC0584FF73
:1059700004C088E791E00E94D0188091FC059091C6
:10598000FD0591FF04C08AE691E00E94D018809145
:10599000FC059091FD0592FF04C08AE591E00E940C
:1059A000D01887E00E94EE20A89580E090E00E9449
:1059B000BD1F67E471E081E591E00E948E21809136
:1059C000FC0585FDEAC066E970E080E090E00E9499
:1059D000FB238EED95E00E94A50D8C0182E090E006
:1059E0000E94BD1F0B36134008F4CCC00E946D26E8
:1059F000182F80912E06882329F061E085E00E940F
:105A0000512304C080EE95E00E94E80F86EE95E0F9
:105A10000E94E80F6AEF70E080E090E00E94FB23B4
:105A20000E946D26E82E80912E0660E0882321F0EA
:105A300085E00E94512304C080EE95E00E94F20FA1
:105A400060E086EE95E00E94F20F6AEF70E080E081
:105A500090E00E94FB2380912E06882329F061E0CC
:105A600086E00E94512304C083EE95E00E94E80F77
:105A70006AEF70E080E090E00E94FB230E946D26B8
:105A8000082F80912E0660E0882321F086E00E9496
:105A9000512304C083EE95E00E94F20F6AEF70E09C
:105AA00080E090E00E94FB231330C1F582E08E1568
:105AB00030F08091FC0591E0E91628F020C0A3E0C9
:105AC000EA1661F0EFC2033011F412E001C010E0F9
:105AD00084FD2CC0033009F0E3C228C08091FC058E
