:100000000C94BD010C94D2270C94AB270C94F101F5
:100010000C94F1010C94F1010C94F1010C94F10198
:100020000C94F1010C94F1010C94F1010C94F10188
:100030000C94F1010C94F1010C94F1010C94F10178
:100040000C9461270C94F1010C94E9260C94C326BE
:100050000C94F1010C94F1010C94F1010C94F10158
:100060000C94F8080C94F101EB0AC70D000E110E68
:10007000D910D910D910D910D910D910D910D91038
:10008000D910D910D910D910D9101F0ED910410E7E
:10009000790E8D0E9E0EB20ED60ED910D910E40E2A
:1000A000F90ED910D910D910D910D9101F0FD910A5
:1000B000330FD9108F0FBD0FD910D910C90FD91018
:1000C000D910D910D910D910D910D910D910D910E8
:1000D000D910D910D910D910DF0FD910EC0FD910C1
:1000E000FB0F0E1020103410D910D910D910D910D0
:1000F000D910D910D9103710D910D9104C10671059
:100100009610C11044342E362E30005665722E20C3
:10011000004F70656E204556534500000E0C1F03BE
:10012000060C0800080C0E0C08000000000E0E0E55
:10013000000000000E1517110E0000537663204CCE
:100140006576656C3A204C3200537663204C6576B8
:10015000656C3A204C31004175746F2044657465BC
:1001600063740053656C66205465737400506F7738
:100170006572204F6E004578697400332E302E3141
:1001800000544553542044495341424C4544005285
:100190006573657474696E672E2E2E0020202020F2
:1001A000304100536C656570696E6700474643498E
:1001B0000054455354204641494C4544004469731A
:1001C00061626C656400535455434B2052454C4169
:1001D00059004E4F2047524F554E44004F564552FE
:1001E0002054454D504552415455524500474643D1
:1001F00049204641554C54005345525649434520E9
:1002000052455155495245440044494F44452043C5
:100210004845434B0056454E54205245515549528E
:1002200045440045565345204552524F52004368BD
:10023000617267696E6700436F6E6E6563746564B3
:10024000005265616479001F1C1F1E1F1E1F1F1EA8
:100250001F1E1F53657475700053657474696E6753
:10026000730054696D65204C696D69740043686161
:10027000726765204C696D69740044656C61792012
:1002800054696D657200446174652F54696D650031
:100290005265737461727400537475636B20526598
:1002A0006C61792043686B0047726F756E64204300
:1002B0006865636B0056656E742052657127642013
:1002C000436865636B0054656D7065726174757227
:1002D000652043686B004746492053656C6620548F
:1002E000657374004261636B6C696768742054794C
:1002F00070650044696F646520436865636B004DF9
:1003000061782043757272656E7400536572766908
:100310006365204C6576656C005965617200486FB5
:100320007572004D696E7574650053746172742046
:10033000486F75720053746F7020486F7572005368
:1003400074617274204D696E0053746F70204D6932
:100350006E0052657374617274204E6F770053653E
:100360007420446174652F54696D653F004D6F6E54
:1003700074680044617900007F3411241FBECFEF00
:10038000D8E0DEBFCDBF14BE0FB6F894A89580911B
:100390006000886180936000109260000FBE13E0DF
:1003A000A0E0B1E0ECEDF4E702C005900D92A03BB7
:1003B000B107D9F726E0A0EBB3E001C01D92A33E40
:1003C000B207E1F711E0CDEBD1E004C02197FE01C7
:1003D0000E94EC36CC3BD107C9F70E9467290C94E8
:1003E0006C3A0C940000DC011496EC91149715966D
:1003F0008C911597E81740F4F0E0EE0FFF1FE45AD8
:10040000FE4F80819181089514961C9280E090E0C7
:1004100008950895E091370480913604E81730F488
:10042000F0E0E55AFB4F808190E008958FEF9FEF59
:1004300008959091370480913604981750F4E92F6D
:10044000F0E0E55AFB4F208130E09F5F9093370446
:1004500002C02FEF3FEFC90108958091360490E06C
:1004600020913704821B91090895CF92DF92EF9279
:10047000FF920F931F93CF93DF937C018A018091AA
:100480003804882389F0EB016B01C40ED51ECC150E
:10049000DD05F1F06991D701ED91FC910190F081BA
:1004A000E02DC7010995F3CF842F413288F4909154
:1004B000A104943069F440930B04FB012BEE33E06C
:1004C000D9019A2F921B981718F491919D93F9CF07
:1004D000C801DF91CF911F910F91FF90EF90DF90B6
:1004E000CF900895209138042223C9F020915A0416
:1004F000203240F021E030E0FC013383228380E0B1
:1005000090E0089580913904E82FF0E0E65CFB4F1D
:1005100060838F5F8093390480935A0409C080916F
:10052000A104843029F481E080930B046093EB03F1
:1005300081E090E0089585ED8093BC008091BC003F
:1005400084FDFCCF1092A1040895CF93DF93EC01BA
:100550008091900680FD40C086E08D8380E18E838F
:100560008CE992E09F938F9382EA92E09F938F931E
:1005700084E194E09F938F930E942B3764E174E0B1
:1005800080E090E00E94B11B9091AB069C838D812E
:100590000F900F900F900F900F900F90981708F4F6
:1005A0008C838C811F928F9381EB92E09F938F932A
:1005B00084E194E09F938F930E942B370F900F90CC
:1005C0000F900F900F900F9064E174E081E090E045
:1005D000DF91CF910C94B11B8AE08D8380E58E83EF
:1005E0008FE992E0BFCFCF93DF93EC016A817B81EB
:1005F00080E090E00E94E61BE0919106E695E170B4
:10060000EC83F0E0EE0FFF1FE856FD4F81818F93E2
:1006100080818F9386EB92E09F938F9384E194E0A7
:100620009F938F930E942B370F900F900F900F90F6
:100630000F900F9064E174E081E090E0DF91CF9142
:100640000C94B11BCF93DF93EC016A817B8180E036
:1006500090E00E94E61BE0919006F0919106F695DD
:10066000E795E170EC83F0E0EE0FFF1FE856FD4FD9
:1006700081818F9380818F9386EB92E09F938F93FC
:1006800084E194E09F938F930E942B370F900F90FB
:100690000F900F900F900F9064E174E081E090E074
:1006A000DF91CF910C94B11BCF93DF93EC016A8162
:1006B0007B8180E090E00E94E61BE1E08091C9052B
:1006C000813009F4E0E0EC83F0E0EE0FFF1FE45F1F
:1006D000FE4F81818F9380818F9386EB92E09F9371
:1006E0008F9384E194E09F938F930E942B370F9018
:1006F0000F900F900F900F900F9064E174E081E0E5
:1007000090E0DF91CF910C94B11BFC0184818F5F4D
:1007100084839581981708F41482E481E91758F4CA
:10072000F0E0EE0FFF1FE45AFE4F0190F081E02D44
:100730006281738102C066E771E081E090E00C9411
:10074000E61BFC0114826281738180E090E00E94CC
:10075000E61B60910D0670910E0681E090E00C940E
:10076000E61BCF93DF93DC0114968C9114978F5F77
:1007700014968C93149715969C911597981718F4C6
:1007800014961C92149716968C9116971496EC91C9
:1007900014978823A1F0CE2FD0E0CC0FDD1FC458D2
:1007A000DE4F2881398145E02F3C340729F4EF5F83
:1007B0001496EC931497EACF2A5C3540C1F3E917FD
:1007C00058F4F0E0EE0FFF1FE458FE4F0190F08167
:1007D000E02D6281738102C066E771E081E090E004
:1007E000DF91CF910C94E61BCF93DF93EC011C8239
:1007F0009E81992399F08C81E82FF0E0EE0FFF1F86
:10080000E458FE4F2081318145E02F3C340719F434
:100810008F5F8C83EECF2A5C3540D1F36A817B8178
:1008200080E090E00E94E61BEC81F0E0EE0FFF1FFD
:10083000E458FE4F0190F081E02D6281738181E0E8
:1008400090E0DF91CF910C94E61BCF93DF93EC0106
:100850006A817B8180E090E00E94E61B8091900697
:1008600085FD02C01C8206C080FD02C081E001C07F
:1008700082E08C830E94111C4AEB52E061E070E040
:1008800080E090E00E94A11BEC81F0E0EE0FFF1FE2
:10089000E05FFE4F6081718187E995E0DF91CF9144
:1008A0000C948D28CF93DF93EC014AEB52E061E08A
:1008B00070E080E090E00E94A11B6C8170E080E01D
:1008C00090E00E94C42864EB72E087E995E00E9402
:1008D0008D2864EF71E080E090E00E941B276C811E
:1008E0008091900680FD02C021E001C022E081E0FD
:1008F00090E0213011F480E090E00E940A3A40E05C
:1009000060E08C810E94981684E496E0DF91CF919C
:100910000895CF93DF93EC014AEB52E061E070E081
:1009200080E090E00E94A11BEC81F0E0EE0FFF1F41
:10093000E45FFE4F6081718187E995E00E948D2818
:1009400081E09C81911180E00E94771781E09C8179
:10095000911180E08093C90584E496E0DF91CF9106
:10096000089580916406882321F081E080936306D6
:100970000895809192068068809392060E945C1A86
:1009800080E090E00E948D1A81E0809362060895D5
:10099000BF92CF92DF92EF92FF920F931F93CF936C
:1009A000DF93B42E10923504C5E3D4E02AE0C22EC2
:1009B000D12CE12CF12C8E01A70196010E94CA36A0
:1009C000605D6A93B901CA016115710581059105E0
:1009D00099F73C2F301B3B0D131674F3CE01DF91BA
:1009E000CF911F910F91FF90EF90DF90CF90BF902C
:1009F0000895FC0180818770806480937C008091E1
:100A00007A00806480937A0080917A0086FDFCCF22
:100A1000809178002091790090E0922B0895DC017C
:100A20006115710561F0ED91FC91119712969C9101
:100A300012976130710569F48281982B9283ED9150
:100A4000FC911197918112968C91809589238183D5
:100A500008958181982B91830895CF92DF92EF9230
:100A6000FF920F931F930E945527C090E303D090ED
:100A7000E403E090E503F090E6038B019C010C1980
:100A80001D092E093F098091E7039091E803A09189
:100A9000E903B091EA03083E134021053105D0F087
:100AA0000196A11DB11D8093E7039093E803A093E5
:100AB000E903B093EA03B701A60148515C4F6F4FB9
:100AC0007F4F4093E3035093E4036093E5037093F7
:100AD000E603C9CF4091DF035091E0036091E10349
:100AE0007091E20384179507A607B70708F441C081
:100AF000E091DD03F091DE033097D9F1099561159E
:100B000071058105910539F16093E7037093E8035E
:100B10008093E9039093EA03DC01CB01845D9E4F4F
:100B2000AF4FBF4F8093DF039093E003A093E103A7
:100B3000B093E20382E090E09093DC038093DB03C8
:100B40000E9455276093E3037093E4038093E503C9
:100B50009093E6030EC081E090E02091DB0330919A
:100B6000DC03232B11F480E090E09093DC0380936E
:100B7000DB036091E7037091E8038091E9039091B2
:100B8000EA031F910F91FF90EF90DF90CF900895AF
:100B90001F93CF93DF93CDB7DEB72B970FB6F894A3
:100BA000DEBF0FBECDBF88E60E94F41960E081E58C
:100BB00096E00E9472020E949B1967E070E088E64E
:100BC00090E00E94071C81E596E00E9419028F7751
:100BD000982F92959F701AEF782F919F700D112486
:100BE00081E596E07B870E9419029C01332794E0FF
:100BF000359527959A95E1F7682F129F600D11247E
:100C000081E596E06A870E9419029C01332744E03F
:100C1000359527954A95E1F7582F129F500D1124CD
:100C200081E596E059870E94190281E596E00E94CD
:100C300019029C01332754E0359527955A95E1F721
:100C4000482F129F400D112481E596E048870E94AD
:100C500019029C01332764E0359527956A95E1F7E1
:100C6000382F129F300D112481E596E03F830E94BA
:100C70001902FC01FF2774E0F595E7957A95E1F7F5
:100C8000282F1E9F200D11243F81488559856A8594
:100C90007B8580E090E02B960FB6F894DEBF0FBE08
:100CA000CDBFDF91CF911F9108950F931F93CF93E5
:100CB0008C0188E60E94F41960E081E596E00E94CC
:100CC0007202F8012581CAE0822F6C2F0E949636AD
:100CD000682F660F860F682F660F620F81E596E01A
:100CE0000E947202F8012481822F6C2F0E94963696
:100CF000682F660F860F682F660F620F81E596E0FA
:100D00000E947202F8012381822F6C2F0E94963676
:100D1000682F660F860F682F660F620F81E596E0D9
:100D20000E94720260E081E596E00E947202F80182
:100D30002281822F6C2F0E949636682F660F860FB5
:100D4000682F660F620F81E596E00E947202F8013B
:100D50002181822F6C2F0E949636682F660F860F96
:100D6000682F660F620F81E596E00E947202F8011B
:100D70002081822F6C2F0E949636682F660F860F77
:100D8000682F660F620F81E596E00E94720260E0B4
:100D900081E596E00E947202CF911F910F910C9411
:100DA0009B19682F81E596E00C947202CF93DF9334
:100DB0001F92CDB7DEB7FC018185806269830E94F6
:100DC000F41983E10E94D1066981862F0E94D10621
:100DD0000E949B198111FCCF0F90DF91CF91089554
:100DE000FF920F931F93CF93DF9300D0CDB7DEB761
:100DF0008C01F62EFC01958564FD9061F5FC9860F0
:100E0000F6FC9460F7FC9260292F442311F0206ACD
:100E100001C02062622FC80129834A830E94D6063E
:100E20002981622F6F7DC8010E94D606F801958541
:100E30004A81F0FC9061F1FC9860F2FC9460F3FC54
:100E40009260292F442311F0206A01C02062622F92
:100E5000C80129830E94D6062981622F6F7DC801AF
:100E60000F900F90DF91CF911F910F91FF900C94F5
:100E7000D606FC012385222319F041E00E94F006EA
:100E800081E090E00895CF93DF93CDB7DEB7289748
:100E90000FB6F894DEBF0FBECDBF9C01FC01838569
:100EA000882321F188E0E4E0F1E0DE011196019071
:100EB0000D928A95E1F7F9018781841710F44FEFBD
:100EC000480FFE013196E40FF11DE40FF11D9081F2
:100ED000690F606840E0C90128960FB6F894DEBF3C
:100EE0000FBECDBFDF91CF910C94F00628960FB6C0
:100EF000F894DEBF0FBECDBFDF91CF910895CF93A1
:100F0000DF93EC018C818F5F823010F48C8301C001
:100F10001C820E94111C41E060E087E995E00E947C
:100F20004307909190068C8191FD03C0882319F0AE
:100F300008C0882331F06AEB72E087E995E00E94EF
:100F40008D28EC81F0E0EE0FFF1FE856FD4F608129
:100F5000718187E995E0DF91CF910C948D28CF9333
:100F6000DF93EC01909190068C8190FD02C08F5F21
:100F700003C08E34E0F78E5F8C839C818E8189174D
:100F800010F48D818C830E94111C41E060E087E9A0
:100F900095E00E9443079091AB068C81981306C0A0
:100FA0006AEB72E087E995E00E948D286C8170E021
:100FB00080E090E00E94C42864EB72E087E995E04D
:100FC000DF91CF910C948D28CF93DF93EC018C812E
:100FD0008F5F833010F48C8301C01C820E94111C2F
:100FE00041E060E087E995E00E9443078091900628
:100FF00080FD02C021E001C022E030E08C8190E061
:1010000001962817390731F46AEB72E087E995E019
:101010000E948D28EC81F0E0EE0FFF1FE05FFE4F95
:101020006081718187E995E0DF91CF910C948D28E3
:10103000CF93DF93EC018C818F5F823010F48C832F
:1010400001C01C820E94111C41E060E087E995E02C
:101050000E9443076AEB72E087E995E00E948D28C1
:10106000EC81F0E0EE0FFF1FE45FFE4F60817181C5
:1010700087E995E0DF91CF910C948D28FC012385C1
:10108000222341F040E061E00E94F0068BE39FE103
:101090000197F1F70895DC011496EC9114971596D9
:1010A0008C91E81740F4F0E0EE0FFF1FE458FE4F7C
:1010B00080819181089587E995E00E943E0880E053
:1010C00090E00895BC0182E090E00C94203ACF9328
:1010D000DF93EC014AEB52E061E070E080E090E0E9
:1010E0000E94A11BEC81F0E0EE0FFF1FE856FD4FC0
:1010F0006081718187E995E00E948D282C81809123
:10110000900690919106211102C08D7F01C08260EE
:10111000909391068093900680919006909191060D
:101120000E94620864EF71E080E090E00E941B275B
:1011300084E496E0DF91CF910895CF93DF93EC01A3
:101140008C81811107C02091900630919106C901D0
:101150008F7D09C060E00E940B17209190063091AE
:101160009106C901806290939106809390060E9437
:1011700062084AEB52E061E070E080E090E00E949B
:10118000A11BEC81F0E0EE0FFF1FE05FFE4F6081DE
:10119000718187E995E00E948D2860919006709199
:1011A000910682E090E00E94203A64EF71E080E0D6
:1011B00090E00E941B2784E496E0DF91CF91089590
:1011C000DC01ED91FC911197928112968C91892B03
:1011D0008283089561110C94E008DC01ED91FC918B
:1011E0001197228112968C91809582238283089593
:1011F0001F920F920FB60F9211242F933F934F938C
:101200005F936F937F938F939F93AF93BF93EF936E
:10121000FF938091B900887F803609F49CC068F5FF
:10122000883209F45BC090F4803109F454C038F47A
:10123000882309F4F3C0883009F44DC0F3C0883125
:1012400009F44CC0803209F45DC0ECC0803409F46C
:1012500068C048F4803309F455C0883309F0E2C00F
:1012600080939F04D5C0803509F44FC0883509F4B8
:101270005DC0883409F0D6C0D3C0883909F4C4C031
:10128000A8F4883709F467C038F4883609F463C0D5
:10129000803709F460C0C6C0883809F4B5C0803909
:1012A00009F45FC0803809F0BDC05BC0803B09F421
:1012B00083C038F4803A09F466C0883A09F47CC0E7
:1012C000B1C0803C09F4A4C0883C09F4A1C0883BAB
:1012D00009F487C0A7C080919C0410C090919E041F
:1012E00080919D04981770F5E0919E0481E08E0F27
:1012F00080939E04F0E0E558FB4F80818093BB0013
:1013000085EC83C080939F048BC0E0919E0481E0B4
:101310008E0F80939E048091BB00F0E0E558FB4F58
:10132000808390919E0480919D046BC0E0919E0407
:1013300081E08E0F80939E048091BB00F0E0E55821
:10134000FB4F80838091A00481116AC081E080936B
:101350009B0484EA5EC083E08093A1041092DA03C8
:10136000CFCF8091DA03803208F04EC0E091DA03EB
:1013700081E08E0F8093DA038091BB00F0E0E654A9
:10138000FC4F8083BDCF8091DA03803230F4E0914E
:10139000DA03F0E0E654FC4F10820E949B02609159
:1013A000DA0370E0E091B803F091B9038AEB93E0BF
:1013B00009951092DA032CC084E08093A104109266
:1013C000B70310920B04E091B503F091B6030995B1
:1013D00080910B04811105C081E080930B04109271
:1013E000EB03E091B70381E08E0F8093B703F0E049
:1013F000E551FC4F80818093BB009091B7038091B1
:101400000B04981708F47CCF85E88093BC000AC0D1
:1014100085EC8093BC001092A10404C010929F043C
:101420000E949B02FF91EF91BF91AF919F918F918D
:101430007F916F915F914F913F912F910F900FBED0
:101440000F901F9018952F923F927F928F929F92AC
:10145000AF92BF92CF92DF92EF92FF920F931F93C2
:10146000CF93DF93CDB7DEB728970FB6F894DEBFE2
:101470000FBECDBFE0913F05F09140050190F08196
:10148000E02D8FE395E009956C01892B31F5A89546
:1014900080919E06845001E0873008F000E0809142
:1014A000A205882309F4B5C08091A00580620E943E
:1014B000F41982E10E94D1060E949B198091A00537
:1014C000806261E070E090E00E94071C81E596E098
:1014D0000E94190280958F719CC0E12CF12C0FE0C5
:1014E00013E060EE262E62E0362EEC14FD047CF64E
:1014F000E0913F05F09140050280F381E02D8FE3FC
:1015000095E00995482F80917705882369F0E0914F
:101510003F05F09140050084F185E02D642F8FE3B5
:1015200095E04F8309954F81443231F44093410552
:1015300081E08093610569C090914105943209F082
:1015400064C02091610520320CF05BC081E0820F05
:10155000022E000C330B80936105F901E15CFA4F18
:101560004D30B9F5128222E435E0309363052093C3
:10157000620581E0809376058091420524E2280F80
:10158000B82EB926E3E4F5E03081332309F45DC2D7
:10159000CF010196303299F4205EB3261082A091DB
:1015A000760531E03A0F30937605FC01AA0FBB0BAC
:1015B000A15CBA4F94969C938E939397E5CF3A3261
:1015C00009F436C23E3509F45DC6230FFC01B3268B
:1015D000DBCF42831AC080917605823009F0E9C5DD
:1015E000E0916405F091650581E09081903309F404
:1015F00080E00E9477179C01809161058F3F09F080
:10160000DBC510924105109261053FEFE31AF30A22
:101610006CCF982F917080FD12C08091BE058230F2
:1016200071F44091BF055091C0056091C105709162
:10163000C205452B462B472B11F41092BE05109185
:10164000BE05112381F0113009F055C04091BF054E
:101650005091C0056091C1057091C205452B462B84
:10166000472BF1F5FDC59923E9F18091BF059091D4
:10167000C005A091C105B091C205892B8A2B8B2B87
:1016800051F40E9455276093BF057093C005809365
:10169000C1059093C2050E945527C090BF05D09008
:1016A000C005E090C105F090C205DC01CB018C19AA
:1016B0009D09AE09BF092091BE05211106C0C29740
:1016C000A105B10538F181E008C0213019F5843F4A
:1016D0009140A105B105F0F082E08093BE051AC0EB
:1016E0009111D9CF1092BF051092C0051092C1057B
:1016F0001092C2050FC0992399F18091C305909172
:10170000C405A091C505B091C605892B8A2B8B2BEA
:1017100009F062C51091BE05113011F58091BF0529
:101720009091C005A091C105B091C205892B8A2B6B
:101730008B2B09F0C7C01092BE058091C705909110
:10174000C805009711F0DC0168C0011129C0809123
:101750009E068E5F823008F468C10E944B16B2C0AC
:10176000123009F0AFC08091BF059091C005A091E3
:10177000C105B091C2050097A105B10509F4A2C049
:101780008093C3059093C405A093C505B093C60587
:101790001092BF051092C0051092C1051092C205AB
:1017A0008091C7059091C805009709F45CC0DC01E1
:1017B000ED91FC910480F581E02D09959093C80589
:1017C0008093C705009779F1B6E08A349B0721F032
:1017D000E6E084349E0721F4DC0114961C9101C0DC
:1017E00010E0DC01ED91FC910190F081E02D099574
:1017F0008091C7059091C805B6E08A349B0729F00F
:10180000E6E084349E0709F05DC0112309F45AC054
:101810001150DC0114961C931497ED91FC910280F9
:10182000F381E02D4EC0002319F00E9448174AC0F2
:1018300080918605811102C00E94061B8091A5053A
:10184000982F9F7B2091C905213011F48E7B02C017
:10185000892F81608093A50581E00E945A1181E063
:101860000E945A112FC080919E06825091E08230D2
:1018700008F490E0909350068091A50580958170C2
:101880008093C90587E00E945C1B8091A505806458
:101890008093A505002319F084E496E004C00E941B
:1018A0004B168AE496E09093C8058093C705809113
:1018B000C7059091C805DC01ED91FC910190F08184
:1018C000E02D09950E9455276B017C0180917A05D6
:1018D00090917B05A0917C05B0917D05A7019601B3
:1018E000281B390B4A0B5B0BDA01C901883E934078
:1018F000A105B10508F4C8C483E00E94231A80FD45
:101900000EC0DC012DE231E341E050E00E94FD36E3
:1019100020E432E44FE050E00E94CA3602C020E0EA
:1019200030E0309385052093840580917E058823DF
:10193000A9F085E00E9427189C013F7194FD306F4B
:101940004AE0429FC001439F900D112497FD0F96DE
:1019500054E0959587955A95E1F702C080E090E0B4
:10196000909381058093800588E60E94F4196EE0CB
:1019700081E596E00E94720260E281E596E00E94B5
:1019800072020E949B1988E60E94F41961E181E5C8
:1019900096E00E9472020E949B1962E070E088E665
:1019A00090E00E94071C81E596E00E9419028C01DC
:1019B00081E596E00E941902992736E09595879572
:1019C0003A95E1F71127000F111F000F111F802B0F
:1019D000912B8F3F43E0940729F4109283051092D6
:1019E00082051AC091FD9E6F9093830580938205B6
:1019F00020918205309183054AE0429FC001439FB8
:101A0000900D112497FD039695958795959587954B
:101A10009093830580938205C0927A05D0927B05CE
:101A2000E0927C05F0927D052FC40E94061B4ACFF0
:101A300031E010822F8338870E94502838852F810B
:101A4000313009F010C4821311C410927805B0909F
:101A50007605EB2DEE0FFF0BE35CFA4F83A194A10B
:101A600051E05B1564F4DC012C912A3341F40196BA
:101A70000E94502880937805BA94B092760510920F
:101A80006105E0916205F09163058081873409F476
:101A900064C2833509F46BC0863409F08AC381813E
:101AA000853409F443C02CF4823409F1843449F1BB
:101AB00080C3823509F455C0833509F455C080359B
:101AC00009F077C380916405909165050E942B28E9
:101AD0004B015C0180916605909167050E942B285F
:101AE000AAE6B5E044E050E0E0E27E2E22C080911C
:101AF0006405909165050E942B28862F0E945C1B2F
:101B000055C380919E068F3F09F450C382E090E058
:101B10000E948D1A8FEF80939E060E945C1A81E0CE
:101B20000E945A1181E00E94F92740C30E94061BBF
:101B30003DC3FA014F5F5F4F20917605022E000CE6
:101B4000330BE217F3072CF4ED91FD91319770827E
:101B5000F0CF4091680550916905C4010E94A11B16
:101B600025C30E94481722C30E944B161FC3E18160
:101B70008E2FEE0F990BAA0BBB0BFC01F097E732EF
:101B8000F10508F016C3EC5CFF4F0C94EC36809125
:101B90007605873009F00DC380916E0590916F0531
:101BA0000E942B28B62E80916C0590916D050E94A5
:101BB0002B28A62E80916A0590916B050E942B28F8
:101BC000962E80916805909169050E942B28862E9B
:101BD00080916605909167050E942B28762E809152
:101BE0006405909165050E942B2869837A828B8217
:101BF0009C82AD82BE82CE0101960E945506D6C25D
:101C000080917605823009F0D4C2E0916405F091AC
:101C10006505908180919206913309F0D4C280616C
:101C2000D3C280917605823009F0C3C280916405E9
:101C3000909165050E942B286093C406B7C28091DD
:101C40007605833009F0B5C28091640590916505F1
:101C50000E942B287093D0066093CF0689E090E015
:101C60000E94203A80916605909167050E942B287A
:101C70007093CE066093CD068BE090E00E94203AF0
:101C800095C2809176059EEF980F923008F091C230
:101C9000833009F09CC2E0916605F09167058EE4FF
:101CA000808341E080916405909165054F830E9497
:101CB0002B28862F4F8161E00E9498169C0180910D
:101CC000AB061F928F931F930F9381E495E09F9330
:101CD0008F932F8338870E942B3781E08093610593
:101CE0000F900F900F900F900F900F902F813885CD
:101CF00083CC80917605823009F05BC2E091640567
:101D0000F091650520818091900690919106203395
:101D100011F08D7F17C1826015C1809176058230E8
:101D200009F047C2E0916405F091650581E090817A
:101D3000903309F480E08093770538C2809176056E
:101D4000823009F036C2E0916405F091650520818A
:101D50008091900690919106203311F09D7FF2C002
:101D60009260F0C080917605823009F022C2E09145
:101D70006405F0916505208180919006909191060F
:101D8000203311F0877FDEC01092860610928706FE
:101D9000109288061092890610928206109283068D
:101DA00010928406109285068860CCC080917605DA
:101DB000823009F0FEC180916405909165050E9412
:101DC0002B286093D106F2C180916405909165053E
:101DD0000E942B28AB01BC0140930C0450930D04CE
:101DE00060930E0470930F048DE090E00E94183A07
:101DF000DDC180917605823009F0DBC1E091640598
:101E0000F0916505808181330CF4D3C183334CF0AC
:101E1000813409F0CEC180919006909191068F7D1A
:101E200009C061E080530E940B1780919006909149
:101E30009106806290939106809390068BC080916A
:101E40007605823009F0B5C1E0916405F091650531
:101E500020818091900690919106203311F08F7E21
:101E600071C080616FC080917605853009F0A1C195
:101E7000A0906405B0906505F5012081809166050C
:101E8000909167052033A9F4DC012C91203389F46B
:101E9000E0916805F09169052081203351F4E091CB
:101EA0006A05F0916B052081203319F40E94932874
:101EB0007DC10E942B28962EC5010E942B2860937D
:101EC00087059092880585E090E00E940A3A60912B
:101ED000880586E090E00E940A3A0E9437178091B8
:101EE0006A0590916B050E942B28B62E809168059B
:101EF000909169050E942B2860938905B0928A050C
:101F000087E090E00E940A3A60918A0588E090E0BC
:101F10000E940A3A0E9437170E944C1947C18091CB
:101F20007605823009F045C1E0916405F0916505C0
:101F300020818091900690919106203311F08B7F43
:101F400001C08460909391068093900680919006E2
:101F5000909191060E94620829C1E1818E2FEE0FB7
:101F6000990BAA0BBB0BFC01F097E732F10508F0C7
:101F700020C1E55AFF4F0C94EC3680915D0690919C
:101F80005E06029721F080919306817004C082E082
:101F900002C08091C4061F928F931F930F9381E418
:101FA00095E09F938F930E942B3781E0809361058A
:101FB0000F900F900F900F900F900F90F7C080919F
:101FC000CE068F938091CD068F938091D0068F930C
:101FD0008091CF068F930AC08091900680FFF9C050
:101FE0004AE080E51F928F931F924F938CE093E01D
:101FF0009F938F930CC0809191068F938091900650
:102000008F938091AB061F928F933F922F9281E422
:1020100095E09F938F930E942B37AAC080918F06E3
:102020008F5F1F928F9380918A068F5F1F928F938D
:10203000809170068F5F1F928F93A8EEB2E03EC032
:102040008FEF8F938F938F938F938091CC068F9385
:102050008091CB068F938091CA068F938091C90699
:102060008F93A1EFB2E07CC08091D10694CF809194
:1020700085058F93809184058F93809181058F933F
:10208000809180058F93809183058F938091820545
:102090008F93A9E0B3E012C08091BF068F93809127
:1020A000BE068F938091BD068F938091BC068F935F
:1020B00080919E061F928F93A9EFB2E0BF93AF93DA
:1020C00081E495E09F938F930E942B3751C00E942B
:1020D000C805209391053093920540939305509342
:1020E000940560939505709396051F927F93809158
:1020F00095051F928F93809194051F928F938091E5
:1021000093051F928F93809192051F928F938091D8
:1021100091051F928F93A0E0B3E0BF93AF9381E44A
:1021200095E09F938F930E942B3722C080910F04DC
:102130008F9380910E048F9380910D048F938091E3
:102140000C048F93809113048F93809112048F93CA
:10215000809111048F93809110048F93A2E1B3E0DA
:10216000BF93AF9381E495E09F938F930E942B37A9
:1021700081E0809361050FB6F894DEBF0FBECDBF3E
:1021800015C064E071E081E495E00E94E0396AE105
:1021900073E081E495E00E9419376BE771E081E418
:1021A00095E00E94D53981E08093610520E030E020
:1021B00023CA2FEF3FEF20CA81E0232B09F080E0F4
:1021C0000E9455181ECA8F7E80939206EFCF40E082
:1021D00069CD46E080E106CF123009F09BCA0E942B
:1021E0005527C090C305D090C405E090C505F09078
:1021F000C605DC01CB018C199D09AE09BF098031F0
:102200009742A105B10508F485CA1092C305109242
:10221000C4051092C5051092C6051F921F931F9208
:1022200084E28F938CE193E09F938F9384E194E019
:102230009F938F930E942B370E942A16E0913F05AF
:10224000F09140050284F385E02D64E174E08FE3B2
:1022500095E009950FB6F894DEBF0FBECDBF5ACA00
:1022600091114BCA5BCA8B1509F4EFCB109276051E
:1022700010924105109261051092780580E00E944D
:102280005518C3C932E0D5CB28960FB6F894DEBFF7
:102290000FBECDBFDF91CF911F910F91FF90EF90B7
:1022A000DF90CF90BF90AF909F908F907F903F90A6
:1022B0002F900895AF92BF92CF92DF92EF92FF924C
:1022C0000F931F93CF93DF93D82F8091A50586FDA1
:1022D000B6C4C0919E068091900680FD03C0BB24C9
:1022E000B39402C082E0B82EA090AB060E9455279E
:1022F0006B017C0190919E0680919F06981709F4CE
:102300000DC328EEC20E23E0D21EE11CF11C809109
:10231000920681FDD2E01F92AF921F92BF928AE295
:1023200091E09F938F9304E114E01F930F930E9419
:102330002B374DB75EB7485F5F4F0FB6F8945EBF5F
:102340000FBE4DBFC63009F44BC1B0F4C33009F421
:102350000FC130F4C13049F1C23009F48EC08DC1D3
:10236000C43009F42BC1C53009F087C181E00E9457
:102370005C1B69E072E02FC1C93009F45DC138F41B
:10238000C73009F421C1C83009F439C176C1CE3F44
:1023900009F45AC108F040C1CA3009F06EC181E0A9
:1023A0000E945C1B6CED71E022C187E995E00E9400
:1023B0003E0840E060E087E995E00E94430782E044
:1023C0000E945C1B0E94841B81E492E00E94921B8D
:1023D00044E154E060E070E08AE090E00E94A11BDC
:1023E0006091100470911104809112049091130473
:1023F00020E13EE040E050E00E94CA365F934F93F8
:102400003F932F9386E293E09F938F931F930F93B5
:102410000E942B3744E154E061E070E080E090E0FE
:102420000E94A11B60910C0470910D0480910E0418
:1024300090910F0428EE33E040E050E00E94CA364D
:102440005F934F933F932F938DE293E09F938F93EE
:102450001F930F930E942B3744E154E061E070E03A
:1024600087E090E00E94A11B8DB79EB740960FB603
:10247000F8949EBF0FBE8DBF00C187E995E00E9412
:102480003E0840E060E087E995E00E94430783E072
:102490000E945C1B8091D106882329F063E087E9C4
:1024A00095E00E9439078091C406882329F060E0F6
:1024B00087E995E00E9439070E94841B87E392E038
:1024C0000E94921B44E154E060E070E08AE090E0FA
:1024D0000E94A11B6091100470911104809112045C
:1024E0009091130420E13EE040E050E00E94CA36A3
:1024F0005F934F933F932F9386E293E09F938F9345
:1025000004E114E01F930F930E942B37A80161E0B0
:1025100070E080E090E00E94A11B60910C0470913B
:102520000D0480910E0490910F0428EE33E040E0FA
:1025300050E00E94CA365F934F933F932F938DE2F2
:1025400093E09F938F931F930F930E942B37A801C3
:1025500061E070E087E090E00E94A11B2DB73EB7DC
:10256000205F3F4F0FB6F8943EBF0FBE2DBF85C012
:1025700086E00E945C1B87E995E00E943E0840E0EF
:1025800060E087E995E00E9443078091D1068823A7
:1025900029F063E087E995E00E9439078091C4063D
:1025A000882329F060E087E995E00E9439070E94BE
:1025B000841B8EE292E00E94921B5FC081E00E9429
:1025C0005C1B65E172E007C081E00E945C1B62ED6C
:1025D00071E0D23079F483E292E00E94F81B4DC0A2
:1025E00081E00E945C1B6DEE71E0D23019F488EF3F
:1025F00091E0F3CF80E090E00E94E61B3EC081E0D6
:102600000E945C1BD23019F083E292E002C088EF96
:1026100091E066EC71E0E1CF85E00E945C1B87E908
:1026200095E00E943E0840E060E087E995E00E9466
:1026300043078DEB91E017C081E00E945C1B6CEAC0
:1026400071E081EB91E0C9CF85E00E945C1B87E9D6
:1026500095E00E943E0840E060E087E995E00E9436
:10266000430783EA91E00E94921B44E154E060E05A
:1026700070E08AE090E00E94A11B8091B7059091E4
:10268000B805A091B905B091BA05A7019601281B1C
:10269000390B4A0B5B0BDA01C901883E9340A10557
:1026A000B10518F4D13009F0CAC2C092B705D09272
:1026B000B805E092B905F092BA058091920681FDC5
:1026C00005C08AEF8C0F823008F42BC10E94C80528
:1026D0002093910530939205409393055093940570
:1026E0006093950570939605C33021F08091920612
:1026F00084FF61C08091A50587FF44C08F778093D8
:10270000A5056091C9067091CA068091CB0690918B
:10271000CC06683E53E075078105910528F128EE47
:1027200033E040E050E00E94CA36D22F132F24E657
:1027300030E040E050E00E94CA363F932F931F9351
:10274000DF9385E393E09F938F9384E194E09F93DD
:102750008F930E942B378DB79EB708960FB6F894CB
:102760009EBF0FBE8DBF06C06CE971E084E194E0AE
:102770000E94E03944E154E060E070E08AE090E0DB
:102780000E94A11BC330B9F42091C9063091CA063A
:102790004091CB065091CC0680919006C0901004D9
:1027A000D0901104E0901204F090130480FF1FC138
:1027B000A0EFB0E01EC1CE3F09F041C240E060E0B2
:1027C00087E995E00E9443070E94841B83EA91E019
:1027D0000E94921B809196051F928F938091950580
:1027E0001F928F93809194051F928F9386E493E0BC
:1027F0009F938F93C4E1D4E0DF93CF930E942B3754
:10280000AE0161E070E080E090E00E94A11B8DB716
:102810009EB70A960FB6F8949EBF0FBE8DBF8091EB
:102820008605882309F453C040E069E087E995E014
:102830000E94430762E087E995E00E94390760E063
:1028400087E995E00E943907809188051F928F9350
:10285000809187051F928F930BE413E01F930F93D2
:10286000DF93CF930E942B37AE0160E070E08BE0E6
:1028700090E00E94A11B41E069E087E995E00E9499
:10288000430761E087E995E00E94390760E087E946
:1028900095E00E94390780918A051F928F9380915D
:1028A00089051F928F931F930F93DF93CF930E94FD
:1028B0002B378DB79EB740960FB6F8949EBF0FBECC
:1028C0008DBFAE0161E070E08BE090E01BC01F9215
:1028D000AF921F92BF928AE291E09F938F93DF9312
:1028E000CF930E942B374DB75EB7485F5F4F0FB64F
:1028F000F8945EBF0FBE4DBF44E154E060E070E06D
:102900008AE090E0DF91CF911F910F91FF90EF90BF
:10291000DF90CF90BF90AF900C94A11BD111F1CC60
:10292000ACCE60E271E084E194E00E9424378091B3
:102930009E06863049F4C0906806D0906906E09003
:102940006A06F0906B0608C0C0908206D09083069D
:10295000E0908406F09085060E94552740EEC40E54
:1029600043E9D41E44E0E41EF11CA7019601261B96
:10297000370B480B590BCA01B90128EE33E040E090
:1029800050E00E94CA36C90137FD59C16CE370E0BE
:102990000E94B6369F938F937F936F938BE493E05F
:1029A0009F938F9380E394E09F938F930E942B37A4
:1029B00060E374E084E194E00E9419374DB75EB79C
:1029C000485F5F4F0FB6F8945EBF0FBE4DBF64E126
:1029D00074E081E090E0DF91CF911F910F91FF9023
:1029E000EF90DF90CF90BF90AF900C94B11BA8E711
:1029F000B0E00E94F23628EE33E040E050E00E9462
:102A0000CA36D701C601820F931FA41FB51F80933A
:102A1000100490931104A0931204B09313046091D6
:102A2000100470911104809112049091130420E11C
:102A30003EE040E050E00E94CA365F934F933F93E0
:102A40002F9386E293E09F938F93C4E1D4E0DF93CA
:102A5000CF930E942B37AE0161E070E080E090E000
:102A60000E94A11B60910C0470910D0480910E04D2
:102A700090910F0428EE33E040E050E00E94CA3607
:102A80005F934F933F932F938DE293E09F938F93A8
:102A9000DF93CF930E942B37AE0161E070E087E0B7
:102AA00090E00E94A11B809179052DB73EB7205F71
:102AB0003F4F0FB6F8943EBF0FBE2DBF80FFADC095
:102AC0000E94111CE0918005F0918105309771F111
:102AD000CF016AE070E00E94B63697FF03C091957F
:102AE000819591099F938F93CF016AE070E00E94D6
:102AF000B6367F936F938DE393E09F938F9384E13A
:102B000094E09F938F930E942B3744E154E061E05F
:102B100070E080E090E00E94A11B4DB75EB7485F77
:102B20005F4F0FB6F8945EBF0FBE4DBFE0918205B8
:102B3000F0918305309769F1CF016AE070E00E945F
:102B4000B63697FF03C09195819591099F938F9316
:102B5000CF016AE070E00E94B6367F936F938DE3F9
:102B600093E09F938F9384E194E09F938F930E94CF
:102B70002B3744E154E061E070E085E090E00E9492
:102B8000A11B8DB79EB708960FB6F8949EBF0FBED7
:102B90008DBFE0918405F0918505309771F1CF01EB
:102BA0006AE070E00E94B63697FF03C09195819568
:102BB00091099F938F93CF016AE070E00E94B6362F
:102BC0007F936F938DE393E09F938F9384E194E0E1
:102BD0009F938F930E942B3744E154E061E070E0B3
:102BE0008BE090E00E94A11B2DB73EB7285F3F4FBE
:102BF0000FB6F8943EBF0FBE2DBF80917905982F78
:102C00009470282F2670263029F48B7F80937905C5
:102C100081E009C0911113C002C082FD10C0846020
:102C20008093790586E0DF91CF911F910F91FF90FE
:102C3000EF90DF90CF90BF90AF900C945C1BDF9132
:102C4000CF911F910F91FF90EF90DF90CF90BF90A9
:102C5000AF900895CF93DF93E4E1F4E080E0EF01DB
:102C60009191992311F08927FACF1F928F9385E5CF
:102C700093E09F938F93DF93CF930E942B378DE048
:102C80008B831C820F900F900F900F900F900F90DE
:102C9000DF91CF91089580919E068E3FB9F080E03C
:102CA00090E00E948D1A8EEF80939E0681E00E9434
:102CB0005A1181E00E94F9270E9455276093B006BF
:102CC0007093B1068093B2069093B30608959C0169
:102CD000265031092E32310538F445E8489F9001DD
:102CE000499F300D112414C09C01245331092D310A
:102CF0003105D8F4092E000CAA0BBB0B80569F4F50
:102D0000AF4FBF4F9C0185E0220F331F8A95E1F73B
:102D100030938B0020938A0081E090E090935E06D0
:102D200080935D0680E090E0089581E090E0089552
:102D30001F93CF93DF93162F209190063091910629
:102D4000F901E170FF2720FD02C090E101C090E58C
:102D5000863038F0981758F08093AB06C0E0D0E08A
:102D60000AC086E08093AB06C1E0D0E004C0909337
:102D7000AB06C2E0D0E041110FC06091AB06EF2B73
:102D800011F421E001C022E081E090E0213011F453
:102D900080E090E00E940A3A80915D0690915E0684
:102DA000019729F48091AB0690E00E9467161123E9
:102DB00019F081E00E945A11CE01DF91CF911F914D
:102DC0000895CF938091900680FD02C0C1E001C0BC
:102DD000C2E081E090E0C13011F480E090E00E9418
:102DE000F6399FEF980F9E3F20F0C13081F080E1CF
:102DF00002C0863050F0C13021F4813150F080E1C2
:102E000008C0813530F080E504C086E002C08CE067
:102E1000F4CFCF910895CF93C62F20919006309193
:102E20009106823011F4216001C02E7F309391060B
:102E30002093900680919006909191060E946208DE
:102E40000E94E1169AE0E6E1F1E0A4E9B6E0019023
:102E50000D929A95E1F740E060E00E949816CC232D
:102E600021F081E0CF910C945A11CF910895CF9326
:102E7000DF93CDE5D6E08BA96091AB06817090E041
:102E80000E940A3A8BA99CA9DF91CF910C94620809
:102E900080E090E00E948D1A6FE871E081E090E0A0
:102EA0000E94E61B8091920686FF06C068EB7BE0DD
:102EB00080E090E00E941B279EE088E10FB6F89426
:102EC000A895809360000FBE909360006CED75E054
:102ED00080E090E00C941B27BC0181E891E00E9407
:102EE000F81B6CED75E080E090E00C941B27CF930D
:102EF000C82F9091A505813011F49E7F01C091608B
:102F00009093A50581E00E945A112091900630917E
:102F10009106C11102C0316001C03E7F309391061D
:102F20002093900680919006909191060E946208ED
:102F300080E090E0CF910895CF92DF92EF92FF92E0
:102F4000CF93DF930E9455276B017C01C1E0D2E053
:102F5000DD2351F0E0917C06F0917D069081809117
:102F60007E06892329F5D0E0CC23C9F0E0917F06C5
:102F7000F0918006908180918106892369F00E94FA
:102F80005527DC01CB018C199D09AE09BF09449777
:102F9000A105B105E8F203C0C0E0D111F0CF8D2F3B
:102FA0008C2BDF91CF91FF90EF90DF90CF90089521
:102FB000CC2329F3DBCFAF92BF92CF92DF92EF9277
:102FC000FF920F931F93CF93DF936C017B0184E6F5
:102FD000A82EB12C0FEF13E0C0E0D0E081E796E01F
:102FE0000E94F904C817D90728F08017910718F430
:102FF0008C0101C0EC0181E0A81AB10879F7809139
:103000005D0690915E06029771F0209194063091D2
:10301000950690919306C217D30710F09E7F01C0CA
:10302000916090939306C114D10431F0F60111839D
:103030000083F701D183C083DF91CF911F910F915E
:10304000FF90EF90DF90CF90BF90AF9008950F93D7
:103050001F93CF93DF931F92CDB7DEB7682F88E120
:1030600069830E94F419698181E596E00E947202E9
:103070000E949B1962E088E10E945B19109237045C
:103080008093360481E596E00E941902182F0027EC
:1030900081E596E00E9419029801282BC9010F9042
:1030A000DF91CF911F910F910895811103C08EE59B
:1030B00093E002C08BE593E09F938F931F9284E28D
:1030C0008F9381E693E09F938F9384E194E09F93A5
:1030D0008F930E942B378DB79EB708960FB6F89442
:1030E0009EBF0FBE8DBF80916105882361F06AE1AC
:1030F00073E084E194E00E94193761E475E084E1B3
:1031000094E00E941937209178052223E1F0E4E150
:10311000F4E001900020E9F71F922F931F922AE319
:103120002F9326E633E03F932F93CF0101979F9390
:103130008F930E942B378DB79EB708960FB6F894E1
:103140009EBF0FBE8DBF0E942A16E0913F05F091F1
:1031500040050284F385E02D64E174E08FE395E09F
:10316000099580917705882359F0E0913F05F0910A
:1031700040050084F185E02D6AE08FE395E0099435
:103180000895CF92DF92EF92FF9280919E06845035
:10319000873008F47CC080918605882309F477C0C5
:1031A0000E94681B882309F472C00E9455276B0196
:1031B0007C0180918D0590918E05A0918F05B09135
:1031C0009005A7019601281B390B4A0B5B0BDA010E
:1031D000C901893E9340A105B10508F458C00E9479
:1031E000C805E52F209391053093920540939305F0
:1031F00050939405609395057093960550938B05B5
:1032000060938C05809187054091880550E02CE300
:10321000829F400D511D11242091890580918A05BE
:1032200090E03CE3239F800D911D1124262F30E078
:103230006CE3E69F200D311D11248417950798F447
:103240002417350730F08217930730F042175307E1
:1032500068F02817390768F480919E068E3F79F44C
:103260000E94061B0CC02417350798F7281739074A
:1032700030F001968217930710F00E944B16C0920F
:103280008D05D0928E05E0928F05F0929005FF900B
:10329000EF90DF90CF90089581E08093860561E004
:1032A00084E090E00E940A3A0E9437170E94C118F9
:1032B00081E00C945A119091A1049111FCCF91E0FE
:1032C0009093A1049093A0042FEF20939F04109259
:1032D0009E04260F20939D0490939C0490919C043F
:1032E000880F892B80939C0480919B04813041F44A
:1032F00010929B0480919C048093BB0085EC01C0DC
:1033000085EE8093BC008091A1048130E1F380912F
:103310009E04861710F460919E04ABE7B4E02BE5A1
:1033200034E0F9018E2F821B861718F48D9181935A
:10333000F9CF862F089520915A049091D206213218
:1033400008F046C08091A1048111FCCF32E0309397
:10335000A10431E03093A0043FEF30939F0410921A
:103360009E0420939D04AAE3B4E04BE754E0FA01E5
:103370003E2F341B321718F43D913193F9CF109240
:103380009C0420919C04990F922B90939C04909103
:103390009B04913041F410929B0490919C04909373
:1033A000BB0095EC01C095EE9093BC009091A104F8
:1033B0009230E1F390919F049F3F79F080919F04B8
:1033C000803241F080919F04803331F084E005C069
:1033D00081E003C082E001C083E0109239041092C2
:1033E0005A0410923804089591E090933804809321
:1033F000D2061092390410925A0408950F931F9325
:10340000CF93DF931F92CDB7DEB7182F062F809191
:103410007F0579830E94F419612F81E596E00E946F
:1034200072027981672F81E596E00E947202602F17
:1034300081E596E00E9472020F90DF91CF911F917B
:103440000F910C949B190F931F93CF93DF931F92AF
:10345000CDB7DEB7682F09E715E0F80186816983EB
:103460000E94F419698181E596E00E9472020E942F
:103470009B19F80186810E94F41962E0F8018681A7
:103480000E945B19109237048093360481E596E020
:103490000E94190200E010E0182F81E596E00E94DA
:1034A0001902082B192B0E949B19C8010F90DF915C
:1034B000CF911F910F91089560E083E796E00E94FD
:1034C000EA0860E086E796E00E94EA0860E089E7A3
:1034D00096E00E94EA08EDE5F6E085A98F7B85ABD2
:1034E0000E942D056093B8067093B9068093BA06C2
:1034F0009093BB060E9455276093B0067093B10667
:103500008093B2069093B3061092C9061092CA0631
:103510001092CB061092CC0608952FB7F89400971E
:1035200039F440E45FE150938B0040938A0004C07B
:1035300010928B0010928A0090935E0680935D0635
:103540002FBF0895A8951092640610926306E0912B
:103550005F06F0916006908180916106892321F0D9
:1035600081E0809362060895109262060895EF92BA
:10357000FF920F931F93CF93DF9381E080936406B4
:1035800010926306CDE3D0E00FE212E883E3E82E69
:1035900082E8F82E80916306811112C0219781F094
:1035A00085E696E00E94E008C8010197F1F760E027
:1035B00085E696E00E94EA08C7010197F1F7EACF95
:1035C00062E370E080E090E00E941B27A895E09104
:1035D0005F06F0916006908180916106892381F7F2
:1035E00068EE73E080E090E00E941B271092620674
:1035F0001092640681E090916306911180E0DF9162
:10360000CF911F910F91FF90EF90089580919E06AA
:103610008E5F823070F4809192068B7F8093920649
:103620008FEF80939F0610929E0680E090E00C94AE
:103630008D1A0895CF93DF939091A105992311F0EE
:1036400097E0892780FD03C020EC31E002C020E82C
:1036500031E03093A4052093A30581FF09C0209198
:10366000A3053091A4052F773093A4052093A305DB
:1036700082FF09C08091A3059091A4059E7F90933D
:10368000A4058093A305D091A305C091A4058091C2
:10369000A00580620E94F41982E10E94D1068D2F5C
:1036A0000E94D1068C2F0E94D1060E949B19811185
:1036B000FCCFDF91CF9108959091A50590FF02C0B6
:1036C000811187E09091A20591110C941A1B089525
:1036D000209187059091890521110AC08091880564
:1036E000811106C0911104C080918A05882359F088
:1036F00081E0291308C02091880590918A0529133B
:1037000002C080E00895089580918605882349F0DD
:103710000E94681B882329F060E087E995E00C94FB
:103720003907089540E150E0BC0186EA95E00E9427
:10373000E7391092B60566EA75E087E995E00C94E2
:103740008D28CF93DF93EA01462F682F87E995E014
:103750000E944307BE0187E995E0DF91CF910C9469
:103760008D28EF92FF920F931F93CF93DF937B01EE
:10377000482F60E087E995E00E944307F701019038
:103780000020E9F73197CE2FCE19C13108F0C0E102
:10379000DE2D8701802F8D1B8C1740F4F80161917D
:1037A0008F0187E995E00E943907F4CFC03139F0E5
:1037B00060E287E995E00E943907CF5FF7CFDF919C
:1037C000CF911F910F91FF90EF900895CF93DF93CA
:1037D000EC0140E150E086EA95E00E94E739109262
:1037E000B60566EA75E0CE01DF91CF910C94B11B6E
:1037F000CF93DF93EB01BC0180E090E00E94E61BD9
:10380000BE0181E090E0DF91CF910C94E61B613224
:1038100008F060E20E945B1910923704809336042E
:103820000895CF9341E060E087E995E00E94430767
:10383000C0E160E287E995E00E943907C150C9F70D
:1038400041E060E087E995E0CF910C944307CF9386
:10385000DF93EC0164EF71E080E090E00E941B27B1
:103860008C81882329F0813031F08EED95E005C000
:1038700088EE95E002C083EE95E0DF91CF91089548
:10388000CF93DF93EC014AEB52E061E070E080E01F
:1038900090E00E94A11BEC81F0E0EE0FFF1FE856C4
:1038A000FD4F6081718187E995E00E948D2864EF6A
:1038B00071E080E090E00E941B278C81811102C0A2
:1038C0000E94481780E090E0DF91CF910895FC01BD
:1038D00014826AE772E080E090E00E94E61B6EE6E8
:1038E00073E081E090E00C94B11B1F93CF93DF93C2
:1038F000D82FC62F142F10921404411106C06AEB62
:1039000072E084E194E00E9419376D2F70E080E04E
:1039100090E042E00E94C804BC0184E194E00E946F
:10392000193765E773E084E194E00E94193711309C
:1039300031F46AEB72E084E194E00E9419376C2F55
:1039400070E080E090E042E00E94C804BC0184E1A5
:1039500094E00E94193764E174E081E090E0DF9127
:10396000CF911F910C94B11BFC0184818F5F8C332C
:1039700010F4848301C0148241E064818091D706F1
:103980000C94751CCF93DF93EC0169E473E080E045
:1039900090E00E94E61B6091D8066C8341E0809124
:1039A000D706DF91CF910C94751CFC0184818F5F49
:1039B0008C3310F4848301C0148241E064818091CF
:1039C000D7060C94751CCF93DF93EC016FE373E083
:1039D00080E090E00E94E61B6091D8066C8341E095
:1039E0008091D706DF91CF910C94751CFC018481E6
:1039F0008093D70640E06091D8060E94751C64EF62
:103A000071E080E090E00E941B2784ED95E008952E
:103A1000FC0184818F5F883110F4848301C014829B
:103A200040E06091D80684810C94751CCF93DF939D
:103A3000EC0165E373E080E090E00E94E61BE6E8BD
:103A4000F5E083818093D70664816093D8068C83E8
:103A500040E0DF91CF910C94751CFC018481809330
:103A6000D70640E06091D8060E94751C64EF71E0B3
:103A700080E090E00E941B2789ED95E00895FC010D
:103A800084818F5F883110F4848301C0148240E008
:103A90006091D80684810C94751CCF93DF93EC0160
:103AA0006AE273E080E090E00E94E61BE6E8F5E061
:103AB00081818093D70662816093D8068C8340E031
:103AC000DF91CF910C94751CCF93DF93FC01C481DF
:103AD000FFE0CF9FE001112410921404662331F01F
:103AE0006AEB72E084E194E00E942437209719F495
:103AF00067E773E02BC0CC33D10574F4BE0180E0DE
:103B000090E040E00E94C804BC0184E194E00E947F
:103B100019376BE773E01AC0CE016CE370E00E94C6
:103B2000A236EC0180E090E040E00E94C804BC01B5
:103B300084E194E00E941937CD2B31F060E873E006
:103B400084E194E00E94193763E873E084E194E033
:103B50000E94193764E174E081E090E0DF91CF9139
:103B60000C94B11BCF93DF93EC0161E00E94641DC4
:103B70008C818093C40664EF71E080E090E00E9445
:103B80001B278C81882319F080E090E002C08AE432
:103B900096E0DF91CF910895FC019481943010F468
:103BA0009F5F05C09C3010F49E5F01C09C5F9483B2
:103BB0008481813208F0148261E09091C40684818E
:103BC000981360E0CF010C94641DCF93DF93EC0158
:103BD0008091C4068C8362E672E080E090E00E94EF
:103BE000E61B61E0CE01DF91CF910C94641DCF9371
:103BF000DF93EC0110921404662331F06AEB72E05B
:103C000084E194E00E9424376C81611103C067E76E
:103C100073E00DC070E080E090E040E00E94C804D6
:103C2000BC0184E194E00E94193767E873E084E105
:103C300094E00E94193764E174E081E090E0DF9144
:103C4000CF910C94B11BCF93DF93EC0161E00E9404
:103C5000F71D8C818093D10664EF71E080E090E0E5
:103C60000E941B278C81882319F080E090E002C01D
:103C70008AE496E0DF91CF910895FC01848185303C
:103C800010F48F5F01C08B5F84838481893208F0D8
:103C9000148261E09091D1068481981360E0CF0195
:103CA0000C94F71DCF93DF93EC018091D1068C83A8
:103CB0006DE672E080E090E00E94E61B61E0CE01DC
:103CC000DF91CF910C94F71D0F931F93CF93DF9348
:103CD000FC0104810093D8061091D70641E0602FC3
:103CE000812F0E94751CC6E8D5E01B830C83612FD1
:103CF00087E090E00E940A3A6C8188E090E00E94A0
:103D00000A3A0E94371764EF71E080E090E00E9469
:103D10001B278AE496E0DF91CF911F910F910895C0
:103D20000F931F93CF93DF93FC0104810093D80678
:103D30001091D70641E0602F812F0E94751CC6E8C4
:103D4000D5E019830A83612F85E090E00E940A3A4A
:103D50006A8186E090E00E940A3A0E94371764EF79
:103D600071E080E090E00E941B278AE496E0DF91FA
:103D7000CF911F910F910895CF93DF93EC014AEB00
:103D800052E061E070E080E090E00E94A11BEC81D5
:103D9000F0E0EE0FFF1FE856FD4F6081718187E96B
:103DA00095E00E948D2864EF71E080E090E00E9431
:103DB0001B278C81811103C00E944C1902C00E94F4
:103DC00093288AE496E0DF91CF910895CF93DF9313
:103DD000EC018C818F5F823010F48C8301C01C82D7
:103DE0000E94111C2C8130E081E090E0409186051A
:103DF000442311F080E090E028173907B1F44AEB32
:103E000052E061E070E080E090E00E94A11BEC8154
:103E1000F0E0EE0FFF1FE856FD4F6081718187E9EA
:103E200095E0DF91CF910C948D28220F331FF9017B
:103E3000E856FD4F4081518161E070E080E090E004
:103E4000DF91CF910C94A11BCF93DF93EC0181E024
:103E500090918605911180E08C836AE772E080E0A2
:103E600090E00E94E61B0E94111C4AEB52E061E0C8
:103E700070E080E090E00E94A11BEC81F0E0EE0F8A
:103E8000FF1FE856FD4F6081718187E995E0DF9162
:103E9000CF910C948D28CF93DF93EC018C818F5FB1
:103EA000833010F48C8301C01C820E94111CEC81B1
:103EB000F0E0EE0FFF1FEE56FD4F4081518161E0B3
:103EC00070E080E090E0DF91CF910C94A11BAF9265
:103ED000BF92CF92DF92EF92FF920F931F93CF93F7
:103EE000DF9300D000D000D0CDB7DEB7FC01148145
:103EF0001093D806F090D706B090D606A090D506BD
:103F0000C090D306D090D40684E0E82E012F2F2D48
:103F10004B2D6A2DC6010E944124F0EDCF16F7E02B
:103F2000DF0620F080EDC81A87E0D80AC982AA828D
:103F3000BB82FC821D831E82CE0101960E94550623
:103F400064EF71E080E090E00E941B2784E496E03B
:103F500026960FB6F894DEBF0FBECDBFDF91CF918E
:103F60001F910F91FF90EF90DF90CF90BF90AF9097
:103F70000895EF920F93CF93DF93EC018C818F5FC5
:103F80008C3310F48C8301C01C820E94111C84E0CD
:103F9000E82E0C812091D7064091D6066091D50677
:103FA0008091D3069091D4060E944124DF91CF9155
:103FB0000F91EF900895EF920F93CF93DF93EC0161
:103FC00063E273E080E090E00E94E61B0091D80677
:103FD0000C8384E0E82E2091D7064091D6066091AC
:103FE000D5068091D3069091D4060E944124DF919A
:103FF000CF910F91EF900895EF920F93FC012481E0
:104000002093D70683E0E82E0091D8064091D6068B
:104010006091D5068091D3069091D4060E944124E8
:1040200064EF71E080E090E00E941B2782EF95E052
:104030000F91EF900895EF920F93CF93DF93EC01E0
:104040008C818F5F883110F48C8301C01C820E94A8
:10405000111C83E0E82E0091D8062C814091D606F1
:104060006091D5068091D3069091D4060E94412498
:10407000DF91CF910F91EF900895EF920F93CF932F
:10408000DF93EC016EE173E080E090E00E94E61BBC
:104090002091D7062C8383E0E82E0091D80640912A
:1040A000D6066091D5068091D3069091D4060E94E1
:1040B0004124DF91CF910F91EF900895EF920F93EC
:1040C000FC01848190E09093D4068093D30622E093
:1040D000E22E0091D8062091D7064091D606609135
:1040E000D5060E94412464EF71E080E090E00E94D8
:1040F0001B2787EF95E00F91EF900895EF920F93B4
:10410000FC0184818F5F8A3108F08FE08483848191
:1041100092E0E92E0091D8062091D7064091D6066C
:104120006091D50690E00E9441240F91EF90089590
:10413000EF920F93CF93DF93EC0169E173E080E09E
:1041400090E00E94E61B8091D30691EF980F9B3080
:1041500010F48C8308C08FE08C838FE090E0909304
:10416000D4068093D3068C8192E0E92E0091D80684
:104170002091D7064091D6066091D50690E00E9426
:104180004124DF91CF910F91EF900895EF920F931B
:10419000FC0144814093D606EE24E3940091D806B6
:1041A0002091D7066091D5068091D3069091D406D0
:1041B0000E94412464EF71E080E090E00E941B27A0
:1041C0008CEF95E00F91EF900895CF93DF93EC0182
:1041D0004AEB52E061E070E080E090E00E94A11BB9
:1041E000EC81F0E0EE0FFF1FE856FD4F608171811A
:1041F00087E995E00E948D2864EF71E080E090E00F
:104200000E941B278C81882319F084E496E002C069
:1042100086E096E0DF91CF910895CF93DF93EC0194
:104220008C818F5F823010F48C8301C01C820E94CD
:10423000111CEC81F0E0EE0FFF1FE856FD4F4081AE
:10424000518161E070E080E090E0DF91CF910C94CB
:10425000A11BCF93DF93EC018C818F5F823010F430
:104260008C8301C01C820E94111CEC81F0E0EE0FD7
:10427000FF1FE856FD4F4081518161E070E080E012
:1042800090E0DF91CF910C94A11BFC0114826EE5AC
:1042900073E080E090E00E94E61B6FE973E081E04C
:1042A00090E00C94B11BFC01148262E573E080E0A5
:1042B00090E00E94E61B6FE973E081E090E00C94CF
:1042C000B11BCF93DF93EC014AEB52E061E070E069
:1042D00080E090E00E94A11BEC81F0E0EE0FFF1F58
:1042E000E856FD4F6081718187E995E00E948D2835
:1042F0002C818091900690919106211102C08F7EB1
:1043000001C0806190939106809390068091900601
:10431000909191060E94620864EF71E080E090E065
:104320000E941B2784E496E0DF91CF910895CF93FC
:10433000DF93EC014AEB52E061E070E080E090E056
:104340000E94A11BEC81F0E0EE0FFF1FE856FD4F2D
:104350006081718187E995E00E948D282C81809190
:10436000900690919106211102C0877F11C0109292
:10437000860610928706109288061092890610927F
:104380008206109283061092840610928506886039
:10439000909391068093900680919006909191065B
:1043A0000E94620864EF71E080E090E00E941B27A9
:1043B00084E496E0DF91CF910895CF93DF93EC01F1
:1043C0004AEB52E061E070E080E090E00E94A11BC7
:1043D000EC81F0E0EE0FFF1FE856FD4F6081718128
:1043E00087E995E00E948D282C818091900690911C
:1043F0009106211102C08B7F01C0846090939106C9
:104400008093900680919006909191060E94620898
:1044100064EF71E080E090E00E941B2784E496E066
:10442000DF91CF910895CF93DF93EC014AEB52E0F7
:1044300061E070E080E090E00E94A11BEC81F0E080
:10444000EE0FFF1FE856FD4F6081718187E995E00F
:104450000E948D282C8180919006909191062111C7
:1044600002C09B7F01C09460909391068093900658
:1044700080919006909191060E94620864EF71E02D
:1044800080E090E00E941B2784E496E0DF91CF91CA
:104490000895CF93DF93EC014AEB52E061E070E0C6
:1044A00080E090E00E94A11BEC81F0E0EE0FFF1F86
:1044B000E856FD4F6081718187E995E00E948D2863
:1044C0002C818091900690919106211102C09D7FD0
:1044D00001C092609093910680939006809190061F
:1044E000909191060E94620864EF71E080E090E094
:1044F0000E941B2784E496E0DF91CF910895CF932B
:10450000DF93EC018C818F5F823010F48C8301C0CB
:104510001C820E94111C41E060E087E995E00E9446
:104520004307909190068C8194FD03C0882319F075
:1045300008C0882331F06AEB72E087E995E00E94B9
:104540008D28EC81F0E0EE0FFF1FE856FD4F6081F3
:10455000718187E995E0DF91CF910C948D28CF93FD
:10456000DF93EC018C818F5F823010F48C8301C06B
:104570001C820E94111C41E060E087E995E00E94E6
:104580004307909190068C8193FD03C0882319F016
:1045900008C0882331F06AEB72E087E995E00E9459
:1045A0008D28EC81F0E0EE0FFF1FE856FD4F608193
:1045B000718187E995E0DF91CF910C948D28CF939D
:1045C000DF93EC018C818F5F823010F48C8301C00B
:1045D0001C820E94111C41E060E087E995E00E9486
:1045E0004307909190068C8192FD03C0882319F0B7
:1045F00008C0882331F06AEB72E087E995E00E94F9
:104600008D28EC81F0E0EE0FFF1FE856FD4F608132
:10461000718187E995E0DF91CF910C948D28CF933C
:10462000DF93EC018C818F5F823010F48C8301C0AA
:104630001C820E94111C41E060E087E995E00E9425
:10464000430720919006309191068C8132FD03C082
:10465000882319F008C0882331F06AEB72E087E9FB
:1046600095E00E948D28EC81F0E0EE0FFF1FE856E8
:10467000FD4F6081718187E995E0DF91CF910C94C6
:104680008D28CF93DF93EC018C818F5F823010F403
:104690008C8301C01C820E94111C41E060E087E90C
:1046A00095E00E94430720919006309191068C81FD
:1046B00031FD03C0882319F008C0882331F06AEB6C
:1046C00072E087E995E00E948D28EC81F0E0EE0F22
:1046D000FF1FE856FD4F6081718187E995E0DF910A
:1046E000CF910C948D28CF93DF93EC016A817B816D
:1046F00080E090E00E94E61BE0919006F091910628
:1047000084E0F695E7958A95E1F7E170EC83F0E0B7
:10471000EE0FFF1FE856FD4F81818F9380818F93AD
:1047200086EB92E09F938F9384E194E09F938F9325
:104730000E942B370F900F900F900F900F900F90BB
:1047400064E174E081E090E0DF91CF910C94B11BC3
:10475000CF93DF93EC016A817B8180E090E00E943F
:10476000E61BE0919006F091910683E0F695E795BF
:104770008A95E1F7E170EC83F0E0EE0FFF1FE85659
:10478000FD4F81818F9380818F9386EB92E09F9381
:104790008F9384E194E09F938F930E942B370F9027
:1047A0000F900F900F900F900F9064E174E081E0F4
:1047B00090E0DF91CF910C94B11BCF93DF93EC018C
:1047C0006A817B8180E090E00E94E61BE091900688
:1047D000F0919106F695E795F695E795E170EC83F3
:1047E000F0E0EE0FFF1FE856FD4F81818F9380812F
:1047F0008F9386EB92E09F938F9384E194E09F9355
:104800008F930E942B370F900F900F900F900F9067
:104810000F9064E174E081E090E0DF91CF910C941F
:10482000B11BCF93DF93EC016A817B8180E090E044
:104830000E94E61BE0919106E2FBEE27E0F9EC8393
:10484000F0E0EE0FFF1FE856FD4F81818F938081CE
:104850008F9386EB92E09F938F9384E194E09F93F4
:104860008F930E942B370F900F900F900F900F9007
:104870000F9064E174E081E090E0DF91CF910C94BF
:10488000B11BCF92DF92EF92FF920F931F93CF93C2
:10489000DF936C01F62E142FD22FCE2D109214041C
:1048A000E11006C06AEB72E084E194E00E941937DF
:1048B0006F2D70E080E090E042E00E94C804BC01EF
:1048C00084E194E00E94193763EA73E084E194E0A4
:1048D0000E941937C13031F46AEB72E084E194E050
:1048E0000E941937612F70E080E090E042E00E9462
:1048F000C804BC0184E194E00E94193763EA73E0C4
:1049000084E194E00E941937C23031F46AEB72E01E
:1049100084E194E00E941937B60180E090E042E023
:104920000E94C804BC0184E194E00E9419376AE146
:1049300073E084E194E00E941937C33031F46AEBEC
:1049400072E084E194E00E9419376D2F70E080E0FE
:1049500090E042E00E94C804BC0184E194E00E941F
:10496000193765E773E084E194E00E941937C43099
:1049700031F46AEB72E084E194E00E941937602F11
:1049800070E080E090E042E00E94C804BC0184E155
:1049900094E00E94193764E174E081E090E0DF91D7
:1049A000CF911F910F91FF90EF90DF90CF900C94DB
:1049B000B11BEF920F93CF93DF93EC018C818F5F4C
:1049C000803208F081E08C830E94111CEE24E39475
:1049D0000091D8062091D7064C816091D506809130
:1049E000D3069091D4060E944124DF91CF910F917C
:1049F000EF900895EF920F93CF93DF93EC0163E76D
:104A000073E080E090E00E94E61B4091D6064C8364
:104A1000EE24E3940091D8062091D7066091D50644
:104A20008091D3069091D4060E944124DF91CF91CA
:104A30000F91EF900895EF920F93FC0164816093C2
:104A4000D506E12C0091D8062091D7064091D606D4
:104A50008091D3069091D4060E94412464EF71E0C6
:104A600080E090E00E941B2781E096E00F91EF909C
:104A70000895EF920F93CF93DF93EC018C818F5FBA
:104A80008D3008F081E08C830E94111CE12C009194
:104A9000D8062091D7064091D6066C818091D30626
:104AA0009091D4060E944124DF91CF910F91EF9015
:104AB0000895EF920F93CF93DF93EC016DE673E0CF
:104AC00080E090E00E94E61B0E94C80520939105BB
:104AD0003093920540939305509394056093950508
:104AE000709396053093D5064093D606822F90E0BA
:104AF0009093D4068093D306252F5093D706062F84
:104B00006093D8063C83E12C632F0E944124DF91FF
:104B1000CF910F91EF900895CF92DF92EF92FF9295
:104B20000F931F93CF93DF936C017A018B01C0E049
:104B3000D0E0CE15DF0589F0D8016D918D01D60149
:104B4000ED91FC910190F081E02DC6010995892B32
:104B500011F47E0102C02196ECCFC701DF91CF9105
:104B60001F910F91FF90EF90DF90CF900895FC017F
:104B7000918D828D981761F0828DDF01A80FB11D94
:104B80005D968C91928D9F5F9F73928F90E00895B8
:104B90008FEF9FEF0895FC01918D828D981731F072
:104BA000828DE80FF11D858D90E008958FEF9FEFC6
:104BB0000895FC01918D228D892F90E0805C9F4F9C
:104BC000821B91098F739927089582EA94E00E94CD
:104BD000D92521E0892B09F420E0822F0895FC01DA
:104BE000848DDF01A80FB11DA35ABF4F2C91848D76
:104BF00090E001968F739927848FA689B7892C93AB
:104C0000A089B1898C9180648C93938D848D981345
:104C100006C00288F389E02D80818F7D808308950E
:104C2000EF92FF920F931F93CF93DF93EC0181E0FC
:104C3000888F9B8D8C8D981305C0E889F9898081B8
:104C400085FD24C0F62E0B8D10E00F5F1F4F0F73F4
:104C50001127E02E8C8DE8120CC00FB607FCFACF9E
:104C6000E889F989808185FFF5CFCE010E94EF2583
:104C7000F1CF8B8DFE01E80FF11DE35AFF4FF0825B
:104C80000B8FEA89FB898081806207C0EE89FF89EA
:104C90006083E889F98980818064808381E090E085
:104CA000DF91CF911F910F91FF90EF900895CF93D7
:104CB000DF93EC01888D8823C9F0EA89FB89808124
:104CC00085FD05C0A889B9898C9186FD0FC00FB6F6
:104CD00007FCF5CF808185FFF2CFA889B9898C9137
:104CE00085FFEDCFCE010E94EF25E7CFDF91CF9179
:104CF000089580E090E0892B29F00E94E52581113C
:104D00000C94000008953FB7F8948091DF069091CD
:104D1000E006A091E106B091E20626B5A89B05C089
:104D20002F3F19F00196A11DB11D3FBFBA2FA92F2A
:104D3000982F8827820F911DA11DB11DBC01CD01A7
:104D400042E0660F771F881F991F4A95D1F7089593
:104D5000089508950895FC0110AE128212A20895DC
:104D6000FC0110AE128212A2089582EA94E00C9423
:104D7000102682EA94E00C94B72582EA94E00C9421
:104D8000D9250E9414371F920F920FB60F9211244B
:104D90002F933F934F935F936F937F938F939F9343
:104DA000AF93BF93EF93FF9382EA94E00E94EF25C5
:104DB000FF91EF91BF91AF919F918F917F916F91F3
:104DC0005F914F913F912F910F900FBE0F901F90C9
:104DD00018951F920F920FB60F9211242F938F9355
:104DE0009F93EF93FF93E091B204F091B30480811D
:104DF000E091B804F091B90482FD12C090818091D5
:104E0000BB048F5F8F732091BC04821751F0E09137
:104E1000BB04F0E0EE55FB4F958F8093BB0401C0BF
:104E20008081FF91EF919F918F912F910F900FBEF5
:104E30000F901F9018958F929F92AF92BF92CF9232
:104E4000DF92EF92FF926B017C010E9483264B015F
:104E50005C01C114D104E104F104F1F00E94832645
:104E6000DC01CB0188199909AA09BB09883E934046
:104E7000A105B10570F321E0C21AD108E108F108DB
:104E800088EE880E83E0981EA11CB11CC114D104C9
:104E9000E104F10419F7DDCFFF90EF90DF90CF90A0
:104EA000BF90AF909F908F9008952FB7F894609126
:104EB000DB067091DC068091DD069091DE062FBF47
:104EC00008951F920F920FB60F9211242F933F93C4
:104ED0008F939F93AF93BF938091DB069091DC06F5
:104EE000A091DD06B091DE063091DA0623E0230FB3
:104EF0002D3720F40196A11DB11D05C026E8230F12
:104F00000296A11DB11D2093DA068093DB069093D3
:104F1000DC06A093DD06B093DE068091DF0690915B
:104F2000E006A091E106B091E2060196A11DB11D37
:104F30008093DF069093E006A093E106B093E2062B
:104F4000BF91AF919F918F913F912F910F900FBE85
:104F50000F901F9018951F920F920FB60F92112469
:104F60002F933F934F935F936F937F938F939F9371
:104F7000AF93BF93EF93FF93E0910201F091030190
:104F80000995FF91EF91BF91AF919F918F917F9183
:104F90006F915F914F913F912F910F900FBE0F90A6
:104FA0001F9018951F920F920FB60F9211242F93F6
:104FB0003F934F935F936F937F938F939F93AF93A1
:104FC000BF93EF93FF93E0910001F09101010995E8
:104FD000FF91EF91BF91AF919F918F917F916F91D1
:104FE0005F914F913F912F910F900FBE0F901F90A7
:104FF0001895CF93C0919E06882321F08091D90601
:105000008C1739F11F92CF931F9284E28F9385EA18
:1050100093E09F938F9384E194E09F938F930E94FA
:105020002B370E942A16E0913F05F091400502843B
:10503000F385E02D64E174E08FE395E00995C0937A
:10504000D9068DB79EB708960FB6F8949EBF0FBECF
:105050008DBFCF9108950F931F93CF93DF93EC01F2
:1050600060E070E0CB01E991EE23A9F0AAE0B0E0A6
:105070009B01AC010E94F2360E2E000CFF0BAF011B
:10508000405351098A01550F220B330B600F711FDA
:10509000821F931FE8CFDF91CF911F910F91089549
:1050A000FC0140E050E090E021912223B9F0413032
:1050B000510511F49295907F80ED820F8A3010F4A3
:1050C000980F0CC08FEB820F863010F4275305C069
:1050D0008FE9820F863050F42755920F41305105E9
:1050E00019F041E050E0E0CF892F089580E0089565
:1050F0006115710579F0FB0101900020E9F7319706
:10510000AF01461B570BDC01ED91FC910280F3814E
:10511000E02D099480E090E008950C94782882EACC
:1051200094E00C9478281092860560E084E090E08A
:105130000E940A3A0E94371781E00C945A1180911C
:10514000920682608093920682E00E945A1181E06A
:105150000E94F9270E94230A80915D0690915E06C5
:105160000297C1F360E070E080E090E00E94DB17FE
:105170008091930680FDEECF10929E06809192065C
:105180008D7F8093920608958F929F92AF92BF92E7
:10519000CF92DF92EF92FF920F931F93CF93DF9303
:1051A000CDB7DEB7A1970FB6F894DEBF0FBECDBF67
:1051B0006B017C0197FF33C0E0919705F091980552
:1051C0000190F081E02D6DE287E995E009958C0171
:1051D00022273327A9012C193D094E095F0919A27D
:1051E000CE0181967C019AE0892E912CA12CB12CC4
:1051F000CA01B901A50194010E94CA36605DF70198
:1052000062937F01211531054105510589F7BF01E1
:1052100087E995E00E947828800F911F1FC09B01AD
:10522000AC0119A28E010F5D1F4F8AE0C82ED12C50
:10523000E12CF12CCA01B901A70196010E94CA36DE
:10524000605DF80162938F0121153105410551051B
:1052500089F7BF0187E995E00E947828A1960FB6EB
:10526000F894DEBF0FBECDBFDF91CF911F910F919C
:10527000FF90EF90DF90CF90BF90AF909F908F9076
:105280000895CF93DF93C82F48E050E084E194E085
:105290000E94CC398091A2058823B1F0C77088E0C4
:1052A000C89FB0011124606440E087E995E00E9446
:1052B000F006C4E1D4E0699187E995E00E943907DE
:1052C00084E0CC31D807B9F7DF91CF910895CF931F
:1052D000DF93CDB7DEB760970FB6F894DEBF0FBE91
:1052E000CDBF789484B5826084BD84B5816084BD6F
:1052F00085B5826085BD85B5816085BD80916E0074
:10530000816080936E0010928100809181008260A4
:1053100080938100809181008160809381008091E1
:1053200080008160809380008091B10084608093D0
:10533000B1008091B00081608093B00080917A00CC
:10534000846080937A0080917A00826080937A00F2
:1053500080917A00816080937A0080917A008068E1
:1053600080937A001092C1000FB6F894A8958091AE
:105370006000886180936000109260000FBE60E959
:1053800071E080E090E00E941B27E091B204F09170
:10539000B30482E08083E091AE04F091AF04108208
:1053A000E091B004F091B10480E180831092BA04DE
:1053B000E091B604F091B70486E08083E091B404F4
:1053C000F091B504808180618083E091B404F09114
:1053D000B504808188608083E091B404F091B504C5
:1053E000808180688083E091B404F091B50480816D
:1053F0008F7D808386E290E09093BC058093BB050F
:1054000088E08093BD0561E070E08BEB95E00E9441
:105410000F0510923704109236041092390410923E
:105420005A041092A10481E08093A00410929B047E
:1054300088B1806388B98091B9008E7F8093B9006C
:105440008091B9008D7F8093B9008CE08093B80083
:1054500085E48093BC0084E090E00E94F6398F3FA1
:1054600041F41092860560E084E090E00E940A3AE0
:1054700002C08093860585E090E00E94F6398F3F58
:1054800041F41092870560E085E090E00E940A3ABE
:1054900002C08093870586E090E00E94F6398F3F36
:1054A00049F485E08093880565E086E090E00E94FD
:1054B0000A3A02C08093880587E090E00E94F6399E
:1054C0008F3F49F486E08093890566E087E090E0AD
:1054D0000E940A3A02C08093890588E090E00E9409
:1054E000F6398F3F49F487E380938A0567E388E0C4
:1054F00090E00E940A3A02C080938A05A895109213
:10550000A5058091A00580620E94F41980E00E94A8
:10551000D1068FE10E94D1060E949B19882339F0A1
:105520008091A205823019F41092A2058CC080915E
:10553000A00580620E94F4198CE00E94D1068FE1E0
:105540000E94D1060E949B19882321F08091A20518
:10555000823051F38091A00580620E94F41981E0AD
:105560000E94D10680E00E94D1060E949B19909172
:10557000A205882311F09230B9F2923019F481E03B
:105580008093A20580919B05886080939B0582E0B3
:1055900080939E0510929F051092A4051092A3057A
:1055A00013E068E387E995E00E94D60668E187E9A1
:1055B00095E00E94D6061150A1F768E287E995E0D0
:1055C0000E94D60668E087E995E00E94D60665E06D
:1055D00070E080E090E00E941B2760919B05606274
:1055E00040E087E995E00E94F00665E070E080E029
:1055F00090E00E941B2760919B05606240E087E974
:1056000095E00E94F00665E070E080E090E00E9486
:105610001B278CE080939C058091A205882331F0A4
:1056200040E06CE087E995E00E94F00687E995E0AC
:105630000E943E0882E080939D0540E066E087E995
:1056400095E00E94F0068091A205882319F087E07A
:105650000E941A1B87E00E945C1B63E371E080E0FC
:105660000E9441296BE271E081E00E94412963E2DE
:1056700071E082E00E9441296BE171E083E00E94C9
:10568000412987E995E00E943E0861E171E080E0F0
:1056900090E00E94E61B40E150E06BE071E086EA9A
:1056A00095E00E94E7391092B60541E060E087E995
:1056B00095E00E94430766EA75E087E995E00E945D
:1056C0008D2884E091E00E94921B6CED75E080E0F3
:1056D00090E00E941B27A895109277051092410533
:1056E0001092610510929E0610929F0680E00E9423
:1056F000F92782E090E00E94043A8C018F3F2FEF5F
:10570000920751F090FF08C08091A50581608093B9
:10571000A50581E00E945A11B3E2CB2ED12CD09284
:105720007406C092730681E08093750662E070E0B3
:1057300083E796E00E940F0589E2E82EF12CF092B3
:105740007706E092760680E88093780662E070E063
:1057500086E796E00E940F05D0927A06C0927906FD
:1057600082E080937B0662E070E089E796E00E9429
:105770000F05F0927D06E0927C0688E080937E061D
:1057800061E070E08CE796E00E940F05F0928006E1
:10579000E0927F0680E18093810661E070E08FE710
:1057A00096E00E940F05F0926006E0925F0684E0AA
:1057B0008093610660E070E08FE596E00E940F053F
:1057C00081EB94E090930101809300018091690046
:1057D000836080936900E89AF0926606E09265061D
:1057E00080E48093670662E070E085E696E00E94C0
:1057F0000F050E94A21A0E945C1A1092800080E499
:105800009FE1909387008093860081E180938100DF
:10581000229A8091800080628093800080E090E0F6
:105820000E948D1A0F3F3FEF130729F41092910643
:105830001092900609C0109391060093900600FD07
:1058400003C0FF24F39402C0A2E0FA2E8BE090E0A4
:105850000E94043A8C019093CE068093CD0689E095
:1058600090E00E94043A9093D0068093CF060F3FB9
:105870001F4F21F41092CE061092CD06019631F4FE
:105880008CED90E09093D0068093CF061092C506E1
:105890001092C6061092C7061092C8061092C9064A
:1058A0001092CA061092CB061092CC061092920665
:1058B0001092930610926C0610926D0610926E066E
:1058C00010926F0681E190E00E94F6398093700695
:1058D000109286061092870610928806109289060A
:1058E00082E190E00E94F63980938A0610928B063E
:1058F00010928C0610928D0610928E0683E190E035
:105900000E94F63980938F061092820610928306C9
:1059100010928406109285068091900690919106CF
:105920008E719670892BD1F183E00E945C1B80916F
:10593000900681FF04C083EF92E00E946C17809173
:10594000900682FF04C085EB92E00E946C17809164
:10595000900683FF04C088EA92E00E946C17809151
:10596000900684FF04C088E992E00E946C17809141
:1059700090069091910691FF04C086ED92E00E94FE
:105980006C17809190069091910692FF04C086EC6E
:1059900092E00E946C1787E00E945C1BA89580E053
:1059A00090E00E948D1A63E671E08DE691E00E941E
:1059B000F81B8091900685FDC2C066E970E080E02A
:1059C00090E00E941B2781E796E00E94F9048C0179
:1059D00082E090E00E948D1A053813400CF4A8C0B4
:1059E0000E949C17182F83E796E00E94E00889E741
:1059F00096E00E94E0086AEF70E080E090E00E948C
:105A00001B270E949C17282F60E083E796E02D87D4
:105A10000E94EA0860E089E796E00E94EA086AEFDF
:105A200070E080E090E00E941B2786E796E00E94ED
:105A3000E0086AEF70E080E090E00E941B270E947F
:105A40009C17082F60E086E796E00E94EA086AEF5C
:105A500070E080E090E00E941B272D851330A1F5B7
:105A6000233028F480919006213020F01FC023308D
:105A700061F03EC6033011F412E001C010E084FD75
:105A80002BC0033009F032C627C08091900683FDF9
:105A900002C0033021F0002321F010E003C013E026
:105AA00001C012E001500230B8F418C084FD04C0F7
:105AB0000330A1F014E003C0033081F010E0213086
:105AC00041F4023049F410C68091900684FD10C65E
:105AD0000DC6013009F408C6113041F469E471E0E3
